F00605440            0000001012014052011530500SABSAB139    SABFIRME  10000000000010102RCRC                                                                                                CLIMAJ                                                                                                        007                                                              000001CLIPRO01  2014052000000001                                                                                                                                                                                                                                                                                                                                
F00605440            0000002012014052011530500SABSAB139    SABFIRME  10000000000010102RCRC                                                                                                CLIMAJ                                                                                                        007                                               0605440        01005EINC0102                LE FUR                          MARCEL                                                                                                                          00000000                                                  LE FUR                          MARCEL                          0                                        
F00605440            0000003012014052011530500SABSAB139    SABFIRME  10000000000010102RCRC                                                                                                CLIMAJ                                                                                                        007                                               0605440        02          0000000000000000                                                                         0000000000000                                   00000       00000000                                           000000000000000   000000000000000000000000     00000000                                                      3 00                           
F00605440            0000004012014052011530500SABSAB139    SABFIRME  10000000000010102RCRC                                                                                                CLIMAJ                                                                                                        007                                               0605440        03   PRS    1013B           1                        00000000   00000000000                                        0000000000000000000000000000000000000000000000000000000          00000000      PRO         00000000                                                                                                                                          
F00605440            0000005012014052011530500SABSAB139    SABFIRME  10000000000010102RCRC                                                                                                CLIMAJ                                                                                                        007                                               0605440        04  0000000000000000                                                                            4 RUE DE BERVEN                                                                                                                                         29440       PLOUZEVEDE                         FRANCE                   0000000000                      
F00605440            0000006012014052011530500SABSAB139    SABFIRME  10000000000010102RCRC                                                                                                CLIMAJ                                                                                                        007                                               0605440        06FIF000293082                                                                                                                                                                                                                                                                                                                                                  
F00605440            0000007012014052011530500SABSAB139    SABFIRME  10000000000010102RCRC                                                                                                CLIMAJ                                                                                                        007                                               0605440        10BUREAU02 98 69 98 35                                    1                                                                                                                                                                                                                                                                                                     
F00605440            0000008012014052011530500SABSAB139    SABFIRME  10000000000010102RCRC                                                                                                CLIMAJ                                                                                                        007                                               0605440        2020140520FIDCON                                                                                                                                                                                                                                                                                                                                                
F00605440            0000009012014052011530500SABSAB139    SABFIRME  10000000000010102RCRC                                                                                                CLIMAJ                                                                                                        007                                                              99000001                                                                                                                                                                                                                                                                                     
F00605571            0000010012014052011530500SABSAB139    SABFIRME  10000000000010102RCRC                                                                                                CLIMAJ                                                                                                        007                                                              000001CLIPRO01  2014052000000001                                                                                                                                                                                                                                                                                                                                
F00605571            0000011012014052011530500SABSAB139    SABFIRME  10000000000010102RCRC                                                                                                CLIMAJ                                                                                                        007                                               0605571        01005EINC0102                PRONOST                         BERNARD                                                                                                                         00000000                                                  PRONOST                         BERNARD                         0                                        
F00605571            0000012012014052011530500SABSAB139    SABFIRME  10000000000010102RCRC                                                                                                CLIMAJ                                                                                                        007                                               0605571        02          0000000000000000                                                                         0000000000000                                   00000       00000000                                           000000000000000   000000000000000000000000     00000000                                                      3 00                           
F00605571            0000013012014052011530500SABSAB139    SABFIRME  10000000000010102RCRC                                                                                                CLIMAJ                                                                                                        007                                               0605571        03   PRS    4312B           1                        00000000   00000000000                                        0000000000000000000000000000000000000000000000000000000          00000000      PRO         00000000                                                                                                                                          
F00605571            0000014012014052011530500SABSAB139    SABFIRME  10000000000010102RCRC                                                                                                CLIMAJ                                                                                                        007                                               0605571        04  0000000000000000                                                                            FEUNTEUN AR CHEFFELEC                                                                                                                                   29233       CLEDER                             FRANCE                   0000000000                      
F00605571            0000015012014052011530500SABSAB139    SABFIRME  10000000000010102RCRC                                                                                                CLIMAJ                                                                                                        007                                               0605571        06FIF000293083                                                                                                                                                                                                                                                                                                                                                  
F00605571            0000016012014052011530500SABSAB139    SABFIRME  10000000000010102RCRC                                                                                                CLIMAJ                                                                                                        007                                               0605571        10BUREAU02 98 69 32 61                                    1                                                                                                                                                                                                                                                                                                     
F00605571            0000017012014052011530500SABSAB139    SABFIRME  10000000000010102RCRC                                                                                                CLIMAJ                                                                                                        007                                               0605571        2020000401FIDCON                                                                                                                                                                                                                                                                                                                                                
F00605571            0000018012014052011530500SABSAB139    SABFIRME  10000000000010102RCRC                                                                                                CLIMAJ                                                                                                        007                                                              99000001                                                                                                                                                                                                                                                                                     
F00605871            0000019012014052011530500SABSAB139    SABFIRME  10000000000010102RCRC                                                                                                CLIMAJ                                                                                                        007                                                              000001CLIPRO01  2014052000000001                                                                                                                                                                                                                                                                                                                                
F00605871            0000020012014052011530500SABSAB139    SABFIRME  10000000000010102RCRC                                                                                                CLIMAJ                                                                                                        007                                               0605871        01005EINC0102                MARTIN                          JEAN-PAUL                                                                                                                       00000000                                                  MARTIN                          JEAN-PAUL                       0                                        
F00605871            0000021012014052011530500SABSAB139    SABFIRME  10000000000010102RCRC                                                                                                CLIMAJ                                                                                                        007                                               0605871        02          0000000000000000                                                                         0000000000000                                   00000       00000000                                           000000000000000   000000000000000000000000     00000000                                                      3 00                           
F00605871            0000022012014052011530500SABSAB139    SABFIRME  10000000000010102RCRC                                                                                                CLIMAJ                                                                                                        007                                               0605871        03   PRS    4332A           1                        00000000   00000000000                                        0000000000000000000000000000000000000000000000000000000          00000000      PRO         00000000                                                                                                                                          
F00605871            0000023012014052011530500SABSAB139    SABFIRME  10000000000010102RCRC                                                                                                CLIMAJ                                                                                                        007                                               0605871        04  0000000000000000                                                                            95 RUE DES FRERES TEMPLE                                                                                                                                44520       LA MEILLERAYE DE BRETAGNE          France                   0000000000                      
F00605871            0000024012014052011530500SABSAB139    SABFIRME  10000000000010102RCRC                                                                                                CLIMAJ                                                                                                        007                                               0605871        06FIF000293084                                                                                                                                                                                                                                                                                                                                                  
F00605871            0000025012014052011530500SABSAB139    SABFIRME  10000000000010102RCRC                                                                                                CLIMAJ                                                                                                        007                                               0605871        10BUREAU02 40 55 20 16                                    1                                                                                                                                                                                                                                                                                                     
F00605871            0000026012014052011530500SABSAB139    SABFIRME  10000000000010102RCRC                                                                                                CLIMAJ                                                                                                        007                                               0605871        10FAX   02 40 55 23 50                                    1                                                                                                                                                                                                                                                                                                     
F00605871            0000027012014052011530500SABSAB139    SABFIRME  10000000000010102RCRC                                                                                                CLIMAJ                                                                                                        007                                               0605871        2020061201FIDCON                                                                                                                                                                                                                                                                                                                                                
F00605871            0000028012014052011530500SABSAB139    SABFIRME  10000000000010102RCRC                                                                                                CLIMAJ                                                                                                        007                                                              99000001                                                                                                                                                                                                                                                                                     
F00605919            0000029012014052011530500SABSAB139    SABFIRME  10000000000010102RCRC                                                                                                CLIMAJ                                                                                                        007                                                              000001CLIPRO01  2014052000000001                                                                                                                                                                                                                                                                                                                                
F00605919            0000030012014052011530500SABSAB139    SABFIRME  10000000000010102RCRC                                                                                                CLIMAJ                                                                                                        007                                               0605919        01006EINC0102                RICHARD                         IRENE                                                                                                                           00000000                                                  RICHARD                         IRENE                           0                                        
F00605919            0000031012014052011530500SABSAB139    SABFIRME  10000000000010102RCRC                                                                                                CLIMAJ                                                                                                        007                                               0605919        02          0000000000000000                                                                         0000000000000                                   00000       00000000                                           000000000000000   000000000000000000000000     00000000                                                      3 00                           
F00605919            0000032012014052011530500SABSAB139    SABFIRME  10000000000010102RCRC                                                                                                CLIMAJ                                                                                                        007                                               0605919        03   PRS    5610A           1                        00000000   00000000000                                        0000000000000000000000000000000000000000000000000000000          00000000      PRO         00000000                                                                                                                                          
F00605919            0000033012014052011530500SABSAB139    SABFIRME  10000000000010102RCRC                                                                                                CLIMAJ                                                                                                        007                                               0605919        04  0000000000000000                                                                            4 PL ST PIERRE                                                                                                                                          44400       REZE                               FRANCE                   0000000000                      
F00605919            0000034012014052011530500SABSAB139    SABFIRME  10000000000010102RCRC                                                                                                CLIMAJ                                                                                                        007                                               0605919        06FIF000293085                                                                                                                                                                                                                                                                                                                                                  
F00605919            0000035012014052011530500SABSAB139    SABFIRME  10000000000010102RCRC                                                                                                CLIMAJ                                                                                                        007                                               0605919        10BUREAU02 40 75 53 29                                    1                                                                                                                                                                                                                                                                                                     
F00605919            0000036012014052011530500SABSAB139    SABFIRME  10000000000010102RCRC                                                                                                CLIMAJ                                                                                                        007                                               0605919        2020000301FIDCON                                                                                                                                                                                                                                                                                                                                                
F00605919            0000037012014052011530500SABSAB139    SABFIRME  10000000000010102RCRC                                                                                                CLIMAJ                                                                                                        007                                                              99000001                                                                                                                                                                                                                                                                                     
F00606174            0000038012014052011530500SABSAB139    SABFIRME  10000000000010102RCRC                                                                                                CLIMAJ                                                                                                        007                                                              000001CLIPRO01  2014052000000001                                                                                                                                                                                                                                                                                                                                
F00606174            0000039012014052011530500SABSAB139    SABFIRME  10000000000010102RCRC                                                                                                CLIMAJ                                                                                                        007                                               0606174        01005EINC0102                LECOMTE                         DANIEL                                                                                                                          00000000                                                  LECOMTE                         DANIEL                          0                                        
F00606174            0000040012014052011530500SABSAB139    SABFIRME  10000000000010102RCRC                                                                                                CLIMAJ                                                                                                        007                                               0606174        02          0000000000000000                                                                         0000000000000                                   00000       00000000                                           000000000000000   000000000000000000000000     00000000                                                      3 00                           
F00606174            0000041012014052011530500SABSAB139    SABFIRME  10000000000010102RCRC                                                                                                CLIMAJ                                                                                                        007                                               0606174        03   PRS    5630Z           1                        00000000   00000000000                                        0000000000000000000000000000000000000000000000000000000          00000000      PRO         00000000                                                                                                                                          
F00606174            0000042012014052011530500SABSAB139    SABFIRME  10000000000010102RCRC                                                                                                CLIMAJ                                                                                                        007                                               0606174        04  0000000000000000                                                                            2 PL MARIUS GUIOL                                                                                                                                       56100       LORIENT                            FRANCE                   0000000000                      
F00606174            0000043012014052011530500SABSAB139    SABFIRME  10000000000010102RCRC                                                                                                CLIMAJ                                                                                                        007                                               0606174        06FIF000293086                                                                                                                                                                                                                                                                                                                                                  
F00606174            0000044012014052011530500SABSAB139    SABFIRME  10000000000010102RCRC                                                                                                CLIMAJ                                                                                                        007                                               0606174        10BUREAU02 97 37 66 81                                    1                                                                                                                                                                                                                                                                                                     
F00606174            0000045012014052011530500SABSAB139    SABFIRME  10000000000010102RCRC                                                                                                CLIMAJ                                                                                                        007                                               0606174        2020010901FIDCON                                                                                                                                                                                                                                                                                                                                                
F00606174            0000046012014052011530500SABSAB139    SABFIRME  10000000000010102RCRC                                                                                                CLIMAJ                                                                                                        007                                                              99000001                                                                                                                                                                                                                                                                                     
F00607601            0000047012014052011530500SABSAB139    SABFIRME  10000000000010102RCRC                                                                                                CLIMAJ                                                                                                        007                                                              000001CLIPRO01  2014052000000001                                                                                                                                                                                                                                                                                                                                
F00607601            0000048012014052011530500SABSAB139    SABFIRME  10000000000010102RCRC                                                                                                CLIMAJ                                                                                                        007                                               0607601        01005EINC0102                BEGARD                          FRANCIS                                                                                                                         00000000                                                  BEGARD                          FRANCIS                         0                                        
F00607601            0000049012014052011530500SABSAB139    SABFIRME  10000000000010102RCRC                                                                                                CLIMAJ                                                                                                        007                                               0607601        02          0000000000000000                                                                         0000000000000                                   00000       00000000                                           000000000000000   000000000000000000000000     00000000                                                      3 00                           
F00607601            0000050012014052011530500SABSAB139    SABFIRME  10000000000010102RCRC                                                                                                CLIMAJ                                                                                                        007                                               0607601        03   PRS    6820B           1                        00000000   00000000000                                        0000000000000000000000000000000000000000000000000000000          00000000      PRO         00000000                                                                                                                                          
F00607601            0000051012014052011530500SABSAB139    SABFIRME  10000000000010102RCRC                                                                                                CLIMAJ                                                                                                        007                                               0607601        04  0000000000000000                                                                            4 RUE DE L EGLISE                                                                                                                                       54740       XIROCOURT                          FRANCE                   0000000000                      
F00607601            0000052012014052011530500SABSAB139    SABFIRME  10000000000010102RCRC                                                                                                CLIMAJ                                                                                                        007                                               0607601        06FIF000293087                                                                                                                                                                                                                                                                                                                                                  
F00607601            0000053012014052011530500SABSAB139    SABFIRME  10000000000010102RCRC                                                                                                CLIMAJ                                                                                                        007                                               0607601        10BUREAU03 83 52 43 44                                    1                                                                                                                                                                                                                                                                                                     
F00607601            0000054012014052011530500SABSAB139    SABFIRME  10000000000010102RCRC                                                                                                CLIMAJ                                                                                                        007                                               0607601        10FAX   03 83 52 46 83                                    1                                                                                                                                                                                                                                                                                                     
F00607601            0000055012014052011530500SABSAB139    SABFIRME  10000000000010102RCRC                                                                                                CLIMAJ                                                                                                        007                                               0607601        2020020101FIDCON                                                                                                                                                                                                                                                                                                                                                
F00607601            0000056012014052011530500SABSAB139    SABFIRME  10000000000010102RCRC                                                                                                CLIMAJ                                                                                                        007                                                              99000001                                                                                                                                                                                                                                                                                     
F00611124            0000057012014052011530500SABSAB139    SABFIRME  10000000000010102RCRC                                                                                                CLIMAJ                                                                                                        007                                                              000001CLIPRO01  2014052000000001                                                                                                                                                                                                                                                                                                                                
F00611124            0000058012014052011530500SABSAB139    SABFIRME  10000000000010102RCRC                                                                                                CLIMAJ                                                                                                        007                                               0611124        01005EINC0102                BULTEAU                         REMI                                                                                                                            00000000                                                  BULTEAU                         REMI                            0                                        
F00611124            0000059012014052011530500SABSAB139    SABFIRME  10000000000010102RCRC                                                                                                CLIMAJ                                                                                                        007                                               0611124        02          0000000000000000                                                                         0000000000000                                   00000       00000000                                           000000000000000   000000000000000000000000     00000000                                                      3 00                           
F00611124            0000060012014052011530500SABSAB139    SABFIRME  10000000000010102RCRC                                                                                                CLIMAJ                                                                                                        007                                               0611124        03   PRS    8690A           1                        00000000   00000000000                                        0000000000000000000000000000000000000000000000000000000          00000000      PRO         00000000                                                                                                                                          
F00611124            0000061012014052011530500SABSAB139    SABFIRME  10000000000010102RCRC                                                                                                CLIMAJ                                                                                                        007                                               0611124        04  0000000000000000                                                                            7 RUE DE LA GACHERE                                                                                                                                     85670       PALLUAU                            FRANCE                   0000000000                      
F00611124            0000062012014052011530500SABSAB139    SABFIRME  10000000000010102RCRC                                                                                                CLIMAJ                                                                                                        007                                               0611124        06FIF000293088                                                                                                                                                                                                                                                                                                                                                  
F00611124            0000063012014052011530500SABSAB139    SABFIRME  10000000000010102RCRC                                                                                                CLIMAJ                                                                                                        007                                               0611124        10BUREAU02 51 98 51 74                                    1                                                                                                                                                                                                                                                                                                     
F00611124            0000064012014052011530500SABSAB139    SABFIRME  10000000000010102RCRC                                                                                                CLIMAJ                                                                                                        007                                               0611124        10EMAILBbulteau.remi@wanadoo.fr                           1                                                                                                                                                                                                                                                                                                     
F00611124            0000065012014052011530500SABSAB139    SABFIRME  10000000000010102RCRC                                                                                                CLIMAJ                                                                                                        007                                               0611124        2019961201FIDCON                                                                                                                                                                                                                                                                                                                                                
F00611124            0000066012014052011530500SABSAB139    SABFIRME  10000000000010102RCRC                                                                                                CLIMAJ                                                                                                        007                                                              99000001                                                                                                                                                                                                                                                                                     
F00611604            0000067012014052011530500SABSAB139    SABFIRME  10000000000010102RCRC                                                                                                CLIMAJ                                                                                                        007                                                              000001CLIPRO01  2014052000000001                                                                                                                                                                                                                                                                                                                                
F00611604            0000068012014052011530500SABSAB139    SABFIRME  10000000000010102RCRC                                                                                                CLIMAJ                                                                                                        007                                               0611604        01005EINC0102                JASPAR                          ALAIN                                                                                                                           00000000                                                  JASPAR                          ALAIN                           0                                        
F00611604            0000069012014052011530500SABSAB139    SABFIRME  10000000000010102RCRC                                                                                                CLIMAJ                                                                                                        007                                               0611604        02          0000000000000000                                                                         0000000000000                                   00000       00000000                                           000000000000000   000000000000000000000000     00000000                                                      3 00                           
F00611604            0000070012014052011530500SABSAB139    SABFIRME  10000000000010102RCRC                                                                                                CLIMAJ                                                                                                        007                                               0611604        03   PRS    2660Z           1                        00000000   00000000000                                        0000000000000000000000000000000000000000000000000000000          00000000      PRO         00000000                                                                                                                                          
F00611604            0000071012014052011530500SABSAB139    SABFIRME  10000000000010102RCRC                                                                                                CLIMAJ                                                                                                        007                                               0611604        04  0000000000000000                                                                            3B RUE LEON JOST                                                                                                                                        75017       PARIS                              France                   0000000000                      
F00611604            0000072012014052011530500SABSAB139    SABFIRME  10000000000010102RCRC                                                                                                CLIMAJ                                                                                                        007                                               0611604        06FIF000293089                                                                                                                                                                                                                                                                                                                                                  
F00611604            0000073012014052011530500SABSAB139    SABFIRME  10000000000010102RCRC                                                                                                CLIMAJ                                                                                                        007                                               0611604        10BUREAU01 42 27 47 80                                    1                                                                                                                                                                                                                                                                                                     
F00611604            0000074012014052011530500SABSAB139    SABFIRME  10000000000010102RCRC                                                                                                CLIMAJ                                                                                                        007                                               0611604        10FAX   01 42 27 47 80                                    1                                                                                                                                                                                                                                                                                                     
F00611604            0000075012014052011530500SABSAB139    SABFIRME  10000000000010102RCRC                                                                                                CLIMAJ                                                                                                        007                                               0611604        2020011101FIDCON                                                                                                                                                                                                                                                                                                                                                
F00611604            0000076012014052011530500SABSAB139    SABFIRME  10000000000010102RCRC                                                                                                CLIMAJ                                                                                                        007                                                              99000001                                                                                                                                                                                                                                                                                     
F00613176            0000077012014052011530500SABSAB139    SABFIRME  10000000000010102RCRC                                                                                                CLIMAJ                                                                                                        007                                                              000001CLIPRO01  2014052000000001                                                                                                                                                                                                                                                                                                                                
F00613176            0000078012014052011530500SABSAB139    SABFIRME  10000000000010102RCRC                                                                                                CLIMAJ                                                                                                        007                                               0613176        01005EINC0102                BERTHELON                       GILLES                                                                                                                          00000000                                                  BERTHELON                       GILLES                          0                                        
F00613176            0000079012014052011530500SABSAB139    SABFIRME  10000000000010102RCRC                                                                                                CLIMAJ                                                                                                        007                                               0613176        02          0000000000000000                                                                         0000000000000                                   00000       00000000                                           000000000000000   000000000000000000000000     00000000                                                      3 00                           
F00613176            0000080012014052011530500SABSAB139    SABFIRME  10000000000010102RCRC                                                                                                CLIMAJ                                                                                                        007                                               0613176        03   PRS    8621Z           1                        00000000   00000000000                                        0000000000000000000000000000000000000000000000000000000          00000000      PRO         00000000                                                                                                                                          
F00613176            0000081012014052011530500SABSAB139    SABFIRME  10000000000010102RCRC                                                                                                CLIMAJ                                                                                                        007                                               0613176        04  0000000000000000                                                                            3 ALL ST JEAN DES VIGNES              CLINIQUE SAINTE MARIE                                                                                             71100       CHALON SUR SAONE                   FRANCE                   0000000000                      
F00613176            0000082012014052011530500SABSAB139    SABFIRME  10000000000010102RCRC                                                                                                CLIMAJ                                                                                                        007                                               0613176        06FIF000293090                                                                                                                                                                                                                                                                                                                                                  
F00613176            0000083012014052011530500SABSAB139    SABFIRME  10000000000010102RCRC                                                                                                CLIMAJ                                                                                                        007                                               0613176        10BUREAU03 85 47 61 00                                    1                                                                                                                                                                                                                                                                                                     
F00613176            0000084012014052011530500SABSAB139    SABFIRME  10000000000010102RCRC                                                                                                CLIMAJ                                                                                                        007                                               0613176        2019961201FIDCON                                                                                                                                                                                                                                                                                                                                                
F00613176            0000085012014052011530500SABSAB139    SABFIRME  10000000000010102RCRC                                                                                                CLIMAJ                                                                                                        007                                                              99000001                                                                                                                                                                                                                                                                                     
F00617718            0000086012014052011530500SABSAB139    SABFIRME  10000000000010102RCRC                                                                                                CLIMAJ                                                                                                        007                                                              000001CLIPRO01  2014052000000001                                                                                                                                                                                                                                                                                                                                
F00617718            0000087012014052011530500SABSAB139    SABFIRME  10000000000010102RCRC                                                                                                CLIMAJ                                                                                                        007                                               0617718        01006EINC0102                DAMIANO                         COLETTE                                                                                                                         00000000                                                  DAMIANO                         COLETTE                         0                                        
F00617718            0000088012014052011530500SABSAB139    SABFIRME  10000000000010102RCRC                                                                                                CLIMAJ                                                                                                        007                                               0617718        02          0000000000000000                                                                         0000000000000                                   00000       00000000                                           000000000000000   000000000000000000000000     00000000                                                      3 00                           
F00617718            0000089012014052011530500SABSAB139    SABFIRME  10000000000010102RCRC                                                                                                CLIMAJ                                                                                                        007                                               0617718        03   PRS    4532Z           1                        00000000   00000000000                                        0000000000000000000000000000000000000000000000000000000          00000000      PRO         00000000                                                                                                                                          
F00617718            0000090012014052011530500SABSAB139    SABFIRME  10000000000010102RCRC                                                                                                CLIMAJ                                                                                                        007                                               0617718        04  0000000000000000                                                                            24 RUE DES MARTHYRS DE LA RESIST                                                                                                                        06430       SAINT DALMAS DE TENDE              FRANCE                   0000000000                      
F00617718            0000091012014052011530500SABSAB139    SABFIRME  10000000000010102RCRC                                                                                                CLIMAJ                                                                                                        007                                               0617718        06FIF000293094                                                                                                                                                                                                                                                                                                                                                  
F00617718            0000092012014052011530500SABSAB139    SABFIRME  10000000000010102RCRC                                                                                                CLIMAJ                                                                                                        007                                               0617718        10BUREAU93 04 63 46                                       1                                                                                                                                                                                                                                                                                                     
F00617718            0000093012014052011530500SABSAB139    SABFIRME  10000000000010102RCRC                                                                                                CLIMAJ                                                                                                        007                                               0617718        10FAX   93-04-78-27                                       1                                                                                                                                                                                                                                                                                                     
F00617718            0000094012014052011530500SABSAB139    SABFIRME  10000000000010102RCRC                                                                                                CLIMAJ                                                                                                        007                                               0617718        2020040601FIDCON                                                                                                                                                                                                                                                                                                                                                
F00617718            0000095012014052011530500SABSAB139    SABFIRME  10000000000010102RCRC                                                                                                CLIMAJ                                                                                                        007                                                              99000001                                                                                                                                                                                                                                                                                     
F00617757            0000096012014052011530500SABSAB139    SABFIRME  10000000000010102RCRC                                                                                                CLIMAJ                                                                                                        007                                                              000001CLIPRO01  2014052000000001                                                                                                                                                                                                                                                                                                                                
F00617757            0000097012014052011530500SABSAB139    SABFIRME  10000000000010102RCRC                                                                                                CLIMAJ                                                                                                        007                                               0617757        01005EINC0102                BOULAT                          JACKY                                                                                                                           00000000                                                  BOULAT                          JACKY                           0                                        
F00617757            0000098012014052011530500SABSAB139    SABFIRME  10000000000010102RCRC                                                                                                CLIMAJ                                                                                                        007                                               0617757        02          0000000000000000                                                                         0000000000000                                   00000       00000000                                           000000000000000   000000000000000000000000     00000000                                                      3 00                           
F00617757            0000099012014052011530500SABSAB139    SABFIRME  10000000000010102RCRC                                                                                                CLIMAJ                                                                                                        007                                               0617757        03   PRS    4321A           1                        00000000   00000000000                                        0000000000000000000000000000000000000000000000000000000          00000000      PRO         00000000                                                                                                                                          
F00617757            0000100012014052011530500SABSAB139    SABFIRME  10000000000010102RCRC                                                                                                CLIMAJ                                                                                                        007                                               0617757        04  0000000000000000                                                                            18 RUE DU STRATEGIQUE                 CIDEX 436                                                                   CIDEX 436                             90340       CHEVREMONT                         FRANCE                   0000000000                      
F00617757            0000101012014052011530500SABSAB139    SABFIRME  10000000000010102RCRC                                                                                                CLIMAJ                                                                                                        007                                               0617757        06FIF000293095                                                                                                                                                                                                                                                                                                                                                  
F00617757            0000102012014052011530500SABSAB139    SABFIRME  10000000000010102RCRC                                                                                                CLIMAJ                                                                                                        007                                               0617757        10BUREAU03 84 22 31 85                                    1                                                                                                                                                                                                                                                                                                     
F00617757            0000103012014052011530500SABSAB139    SABFIRME  10000000000010102RCRC                                                                                                CLIMAJ                                                                                                        007                                               0617757        2020011101FIDCON                                                                                                                                                                                                                                                                                                                                                
F00617757            0000104012014052011530500SABSAB139    SABFIRME  10000000000010102RCRC                                                                                                CLIMAJ                                                                                                        007                                                              99000001                                                                                                                                                                                                                                                                                     
F00620287            0000105012014052011530500SABSAB139    SABFIRME  10000000000010102RCRC                                                                                                CLIMAJ                                                                                                        007                                                              000001CLIPRO01  2014052000000001                                                                                                                                                                                                                                                                                                                                
F00620287            0000106012014052011530500SABSAB139    SABFIRME  10000000000010102RCRC                                                                                                CLIMAJ                                                                                                        007                                               0620287        01005EINC0102                RORTEAU                         CLAUDE                                                                                                                          00000000                                                  RORTEAU                         CLAUDE                          0                                        
F00620287            0000107012014052011530500SABSAB139    SABFIRME  10000000000010102RCRC                                                                                                CLIMAJ                                                                                                        007                                               0620287        02          0000000000000000                                                                         0000000000000                                   00000       00000000                                           000000000000000   000000000000000000000000     00000000                                                      3 00                           
F00620287            0000108012014052011530500SABSAB139    SABFIRME  10000000000010102RCRC                                                                                                CLIMAJ                                                                                                        007                                               0620287        03   PRS    4623Z           1                        00000000   00000000000                                        0000000000000000000000000000000000000000000000000000000          00000000      PRO         00000000                                                                                                                                          
F00620287            0000109012014052011530500SABSAB139    SABFIRME  10000000000010102RCRC                                                                                                CLIMAJ                                                                                                        007                                               0620287        04  0000000000000000                                                                            LA HALLOPIERE                                                                                                                                           49110       BOTZ EN MAUGES                     FRANCE                   0000000000                      
F00620287            0000110012014052011530500SABSAB139    SABFIRME  10000000000010102RCRC                                                                                                CLIMAJ                                                                                                        007                                               0620287        06FIF000293096                                                                                                                                                                                                                                                                                                                                                  
F00620287            0000111012014052011530500SABSAB139    SABFIRME  10000000000010102RCRC                                                                                                CLIMAJ                                                                                                        007                                               0620287        10BUREAU02 41 70 18 52                                    1                                                                                                                                                                                                                                                                                                     
F00620287            0000112012014052011530500SABSAB139    SABFIRME  10000000000010102RCRC                                                                                                CLIMAJ                                                                                                        007                                               0620287        10FAX   02 41 70 15 53                                    1                                                                                                                                                                                                                                                                                                     
F00620287            0000113012014052011530500SABSAB139    SABFIRME  10000000000010102RCRC                                                                                                CLIMAJ                                                                                                        007                                               0620287        2019980701FIDCON                                                                                                                                                                                                                                                                                                                                                
F00620287            0000114012014052011530500SABSAB139    SABFIRME  10000000000010102RCRC                                                                                                CLIMAJ                                                                                                        007                                                              99000001                                                                                                                                                                                                                                                                                     
F00622082            0000115012014052011530500SABSAB139    SABFIRME  10000000000010102RCRC                                                                                                CLIMAJ                                                                                                        007                                                              000001CLIPRO01  2014052000000001                                                                                                                                                                                                                                                                                                                                
F00622082            0000116012014052011530500SABSAB139    SABFIRME  10000000000010102RCRC                                                                                                CLIMAJ                                                                                                        007                                               0622082        01006EINC0102                BADIER +                        MARYSE                                                                                                                          00000000                                                  BADIER +                        MARYSE                          0                                        
F00622082            0000117012014052011530500SABSAB139    SABFIRME  10000000000010102RCRC                                                                                                CLIMAJ                                                                                                        007                                               0622082        02          0000000000000000                                                                         0000000000000                                   00000       00000000                                           000000000000000   000000000000000000000000     00000000                                                      3 00                           
F00622082            0000118012014052011530500SABSAB139    SABFIRME  10000000000010102RCRC                                                                                                CLIMAJ                                                                                                        007                                               0622082        03   PRS    8690D           1                        00000000   00000000000                                        0000000000000000000000000000000000000000000000000000000          00000000      PRO         00000000                                                                                                                                          
F00622082            0000119012014052011530500SABSAB139    SABFIRME  10000000000010102RCRC                                                                                                CLIMAJ                                                                                                        007                                               0622082        04  0000000000000000                                                                            3 RUE VERCINGETORIX                                                                                                                                     41210       NEUNG SUR BEUVRON                  FRANCE                   0000000000                      
F00622082            0000120012014052011530500SABSAB139    SABFIRME  10000000000010102RCRC                                                                                                CLIMAJ                                                                                                        007                                               0622082        06FIF000293098                                                                                                                                                                                                                                                                                                                                                  
F00622082            0000121012014052011530500SABSAB139    SABFIRME  10000000000010102RCRC                                                                                                CLIMAJ                                                                                                        007                                               0622082        10BUREAU02 54 83 61 77                                    1                                                                                                                                                                                                                                                                                                     
F00622082            0000122012014052011530500SABSAB139    SABFIRME  10000000000010102RCRC                                                                                                CLIMAJ                                                                                                        007                                               0622082        2019951101FIDCON                                                                                                                                                                                                                                                                                                                                                
F00622082            0000123012014052011530500SABSAB139    SABFIRME  10000000000010102RCRC                                                                                                CLIMAJ                                                                                                        007                                                              99000001                                                                                                                                                                                                                                                                                     
F00625054            0000124012014052011530500SABSAB139    SABFIRME  10000000000010102RCRC                                                                                                CLIMAJ                                                                                                        007                                                              000001CLIPRO01  2014052000000001                                                                                                                                                                                                                                                                                                                                
F00625054            0000125012014052011530500SABSAB139    SABFIRME  10000000000010102RCRC                                                                                                CLIMAJ                                                                                                        007                                               0625054        01006EINC0102                LE GOC                          AGNES                                                                                                                           00000000                                                  LE GOC                          AGNES                           0                                        
F00625054            0000126012014052011530500SABSAB139    SABFIRME  10000000000010102RCRC                                                                                                CLIMAJ                                                                                                        007                                               0625054        02          0000000000000000                                                                         0000000000000                                   00000       00000000                                           000000000000000   000000000000000000000000     00000000                                                      3 00                           
F00625054            0000127012014052011530500SABSAB139    SABFIRME  10000000000010102RCRC                                                                                                CLIMAJ                                                                                                        007                                               0625054        03   PRS    7010Z           1                        00000000   00000000000                                        0000000000000000000000000000000000000000000000000000000          00000000      PRO         00000000                                                                                                                                          
F00625054            0000128012014052011530500SABSAB139    SABFIRME  10000000000010102RCRC                                                                                                CLIMAJ                                                                                                        007                                               0625054        04  0000000000000000                                                                            3 RUE CROIX AU LIN                                                                                                                                      29250       SAINT POL DE LEON                  FRANCE                   0000000000                      
F00625054            0000129012014052011530500SABSAB139    SABFIRME  10000000000010102RCRC                                                                                                CLIMAJ                                                                                                        007                                               0625054        06FIF000293099                                                                                                                                                                                                                                                                                                                                                  
F00625054            0000130012014052011530500SABSAB139    SABFIRME  10000000000010102RCRC                                                                                                CLIMAJ                                                                                                        007                                               0625054        10BUREAU02 98 69 24 67                                    1                                                                                                                                                                                                                                                                                                     
F00625054            0000131012014052011530500SABSAB139    SABFIRME  10000000000010102RCRC                                                                                                CLIMAJ                                                                                                        007                                               0625054        2020021201FIDCON                                                                                                                                                                                                                                                                                                                                                
F00625054            0000132012014052011530500SABSAB139    SABFIRME  10000000000010102RCRC                                                                                                CLIMAJ                                                                                                        007                                                              99000001                                                                                                                                                                                                                                                                                     
F00625337            0000133012014052011530500SABSAB139    SABFIRME  10000000000010102RCRC                                                                                                CLIMAJ                                                                                                        007                                                              000001CLIPRO01  2014052000000001                                                                                                                                                                                                                                                                                                                                
F00625337            0000134012014052011530500SABSAB139    SABFIRME  10000000000010102RCRC                                                                                                CLIMAJ                                                                                                        007                                               0625337        01005EINC0102                ROUSSEL                         FRANCOIS                                                                                                                        00000000                                                  ROUSSEL                         FRANCOIS                        0                                        
F00625337            0000135012014052011530500SABSAB139    SABFIRME  10000000000010102RCRC                                                                                                CLIMAJ                                                                                                        007                                               0625337        02          0000000000000000                                                                         0000000000000                                   00000       00000000                                           000000000000000   000000000000000000000000     00000000                                                      3 00                           
F00625337            0000136012014052011530500SABSAB139    SABFIRME  10000000000010102RCRC                                                                                                CLIMAJ                                                                                                        007                                               0625337        03   PRS    8621Z           1                        00000000   00000000000                                        0000000000000000000000000000000000000000000000000000000          00000000      PRO         00000000                                                                                                                                          
F00625337            0000137012014052011530500SABSAB139    SABFIRME  10000000000010102RCRC                                                                                                CLIMAJ                                                                                                        007                                               0625337        04  0000000000000000                                                                            PL DU CHAMP DE FOIRE                                                                                                                                    01400       CHATILLON SUR CHALARONNE           FRANCE                   0000000000                      
F00625337            0000138012014052011530500SABSAB139    SABFIRME  10000000000010102RCRC                                                                                                CLIMAJ                                                                                                        007                                               0625337        06FIF000293100                                                                                                                                                                                                                                                                                                                                                  
F00625337            0000139012014052011530500SABSAB139    SABFIRME  10000000000010102RCRC                                                                                                CLIMAJ                                                                                                        007                                               0625337        10BUREAU04 74 55 01 53                                    1                                                                                                                                                                                                                                                                                                     
F00625337            0000140012014052011530500SABSAB139    SABFIRME  10000000000010102RCRC                                                                                                CLIMAJ                                                                                                        007                                               0625337        2019960701FIDCON                                                                                                                                                                                                                                                                                                                                                
F00625337            0000141012014052011530500SABSAB139    SABFIRME  10000000000010102RCRC                                                                                                CLIMAJ                                                                                                        007                                                              99000001                                                                                                                                                                                                                                                                                     
