F00779145            0000001012014052611565000SABSAB139    SABFIRME  10000000000010102RCRC                                                                                                CLIMAJ                                                                                                        007                                                              000001CLIPRO01  2014052600000001                                                                                                                                                                                                                                                                                                                                
F00779145            0000002012014052611565000SABSAB139    SABFIRME  10000000000010102RCRC                                                                                                CLIMAJ                                                                                                        007                                               0779145        01005EINC0102EIMRBALAND      BALAND                          CLAUDE                                                                                                                          00000000                                                  BALAND                          CLAUDE                          0                                        
F00779145            0000003012014052611565000SABSAB139    SABFIRME  10000000000010102RCRC                                                                                                CLIMAJ                                                                                                        007                                               0779145        02          0000000000000000                                                                         0000000000000                                   00000       00000000                                           000000000000000   000000000000000000000000     00000000                                                      3 00                           
F00779145            0000004012014052611565000SABSAB139    SABFIRME  10000000000010102RCRC                                                                                                CLIMAJ                                                                                                        007                                               0779145        03021PRS    8690E           1                        00000000   00000000000                                        0000000000000000000000000000000000000000000000000000000          00000000      PRO         00000000                                                                                                                                          
F00779145            0000005012014052611565000SABSAB139    SABFIRME  10000000000010102RCRC                                                                                                CLIMAJ                                                                                                        007                                               0779145        04  2999123100000000                                                                            27 RUE BOIS DES DAMES                                                                                                                                   88290       SAULXURES SUR MOSELOTTE            FRANCE                   0000000000                      
F00779145            0000006012014052611565000SABSAB139    SABFIRME  10000000000010102RCRC                                                                                                CLIMAJ                                                                                                        007                                               0779145        06FIF000161807                                                                                                                                                                                                                                                                                                                                                  
F00779145            0000007012014052611565000SABSAB139    SABFIRME  10000000000010102RCRC                                                                                                CLIMAJ                                                                                                        007                                               0779145        10BUREAU03 29 24 61 98                                    1                                                                                                                                                                                                                                                                                                     
F00779145            0000008012014052611565000SABSAB139    SABFIRME  10000000000010102RCRC                                                                                                CLIMAJ                                                                                                        007                                               0779145        10EMAILBclaude.baland@orange.fr                           1                                                                                                                                                                                                                                                                                                     
F00779145            0000009012014052611565000SABSAB139    SABFIRME  10000000000010102RCRC                                                                                                CLIMAJ                                                                                                        007                                               0779145        2019990101FIDCON                                                                                                                                                                                                                                                                                                                                                
F00779145            0000010012014052611565000SABSAB139    SABFIRME  10000000000010102RCRC                                                                                                CLIMAJ                                                                                                        007                                                              99000001                                                                                                                                                                                                                                                                                     
F00779652            0000011012014052611565000SABSAB139    SABFIRME  10000000000010102RCRC                                                                                                CLIMAJ                                                                                                        007                                                              000001CLIPRO01  2014052600000001                                                                                                                                                                                                                                                                                                                                
F00779652            0000012012014052611565000SABSAB139    SABFIRME  10000000000010102RCRC                                                                                                CLIMAJ                                                                                                        007                                               0779652        01007EINC0102EIMLBECK        BECK                            ALEXANDRA                                                                                                                       00000000                                                  BECK                            ALEXANDRA                       0                                        
F00779652            0000013012014052611565000SABSAB139    SABFIRME  10000000000010102RCRC                                                                                                CLIMAJ                                                                                                        007                                               0779652        02          0000000000000000                                                                         0000000000000                                   00000       00000000                                           000000000000000   000000000000000000000000     00000000                                                      3 00                           
F00779652            0000014012014052611565000SABSAB139    SABFIRME  10000000000010102RCRC                                                                                                CLIMAJ                                                                                                        007                                               0779652        03021PRS    8690D           1                        00000000   00000000000                                        0000000000000000000000000000000000000000000000000000000          00000000      PRO         00000000                                                                                                                                          
F00779652            0000015012014052611565000SABSAB139    SABFIRME  10000000000010102RCRC                                                                                                CLIMAJ                                                                                                        007                                               0779652        04  2999123100000000                                                                            4 BD HENRI ROSSIGNOL                                                                                                                                    53600       EVRON                              FRANCE                   0000000000                      
F00779652            0000016012014052611565000SABSAB139    SABFIRME  10000000000010102RCRC                                                                                                CLIMAJ                                                                                                        007                                               0779652        06FIF000161812                                                                                                                                                                                                                                                                                                                                                  
F00779652            0000017012014052611565000SABSAB139    SABFIRME  10000000000010102RCRC                                                                                                CLIMAJ                                                                                                        007                                               0779652        10BUREAU06.03.91.53.53                                    1                                                                                                                                                                                                                                                                                                     
F00779652            0000018012014052611565000SABSAB139    SABFIRME  10000000000010102RCRC                                                                                                CLIMAJ                                                                                                        007                                               0779652        10EMAILBalexandra.beck392@orange.fr                       1                                                                                                                                                                                                                                                                                                     
F00779652            0000019012014052611565000SABSAB139    SABFIRME  10000000000010102RCRC                                                                                                CLIMAJ                                                                                                        007                                               0779652        2019990101FIDCON                                                                                                                                                                                                                                                                                                                                                
F00779652            0000020012014052611565000SABSAB139    SABFIRME  10000000000010102RCRC                                                                                                CLIMAJ                                                                                                        007                                                              99000001                                                                                                                                                                                                                                                                                     
F00781304            0000021012014052611565000SABSAB139    SABFIRME  10000000000010102RCRC                                                                                                CLIMAJ                                                                                                        007                                                              000001CLIPRO01  2014052600000001                                                                                                                                                                                                                                                                                                                                
F00781304            0000022012014052611565000SABSAB139    SABFIRME  10000000000010102RCRC                                                                                                CLIMAJ                                                                                                        007                                               0781304        01005EINC0102EIMRLEGER       LEGER                           JEAN LUC                                                                                                                        00000000                                                  LEGER                           JEAN LUC                        0                                        
F00781304            0000023012014052611565000SABSAB139    SABFIRME  10000000000010102RCRC                                                                                                CLIMAJ                                                                                                        007                                               0781304        02          0000000000000000                                                                         0000000000000                                   00000       00000000                                           000000000000000   000000000000000000000000     00000000                                                      3 00                           
F00781304            0000024012014052611565000SABSAB139    SABFIRME  10000000000010102RCRC                                                                                                CLIMAJ                                                                                                        007                                               0781304        03021PRS    8690F           1                        00000000   00000000000                                        0000000000000000000000000000000000000000000000000000000          00000000      PRO         00000000                                                                                                                                          
F00781304            0000025012014052611565000SABSAB139    SABFIRME  10000000000010102RCRC                                                                                                CLIMAJ                                                                                                        007                                               0781304        04  2999123100000000                                                                            1 RUE DU PUITS CHATEL                                                                                                                                   41000       BLOIS                              FRANCE                   0000000000                      
F00781304            0000026012014052611565000SABSAB139    SABFIRME  10000000000010102RCRC                                                                                                CLIMAJ                                                                                                        007                                               0781304        06FIF000161831                                                                                                                                                                                                                                                                                                                                                  
F00781304            0000027012014052611565000SABSAB139    SABFIRME  10000000000010102RCRC                                                                                                CLIMAJ                                                                                                        007                                               0781304        10BUREAU02 54 74 73 97                                    1                                                                                                                                                                                                                                                                                                     
F00781304            0000028012014052611565000SABSAB139    SABFIRME  10000000000010102RCRC                                                                                                CLIMAJ                                                                                                        007                                               0781304        10EMAILBlegerjeanluc@wanadoo.fr                           1                                                                                                                                                                                                                                                                                                     
F00781304            0000029012014052611565000SABSAB139    SABFIRME  10000000000010102RCRC                                                                                                CLIMAJ                                                                                                        007                                               0781304        2020040101FIDCON                                                                                                                                                                                                                                                                                                                                                
F00781304            0000030012014052611565000SABSAB139    SABFIRME  10000000000010102RCRC                                                                                                CLIMAJ                                                                                                        007                                                              99000001                                                                                                                                                                                                                                                                                     
F00934389            0000031012014052611565000SABSAB139    SABFIRME  10000000000010102RCRC                                                                                                CLIMAJ                                                                                                        007                                                              000001CLIPRO01  2014052600000001                                                                                                                                                                                                                                                                                                                                
F00934389            0000032012014052611565000SABSAB139    SABFIRME  10000000000010102RCRC                                                                                                CLIMAJ                                                                                                        007                                               0934389        01006EINC0102EIMMCOSTA       COSTA                           NATHALIE                                                                                                                        00000000                                                  COSTA                           NATHALIE                        0                                        
F00934389            0000033012014052611565000SABSAB139    SABFIRME  10000000000010102RCRC                                                                                                CLIMAJ                                                                                                        007                                               0934389        02          0000000000000000                                                                         0000000000000                                   00000       00000000                                           000000000000000   000000000000000000000000     00000000                                                      3 00                           
F00934389            0000034012014052611565000SABSAB139    SABFIRME  10000000000010102RCRC                                                                                                CLIMAJ                                                                                                        007                                               0934389        03021PRS    8621Z           1                        00000000   00000000000                                        0000000000000000000000000000000000000000000000000000000          00000000      PRO         00000000                                                                                                                                          
F00934389            0000035012014052611565000SABSAB139    SABFIRME  10000000000010102RCRC                                                                                                CLIMAJ                                                                                                        007                                               0934389        04  2999123100000000                                                                            17 RUE MARECHAL FOCH                                                                                                                                    88420       MOYENMOUTIER                       FRANCE                   0000000000                      
F00934389            0000036012014052611565000SABSAB139    SABFIRME  10000000000010102RCRC                                                                                                CLIMAJ                                                                                                        007                                               0934389        06FIF000167216                                                                                                                                                                                                                                                                                                                                                  
F00934389            0000037012014052611565000SABSAB139    SABFIRME  10000000000010102RCRC                                                                                                CLIMAJ                                                                                                        007                                               0934389        10BUREAU06 48 13 80 92                                    1                                                                                                                                                                                                                                                                                                     
F00934389            0000038012014052611565000SABSAB139    SABFIRME  10000000000010102RCRC                                                                                                CLIMAJ                                                                                                        007                                               0934389        10EMAILBnathalie.dos-santos0192@orange.fr                 1                                                                                                                                                                                                                                                                                                     
F00934389            0000039012014052611565000SABSAB139    SABFIRME  10000000000010102RCRC                                                                                                CLIMAJ                                                                                                        007                                               0934389        2020080301FIDCON                                                                                                                                                                                                                                                                                                                                                
F00934389            0000040012014052611565000SABSAB139    SABFIRME  10000000000010102RCRC                                                                                                CLIMAJ                                                                                                        007                                                              99000001                                                                                                                                                                                                                                                                                     
F00934664            0000041012014052611565000SABSAB139    SABFIRME  10000000000010102RCRC                                                                                                CLIMAJ                                                                                                        007                                                              000001CLIPRO01  2014052600000001                                                                                                                                                                                                                                                                                                                                
F00934664            0000042012014052611565000SABSAB139    SABFIRME  10000000000010102RCRC                                                                                                CLIMAJ                                                                                                        007                                               0934664        01005EINC0102EIMRTHIRION     THIRION                         PATRICE                                                                                                                         00000000                                                  THIRION                         PATRICE                         0                                        
F00934664            0000043012014052611565000SABSAB139    SABFIRME  10000000000010102RCRC                                                                                                CLIMAJ                                                                                                        007                                               0934664        02          0000000000000000                                                                         0000000000000                                   00000       00000000                                           000000000000000   000000000000000000000000     00000000                                                      3 00                           
F00934664            0000044012014052611565000SABSAB139    SABFIRME  10000000000010102RCRC                                                                                                CLIMAJ                                                                                                        007                                               0934664        03021PRS    8559A           1                        00000000   00000000000                                        0000000000000000000000000000000000000000000000000000000          00000000      PRO         00000000                                                                                                                                          
F00934664            0000045012014052611565000SABSAB139    SABFIRME  10000000000010102RCRC                                                                                                CLIMAJ                                                                                                        007                                               0934664        04  2999123100000000                                                                            LOT LES ABRICOTIERS 2                 ROUTE DU LOIR                                                                                                     13250       SAINT CHAMAS                       FRANCE                   0000000000                      
F00934664            0000046012014052611565000SABSAB139    SABFIRME  10000000000010102RCRC                                                                                                CLIMAJ                                                                                                        007                                               0934664        06FIF000167224                                                                                                                                                                                                                                                                                                                                                  
F00934664            0000047012014052611565000SABSAB139    SABFIRME  10000000000010102RCRC                                                                                                CLIMAJ                                                                                                        007                                               0934664        10BUREAU06 02 13 79 64                                    1                                                                                                                                                                                                                                                                                                     
F00934664            0000048012014052611565000SABSAB139    SABFIRME  10000000000010102RCRC                                                                                                CLIMAJ                                                                                                        007                                               0934664        10EMAILBsteph.thirion@gmail.com                           1                                                                                                                                                                                                                                                                                                     
F00934664            0000049012014052611565000SABSAB139    SABFIRME  10000000000010102RCRC                                                                                                CLIMAJ                                                                                                        007                                               0934664        2020090101FIDCON                                                                                                                                                                                                                                                                                                                                                
F00934664            0000050012014052611565000SABSAB139    SABFIRME  10000000000010102RCRC                                                                                                CLIMAJ                                                                                                        007                                                              99000001                                                                                                                                                                                                                                                                                     
F00024115            0000051012014052611565000SABSAB139    SABFIRME  10000000000010102RCRC                                                                                                CLIMAJ                                                                                                        007                                                              000001CLIPRO01  2014052600000001                                                                                                                                                                                                                                                                                                                                
F00024115            0000052012014052611565000SABSAB139    SABFIRME  10000000000010102RCRC                                                                                                CLIMAJ                                                                                                        007                                               0024115        01005EINC0102EIMRGUERREIRO   GUERREIRO                       DOMINIQUE                                                                                                                       00000000                                                  GUERREIRO                       DOMINIQUE                       0                                        
F00024115            0000053012014052611565000SABSAB139    SABFIRME  10000000000010102RCRC                                                                                                CLIMAJ                                                                                                        007                                               0024115        02          0000000000000000                                                                         0000000000000                                   00000       00000000                                           000000000000000   000000000000000000000000     00000000                                                      3 00                           
F00024115            0000054012014052611565000SABSAB139    SABFIRME  10000000000010102RCRC                                                                                                CLIMAJ                                                                                                        007                                               0024115        03021PRS    9602A           1                        00000000   00000000000                                        0000000000000000000000000000000000000000000000000000000          00000000      PRO         00000000                                                                                                                                          
F00024115            0000055012014052611565000SABSAB139    SABFIRME  10000000000010102RCRC                                                                                                CLIMAJ                                                                                                        007                                               0024115        04  2999123100000000                                                                            43 RUE JEAN JAURES                                                                                                                                      42300       ROANNE                             FRANCE                   0000000000                      
F00024115            0000056012014052611565000SABSAB139    SABFIRME  10000000000010102RCRC                                                                                                CLIMAJ                                                                                                        007                                               0024115        06FIF000163674                                                                                                                                                                                                                                                                                                                                                  
F00024115            0000057012014052611565000SABSAB139    SABFIRME  10000000000010102RCRC                                                                                                CLIMAJ                                                                                                        007                                               0024115        10BUREAU04 77 71 28 64                                    1                                                                                                                                                                                                                                                                                                     
F00024115            0000058012014052611565000SABSAB139    SABFIRME  10000000000010102RCRC                                                                                                CLIMAJ                                                                                                        007                                               0024115        2019911201FIDCON                                                                                                                                                                                                                                                                                                                                                
F00024115            0000059012014052611565000SABSAB139    SABFIRME  10000000000010102RCRC                                                                                                CLIMAJ                                                                                                        007                                                              99000001                                                                                                                                                                                                                                                                                     
F00068729            0000060012014052611565000SABSAB139    SABFIRME  10000000000010102RCRC                                                                                                CLIMAJ                                                                                                        007                                                              000001CLIPRO01  2014052600000001                                                                                                                                                                                                                                                                                                                                
F00068729            0000061012014052611565000SABSAB139    SABFIRME  10000000000010102RCRC                                                                                                CLIMAJ                                                                                                        007                                               0068729        01005EINC0102EIMRDUBOIS      DUBOIS                          FRANCOIS                                                                                                                        00000000                                                  DUBOIS                          FRANCOIS                        0                                        
F00068729            0000062012014052611565000SABSAB139    SABFIRME  10000000000010102RCRC                                                                                                CLIMAJ                                                                                                        007                                               0068729        02          0000000000000000                                                                         0000000000000                                   00000       00000000                                           000000000000000   000000000000000000000000     00000000                                                      3 00                           
F00068729            0000063012014052611565000SABSAB139    SABFIRME  10000000000010102RCRC                                                                                                CLIMAJ                                                                                                        007                                               0068729        03021PRS    4391B           1                        00000000   00000000000                                        0000000000000000000000000000000000000000000000000000000          00000000      PRO         00000000                                                                                                                                          
F00068729            0000064012014052611565000SABSAB139    SABFIRME  10000000000010102RCRC                                                                                                CLIMAJ                                                                                                        007                                               0068729        04  2999123100000000                                                                            12 RUE DES MARNAYS                                                                                                                                      71130       GUEUGNON                           FRANCE                   0000000000                      
F00068729            0000065012014052611565000SABSAB139    SABFIRME  10000000000010102RCRC                                                                                                CLIMAJ                                                                                                        007                                               0068729        06FIF000163711                                                                                                                                                                                                                                                                                                                                                  
F00068729            0000066012014052611565000SABSAB139    SABFIRME  10000000000010102RCRC                                                                                                CLIMAJ                                                                                                        007                                               0068729        10BUREAU03 85 85 00 02                                    1                                                                                                                                                                                                                                                                                                     
F00068729            0000067012014052611565000SABSAB139    SABFIRME  10000000000010102RCRC                                                                                                CLIMAJ                                                                                                        007                                               0068729        2019890101FIDCON                                                                                                                                                                                                                                                                                                                                                
F00068729            0000068012014052611565000SABSAB139    SABFIRME  10000000000010102RCRC                                                                                                CLIMAJ                                                                                                        007                                                              99000001                                                                                                                                                                                                                                                                                     
F00071932            0000069012014052611565000SABSAB139    SABFIRME  10000000000010102RCRC                                                                                                CLIMAJ                                                                                                        007                                                              000001CLIPRO01  2014052600000001                                                                                                                                                                                                                                                                                                                                
F00071932            0000070012014052611565000SABSAB139    SABFIRME  10000000000010102RCRC                                                                                                CLIMAJ                                                                                                        007                                               0071932        01005EINC0102EIMRBOULIER     BOULIER                         PHILIPPE                                                                                                                        00000000                                                  BOULIER                         PHILIPPE                        0                                        
F00071932            0000071012014052611565000SABSAB139    SABFIRME  10000000000010102RCRC                                                                                                CLIMAJ                                                                                                        007                                               0071932        02          0000000000000000                                                                         0000000000000                                   00000       00000000                                           000000000000000   000000000000000000000000     00000000                                                      3 00                           
F00071932            0000072012014052611565000SABSAB139    SABFIRME  10000000000010102RCRC                                                                                                CLIMAJ                                                                                                        007                                               0071932        03021PRS    3250A           1                        00000000   00000000000                                        0000000000000000000000000000000000000000000000000000000          00000000      PRO         00000000                                                                                                                                          
F00071932            0000073012014052611565000SABSAB139    SABFIRME  10000000000010102RCRC                                                                                                CLIMAJ                                                                                                        007                                               0071932        04  2999123100000000                                                                            77 RUE DE PARIS                                                                                                                                         76600       LE HAVRE                           FRANCE                   0000000000                      
F00071932            0000074012014052611565000SABSAB139    SABFIRME  10000000000010102RCRC                                                                                                CLIMAJ                                                                                                        007                                               0071932        06FIF000163716                                                                                                                                                                                                                                                                                                                                                  
F00071932            0000075012014052611565000SABSAB139    SABFIRME  10000000000010102RCRC                                                                                                CLIMAJ                                                                                                        007                                               0071932        10BUREAU02 35 42 26 96                                    1                                                                                                                                                                                                                                                                                                     
F00071932            0000076012014052611565000SABSAB139    SABFIRME  10000000000010102RCRC                                                                                                CLIMAJ                                                                                                        007                                               0071932        10FAX   02 35 41 72 39                                    1                                                                                                                                                                                                                                                                                                     
F00071932            0000077012014052611565000SABSAB139    SABFIRME  10000000000010102RCRC                                                                                                CLIMAJ                                                                                                        007                                               0071932        10EMAILBphilippeboulier.podologiste@orange.fr             1                                                                                                                                                                                                                                                                                                     
F00071932            0000078012014052611565000SABSAB139    SABFIRME  10000000000010102RCRC                                                                                                CLIMAJ                                                                                                        007                                               0071932        2019890101FIDCON                                                                                                                                                                                                                                                                                                                                                
F00071932            0000079012014052611565000SABSAB139    SABFIRME  10000000000010102RCRC                                                                                                CLIMAJ                                                                                                        007                                                              99000001                                                                                                                                                                                                                                                                                     
F00292353            0000080012014052611565000SABSAB139    SABFIRME  10000000000010102RCRC                                                                                                CLIMAJ                                                                                                        007                                                              000001CLIPRO01  2014052600000001                                                                                                                                                                                                                                                                                                                                
F00292353            0000081012014052611565000SABSAB139    SABFIRME  10000000000010102RCRC                                                                                                CLIMAJ                                                                                                        007                                               0292353        01005EINC0102EIMRBILLOT      BILLOT                          JEAN-NICOLAS                                                                                                                    00000000                                                  BILLOT                          JEAN-NICOLAS                    0                                        
F00292353            0000082012014052611565000SABSAB139    SABFIRME  10000000000010102RCRC                                                                                                CLIMAJ                                                                                                        007                                               0292353        02          0000000000000000                                                                         0000000000000                                   00000       00000000                                           000000000000000   000000000000000000000000     00000000                                                      3 00                           
F00292353            0000083012014052611565000SABSAB139    SABFIRME  10000000000010102RCRC                                                                                                CLIMAJ                                                                                                        007                                               0292353        03021PRS    7990Z           1                        00000000   00000000000                                        0000000000000000000000000000000000000000000000000000000          00000000      PRO         00000000                                                                                                                                          
F00292353            0000084012014052611565000SABSAB139    SABFIRME  10000000000010102RCRC                                                                                                CLIMAJ                                                                                                        007                                               0292353        04  2999123100000000                                                                            19 RUE JEROME DULAAR                                                                                                                                    69004       LYON 4EME                          FRANCE                   0000000000                      
F00292353            0000085012014052611565000SABSAB139    SABFIRME  10000000000010102RCRC                                                                                                CLIMAJ                                                                                                        007                                               0292353        06FIF000160023                                                                                                                                                                                                                                                                                                                                                  
F00292353            0000086012014052611565000SABSAB139    SABFIRME  10000000000010102RCRC                                                                                                CLIMAJ                                                                                                        007                                               0292353        10BUREAU06 84 54 13 81                                    1                                                                                                                                                                                                                                                                                                     
F00292353            0000087012014052611565000SABSAB139    SABFIRME  10000000000010102RCRC                                                                                                CLIMAJ                                                                                                        007                                               0292353        10EMAILBjeannicolasbillot@orange.fr                       1                                                                                                                                                                                                                                                                                                     
F00292353            0000088012014052611565000SABSAB139    SABFIRME  10000000000010102RCRC                                                                                                CLIMAJ                                                                                                        007                                               0292353        2019990101FIDCON                                                                                                                                                                                                                                                                                                                                                
F00292353            0000089012014052611565000SABSAB139    SABFIRME  10000000000010102RCRC                                                                                                CLIMAJ                                                                                                        007                                                              99000001                                                                                                                                                                                                                                                                                     
F00872100            0000090012014052611565000SABSAB139    SABFIRME  10000000000010102RCRC                                                                                                CLIMAJ                                                                                                        007                                                              000001CLIPRO01  2014052600000001                                                                                                                                                                                                                                                                                                                                
F00872100            0000091012014052611565000SABSAB139    SABFIRME  10000000000010102RCRC                                                                                                CLIMAJ                                                                                                        007                                               0872100        01006EINC0102EIMMGUILLAUD-HOHGUILLAUD-HOHLER                 LUCIE                                                                                                                           00000000                                                  GUILLAUD-HOHLER                 LUCIE                           0                                        
F00872100            0000092012014052611565000SABSAB139    SABFIRME  10000000000010102RCRC                                                                                                CLIMAJ                                                                                                        007                                               0872100        02          0000000000000000                                                                         0000000000000                                   00000       00000000                                           000000000000000   000000000000000000000000     00000000                                                      3 00                           
F00872100            0000093012014052611565000SABSAB139    SABFIRME  10000000000010102RCRC                                                                                                CLIMAJ                                                                                                        007                                               0872100        03021PRS    8690E           1                        00000000   00000000000                                        0000000000000000000000000000000000000000000000000000000          00000000      PRO         00000000                                                                                                                                          
F00872100            0000094012014052611565000SABSAB139    SABFIRME  10000000000010102RCRC                                                                                                CLIMAJ                                                                                                        007                                               0872100        04  2999123100000000                                                                            31 RUE GENERAL LECLERC                                                                                                                                  88190       GOLBEY                             FRANCE                   0000000000                      
F00872100            0000095012014052611565000SABSAB139    SABFIRME  10000000000010102RCRC                                                                                                CLIMAJ                                                                                                        007                                               0872100        06FIF000167917                                                                                                                                                                                                                                                                                                                                                  
F00872100            0000096012014052611565000SABSAB139    SABFIRME  10000000000010102RCRC                                                                                                CLIMAJ                                                                                                        007                                               0872100        10BUREAU03 29 31 96 30                                    1                                                                                                                                                                                                                                                                                                     
F00872100            0000097012014052611565000SABSAB139    SABFIRME  10000000000010102RCRC                                                                                                CLIMAJ                                                                                                        007                                               0872100        10EMAILBlucie.guillaud@wanadoo.fr                         1                                                                                                                                                                                                                                                                                                     
F00872100            0000098012014052611565000SABSAB139    SABFIRME  10000000000010102RCRC                                                                                                CLIMAJ                                                                                                        007                                               0872100        2020050101FIDCON                                                                                                                                                                                                                                                                                                                                                
F00872100            0000099012014052611565000SABSAB139    SABFIRME  10000000000010102RCRC                                                                                                CLIMAJ                                                                                                        007                                                              99000001                                                                                                                                                                                                                                                                                     