F00728804            0000001012014040907122900SABSAB139    SABFIRME  10000000000010102RCRC                                                                                                CLIMAJ                                                                                                        007                                                              000001CLIPRO01  2014040900000001                                                                                                                                                                                                                                                                                                                                 
F00728804            0000002012014040907122900SABSAB139    SABFIRME  10000000000010102RCRC                                                                                                CLIMAJ                                                                                                        007                                               0728804        01005EIMR0102MR  DUVAL       DUVAL                           JACQUES                                                                                                                         00000000                                                  DUVAL                           JACQUES                         0PROF                                     
F00728804            0000003012014040907122900SABSAB139    SABFIRME  10000000000010102RCRC                                                                                                CLIMAJ                                                                                                        007                                               0728804        02          2000041820990418F                                                                    RE  2000041800000CI00000000000000000000    00000000000000       00000000                                           000000000000000   000000000000000000000000     00000000                                                      3 01                            
F00728804            0000004012014040907122900SABSAB139    SABFIRME  10000000000010102RCRC                                                                                                CLIMAJ                                                                                                        007                                               0728804        03021PRS    000000      2   1                      001900041800919000418000                    0                   1900041800000209904180000000000000000000000000000000000      0CDI00000000      FIR         00000000                                                                                                                                           
F00728804            0000005012014040907122900SABSAB139    SABFIRME  10000000000010102RCRC                                                                                                CLIMAJ                                                                                                        007                                               0728804        04  2000041820990418                                                                            3 ALEZ AN EOSTIGED                                                                                                                                      29000       QUIMPER                            FRANCE                   0000000000                       
F00728804            0000006012014040907122900SABSAB139    SABFIRME  10000000000010102RCRC                                                                                                CLIMAJ                                                                                                        007                                               0728804        06FIF000161149                                                                                                                                                                                                                                                                                                                                                   
F00728804            0000007012014040907122900SABSAB139    SABFIRME  10000000000010102RCRC                                                                                                CLIMAJ                                                                                                        007                                               0728804        10BUREAU02 98 95 05 75                                    1                                                                                                                                                                                                                                                                                                      
F00728804            0000008012014040907122900SABSAB139    SABFIRME  10000000000010102RCRC                                                                                                CLIMAJ                                                                                                        007                                               0728804        2020000418FIDCON                                                                                                                                                                                                                                                                                                                                                 
F00728804            0000009012014040907122900SABSAB139    SABFIRME  10000000000010102RCRC                                                                                                CLIMAJ                                                                                                        007                                                              99000001                                                                                                                                                                                                                                                                                                                                                         