F00701804            0000001012014040907122900SABSAB139    SABFIRME  10000000000010102RCRC                                                                                                CLIMAJ                                                                                                        007                                                              000001CLIPRO01  2014040900000001                                                                                                                                                                                                                                                                                                                                 
F00701804            0000002012014040907122900SABSAB139    SABFIRME  10000000000010102RCRC                                                                                                CLIMAJ                                                                                                        007                                               0701804        01005EINC0102EIMRDUVAL       DUVAL                           JACQUES                                                                                                                         00000000                                                  DUVAL                           JACQUES                         0                                         
F00701804            0000003012014040907122900SABSAB139    SABFIRME  10000000000010102RCRC                                                                                                CLIMAJ                                                                                                        007                                               0701804        02          0000000000000000F                                                                        0000000000000  00000000000000000000    00000000000000       00000000                                           000000000000000   000000000000000000000000     00000000                                                      3                               
F00701804            0000004012014040907122900SABSAB139    SABFIRME  10000000000010102RCRC                                                                                                CLIMAJ                                                                                                        007                                               0701804        03021PRS    000000          1                        00000000   00000000000                    0                   1900041800000000000000000000000000000000000000000000000          00000000      PRO         00000000                                                                                                                                           
F00701804            0000005012014040907122900SABSAB139    SABFIRME  10000000000010102RCRC                                                                                                CLIMAJ                                                                                                        007                                               0701804        04  2999123100000000                                                                            3 ALEZ AN EOSTIGED                                                                                                                                      29000       QUIMPER                            FRANCE                   0000000000                       
F00701804            0000006012014040907122900SABSAB139    SABFIRME  10000000000010102RCRC                                                                                                CLIMAJ                                                                                                        007                                               0701804        06FIF000161149                                                                                                                                                                                                                                                                                                                                                   
F00701804            0000007012014040907122900SABSAB139    SABFIRME  10000000000010102RCRC                                                                                                CLIMAJ                                                                                                        007                                               0701804        10BUREAU02 98 95 05 75                                    1                                                                                                                                                                                                                                                                                                      
F00701804            0000008012014040907122900SABSAB139    SABFIRME  10000000000010102RCRC                                                                                                CLIMAJ                                                                                                        007                                               0701804        2020000418FIDCON                                                                                                                                                                                                                                                                                                                                                 
F00701804            0000009012014040907122900SABSAB139    SABFIRME  10000000000010102RCRC                                                                                                CLIMAJ                                                                                                        007                                                              99000001                                                                                                                                                                                                                                                                                                                                                         