F00728803            0000001012014040907122900SABSAB139    SABFIRME  10000000000010102RCRC                                                                                                CLIMAJ                                                                                                                                                                         000001CLIPRO01  2014040900000001                                                                                                                                                                                                                                                                                                                                 
F00728803            0000001022014040907122900SABSAB139    SABFIRME  10000000000010102RCRC                                                                                                CLIMAJ                                                                                                                                                          0728803        01005EINC0102                DUVAL                           JACQUES                                                                                                                                                                                   DUVAL                           JACQUES                         0                                         
F00728803            0000001032014040907122900SABSAB139    SABFIRME  10000000000010102RCRC                                                                                                CLIMAJ                                                                                                                                                          0728803        02          0000000000000000                                                                         0000000000000                                   00000       00000000                                           000000000000000   000000000000000000000000     00000000                                                      3 00                            
F00728803            0000001042014040907122900SABSAB139    SABFIRME  10000000000010102RCRC                                                                                                CLIMAJ                                                                                                                                                          0728803        03   PRS    8623Z           1                        00000000   00000000000                                        0000000000000000000000000000000000000000000000000000000          00000000      PRO         00000000                                                                                                                                           
F00728803            0000001052014040907122900SABSAB139    SABFIRME  10000000000010102RCRC                                                                                                CLIMAJ                                                                                                                                                          0728803        04  0000000000000000                                                                            3 ALEZ AN EOSTIGED                                                                                                                                      29000       QUIMPER                            FRANCE                   0000000000                       
F00728803            0000001062014040907122900SABSAB139    SABFIRME  10000000000010102RCRC                                                                                                CLIMAJ                                                                                                                                                          0728803        06FIF000161149                                                                                                                                                                                                                                                                                                                                                   
F00728803            0000001072014040907122900SABSAB139    SABFIRME  10000000000010102RCRC                                                                                                CLIMAJ                                                                                                                                                          0728803        10BUREAU02 98 95 05 75                                    1                                                                                                                                                                                                                                                                                                      
F00728803            0000001082014040907122900SABSAB139    SABFIRME  10000000000010102RCRC                                                                                                CLIMAJ                                                                                                                                                          0728803        2020000418FIDCON                                                                                                                                                                                                                                                                                                                                                 
F00728803            0000001092014040907122900SABSAB139    SABFIRME  10000000000010102RCRC                                                                                                CLIMAJ                                                                                                                                                                         99000001                                                                                                                                                                                                                                                                                                                                                         
F00728989            0000002012014040907122900SABSAB139    SABFIRME  10000000000010102RCRC                                                                                                CLIMAJ                                                                                                                                                                         000001CLIPRO01  2014040900000001                                                                                                                                                                                                                                                                                                                                 
F00728989            0000002022014040907122900SABSAB139    SABFIRME  10000000000010102RCRC                                                                                                CLIMAJ                                                                                                                                                          0728989        01005EINC0102                SZYMONIAK                       OLIVIER                                                                                                                                                                                   SZYMONIAK                       OLIVIER                         0                                         
F00728989            0000002032014040907122900SABSAB139    SABFIRME  10000000000010102RCRC                                                                                                CLIMAJ                                                                                                                                                          0728989        02          0000000000000000                                                                         0000000000000                                   00000       00000000                                           000000000000000   000000000000000000000000     00000000                                                      3 00                            
F00728989            0000002042014040907122900SABSAB139    SABFIRME  10000000000010102RCRC                                                                                                CLIMAJ                                                                                                                                                          0728989        03   PRS    8622B           1                        00000000   00000000000                                        0000000000000000000000000000000000000000000000000000000          00000000      PRO         00000000                                                                                                                                           
F00728989            0000002052014040907122900SABSAB139    SABFIRME  10000000000010102RCRC                                                                                                CLIMAJ                                                                                                                                                          0728989        04  0000000000000000                                                                            AV DES SABLES                         LA CHAUVELIERE                                                              POLYCLINIQUE DU PARC                  49300       CHOLET                             FRANCE                   0000000000                       
F00728989            0000002062014040907122900SABSAB139    SABFIRME  10000000000010102RCRC                                                                                                CLIMAJ                                                                                                                                                          0728989        06FIF000161150                                                                                                                                                                                                                                                                                                                                                   
F00728989            0000002072014040907122900SABSAB139    SABFIRME  10000000000010102RCRC                                                                                                CLIMAJ                                                                                                                                                          0728989        10BUREAU02 41 63 43 21                                    1                                                                                                                                                                                                                                                                                                      
F00728989            0000002082014040907122900SABSAB139    SABFIRME  10000000000010102RCRC                                                                                                CLIMAJ                                                                                                                                                          0728989        10EMAILBdrszymoniak@gmail.com                             1                                                                                                                                                                                                                                                                                                      
F00728989            0000002092014040907122900SABSAB139    SABFIRME  10000000000010102RCRC                                                                                                CLIMAJ                                                                                                                                                          0728989        2019960801FIDCON                                                                                                                                                                                                                                                                                                                                                 
F00728989            0000002102014040907122900SABSAB139    SABFIRME  10000000000010102RCRC                                                                                                CLIMAJ                                                                                                                                                                         99000001                                                                                                                                                                                                                                                                                                                                                         
F00729530            0000003012014040907122900SABSAB139    SABFIRME  10000000000010102RCRC                                                                                                CLIMAJ                                                                                                                                                                         000001CLIPRO01  2014040900000001                                                                                                                                                                                                                                                                                                                                 
F00729530            0000003022014040907122900SABSAB139    SABFIRME  10000000000010102RCRC                                                                                                CLIMAJ                                                                                                                                                          0729530        01005EINC0102                STRUILLOU                       PHILIPPE                                                                                                                                                                                  STRUILLOU                       PHILIPPE                        0                                         
F00729530            0000003032014040907122900SABSAB139    SABFIRME  10000000000010102RCRC                                                                                                CLIMAJ                                                                                                                                                          0729530        02          0000000000000000                                                                         0000000000000                                   00000       00000000                                           000000000000000   000000000000000000000000     00000000                                                      3 00                            
F00729530            0000003042014040907122900SABSAB139    SABFIRME  10000000000010102RCRC                                                                                                CLIMAJ                                                                                                                                                          0729530        03   PRS    8621Z           1                        00000000   00000000000                                        0000000000000000000000000000000000000000000000000000000          00000000      PRO         00000000                                                                                                                                           
F00729530            0000003052014040907122900SABSAB139    SABFIRME  10000000000010102RCRC                                                                                                CLIMAJ                                                                                                                                                          0729530        04  0000000000000000                                                                            02 RUE MARECHAL JOFFRE                RESIDENCE DU PUITS FERRE                                                                                          56700       HENNEBONT                          FRANCE                   0000000000                       
F00729530            0000003062014040907122900SABSAB139    SABFIRME  10000000000010102RCRC                                                                                                CLIMAJ                                                                                                                                                          0729530        06FIF000161152                                                                                                                                                                                                                                                                                                                                                   
F00729530            0000003072014040907122900SABSAB139    SABFIRME  10000000000010102RCRC                                                                                                CLIMAJ                                                                                                                                                          0729530        10BUREAU02 97 36 37 37                                    1                                                                                                                                                                                                                                                                                                      
F00729530            0000003082014040907122900SABSAB139    SABFIRME  10000000000010102RCRC                                                                                                CLIMAJ                                                                                                                                                          0729530        10EMAILBphilippe.struillou@wanadoo.fr                     1                                                                                                                                                                                                                                                                                                      
F00729530            0000003092014040907122900SABSAB139    SABFIRME  10000000000010102RCRC                                                                                                CLIMAJ                                                                                                                                                          0729530        2019960301FIDCON                                                                                                                                                                                                                                                                                                                                                 
F00729530            0000003102014040907122900SABSAB139    SABFIRME  10000000000010102RCRC                                                                                                CLIMAJ                                                                                                                                                                         99000001                                                                                                                                                                                                                                                                                                                                                         
F00730162            0000004012014040907122900SABSAB139    SABFIRME  10000000000010102RCRC                                                                                                CLIMAJ                                                                                                                                                                         000001CLIPRO01  2014040900000001                                                                                                                                                                                                                                                                                                                                 
F00730162            0000004022014040907122900SABSAB139    SABFIRME  10000000000010102RCRC                                                                                                CLIMAJ                                                                                                                                                          0730162        01005EINC0102                STOUVENOT                       GERARD                                                                                                                                                                                    STOUVENOT                       GERARD                          0                                         
F00730162            0000004032014040907122900SABSAB139    SABFIRME  10000000000010102RCRC                                                                                                CLIMAJ                                                                                                                                                          0730162        02          0000000000000000                                                                         0000000000000                                   00000       00000000                                           000000000000000   000000000000000000000000     00000000                                                      3 00                            
F00730162            0000004042014040907122900SABSAB139    SABFIRME  10000000000010102RCRC                                                                                                CLIMAJ                                                                                                                                                          0730162        03   PRS    8621Z           1                        00000000   00000000000                                        0000000000000000000000000000000000000000000000000000000          00000000      PRO         00000000                                                                                                                                           
F00730162            0000004052014040907122900SABSAB139    SABFIRME  10000000000010102RCRC                                                                                                CLIMAJ                                                                                                                                                          0730162        04  0000000000000000                                                                            5 RUE FELIX  LE DANTEC                IMMEUBLE  LE CAP  VERT                                                                                            29000       QUIMPER                            FRANCE                   0000000000                       
F00730162            0000004062014040907122900SABSAB139    SABFIRME  10000000000010102RCRC                                                                                                CLIMAJ                                                                                                                                                          0730162        06FIF000161161                                                                                                                                                                                                                                                                                                                                                   
F00730162            0000004072014040907122900SABSAB139    SABFIRME  10000000000010102RCRC                                                                                                CLIMAJ                                                                                                                                                          0730162        10BUREAU02 98 53 12 09                                    1                                                                                                                                                                                                                                                                                                      
F00730162            0000004082014040907122900SABSAB139    SABFIRME  10000000000010102RCRC                                                                                                CLIMAJ                                                                                                                                                          0730162        10EMAILBgerard.stouvenot@wanadoo.fr                       1                                                                                                                                                                                                                                                                                                      
F00730162            0000004092014040907122900SABSAB139    SABFIRME  10000000000010102RCRC                                                                                                CLIMAJ                                                                                                                                                          0730162        2019960101FIDCON                                                                                                                                                                                                                                                                                                                                                 
F00730162            0000004102014040907122900SABSAB139    SABFIRME  10000000000010102RCRC                                                                                                CLIMAJ                                                                                                                                                                         99000001                                                                                                                                                                                                                                                                                                                                                         
F00730304            0000005012014040907122900SABSAB139    SABFIRME  10000000000010102RCRC                                                                                                CLIMAJ                                                                                                                                                                         000001CLIPRO01  2014040900000001                                                                                                                                                                                                                                                                                                                                 
F00730304            0000005022014040907122900SABSAB139    SABFIRME  10000000000010102RCRC                                                                                                CLIMAJ                                                                                                                                                          0730304        01005EINC0102                VAILLANT                        FRANCOIS                                                                                                                                                                                  VAILLANT                        FRANCOIS                        0                                         
F00730304            0000005032014040907122900SABSAB139    SABFIRME  10000000000010102RCRC                                                                                                CLIMAJ                                                                                                                                                          0730304        02          0000000000000000                                                                         0000000000000                                   00000       00000000                                           000000000000000   000000000000000000000000     00000000                                                      3 00                            
F00730304            0000005042014040907122900SABSAB139    SABFIRME  10000000000010102RCRC                                                                                                CLIMAJ                                                                                                                                                          0730304        03   PRS    8621Z           1                        00000000   00000000000                                        0000000000000000000000000000000000000000000000000000000          00000000      PRO         00000000                                                                                                                                           
F00730304            0000005052014040907122900SABSAB139    SABFIRME  10000000000010102RCRC                                                                                                CLIMAJ                                                                                                                                                          0730304        04  0000000000000000                                                                            140 AV DE LATTRE DE TASSIGNY          POLE DE CONSULTATION TASSIGNY                                                                                     49000       ANGERS                             FRANCE                   0000000000                       
F00730304            0000005062014040907122900SABSAB139    SABFIRME  10000000000010102RCRC                                                                                                CLIMAJ                                                                                                                                                          0730304        06FIF000161164                                                                                                                                                                                                                                                                                                                                                   
F00730304            0000005072014040907122900SABSAB139    SABFIRME  10000000000010102RCRC                                                                                                CLIMAJ                                                                                                                                                          0730304        10BUREAU02 41 44 44 00                                    1                                                                                                                                                                                                                                                                                                      
F00730304            0000005082014040907122900SABSAB139    SABFIRME  10000000000010102RCRC                                                                                                CLIMAJ                                                                                                                                                          0730304        10EMAILBf.vaillant@numericable.fr                         1                                                                                                                                                                                                                                                                                                      
F00730304            0000005092014040907122900SABSAB139    SABFIRME  10000000000010102RCRC                                                                                                CLIMAJ                                                                                                                                                          0730304        2019970101FIDCON                                                                                                                                                                                                                                                                                                                                                 
F00730304            0000005102014040907122900SABSAB139    SABFIRME  10000000000010102RCRC                                                                                                CLIMAJ                                                                                                                                                                         99000001                                                                                                                                                                                                                                                                                                                                                         
F00731416            0000006012014040907122900SABSAB139    SABFIRME  10000000000010102RCRC                                                                                                CLIMAJ                                                                                                                                                                         000001CLIPRO01  2014040900000001                                                                                                                                                                                                                                                                                                                                 
F00731416            0000006022014040907122900SABSAB139    SABFIRME  10000000000010102RCRC                                                                                                CLIMAJ                                                                                                                                                          0731416        01004PMNC0102    LABM FATIH -LABM FATIH - LABM NEY ST SERGE  LABM FATIH - LABM NEY ST SERGE                                                                                                                                                                                                                            0                                         
F00731416            0000006032014040907122900SABSAB139    SABFIRME  10000000000010102RCRC                                                                                                CLIMAJ                                                                                                                                                          0731416        02          0000000000000000                                                                         0000000000000                                   00000       00000000                                           000000000000000   000000000000000000000000     00000000                                                      2 00                            
F00731416            0000006042014040907122900SABSAB139    SABFIRME  10000000000010102RCRC                                                                                                CLIMAJ                                                                                                                                                          0731416        03   PRS    8690B           1                        00000000   00000000000                                        0000000000000000000000000000000000000000000000000000000          00000000      PRO         00000000                                                                                                                                           
F00731416            0000006052014040907122900SABSAB139    SABFIRME  10000000000010102RCRC                                                                                                CLIMAJ                                                                                                                                                          0731416        04  0000000000000000LABM FATIH - LABM NEY ST SERGE                                              8 RUE DE LA CHALOUERE                                                                                                                                   49100       ANGERS                             FRANCE                   0000000000                       
F00731416            0000006062014040907122900SABSAB139    SABFIRME  10000000000010102RCRC                                                                                                CLIMAJ                                                                                                                                                          0731416        06FIF000161179                                                                                                                                                                                                                                                                                                                                                   
F00731416            0000006072014040907122900SABSAB139    SABFIRME  10000000000010102RCRC                                                                                                CLIMAJ                                                                                                                                                          0731416        2020100101FIDCON                                                                                                                                                                                                                                                                                                                                                 
F00731416            0000006082014040907122900SABSAB139    SABFIRME  10000000000010102RCRC                                                                                                CLIMAJ                                                                                                                                                                         99000001                                                                                                                                                                                                                                                                                                                                                         
F00626997            0000007012014040907122900SABSAB139    SABFIRME  10000000000010102RCRC                                                                                                CLIMAJ                                                                                                                                                                         000001CLIPRO01  2014040900000001                                                                                                                                                                                                                                                                                                                                 
F00626997            0000007022014040907122900SABSAB139    SABFIRME  10000000000010102RCRC                                                                                                CLIMAJ                                                                                                                                                          0626997        01006EINC0102                SENECHAL-AGUILLAUME             DANIELLE                                                                                                                                                                                  SENECHAL-AGUILLAUME             DANIELLE                        0                                         
F00626997            0000007032014040907122900SABSAB139    SABFIRME  10000000000010102RCRC                                                                                                CLIMAJ                                                                                                                                                          0626997        02          0000000000000000                                                                         0000000000000                                   00000       00000000                                           000000000000000   000000000000000000000000     00000000                                                      3 00                            
F00626997            0000007042014040907122900SABSAB139    SABFIRME  10000000000010102RCRC                                                                                                CLIMAJ                                                                                                                                                          0626997        03   PRS    8622C           1                        00000000   00000000000                                        0000000000000000000000000000000000000000000000000000000          00000000      PRO         00000000                                                                                                                                           
F00626997            0000007052014040907122900SABSAB139    SABFIRME  10000000000010102RCRC                                                                                                CLIMAJ                                                                                                                                                          0626997        04  0000000000000000                                                                            10 AV DE LA LIBERATION                                                                                                                                  56700       HENNEBONT                          FRANCE                   0000000000                       
F00626997            0000007062014040907122900SABSAB139    SABFIRME  10000000000010102RCRC                                                                                                CLIMAJ                                                                                                                                                          0626997        06FIF000160713                                                                                                                                                                                                                                                                                                                                                   
F00626997            0000007072014040907122900SABSAB139    SABFIRME  10000000000010102RCRC                                                                                                CLIMAJ                                                                                                                                                          0626997        10BUREAU02 97 36 56 74                                    1                                                                                                                                                                                                                                                                                                      
F00626997            0000007082014040907122900SABSAB139    SABFIRME  10000000000010102RCRC                                                                                                CLIMAJ                                                                                                                                                          0626997        10FAX   02 97 85 08 95                                    1                                                                                                                                                                                                                                                                                                      
F00626997            0000007092014040907122900SABSAB139    SABFIRME  10000000000010102RCRC                                                                                                CLIMAJ                                                                                                                                                          0626997        2019910101FIDCON                                                                                                                                                                                                                                                                                                                                                 
F00626997            0000007102014040907122900SABSAB139    SABFIRME  10000000000010102RCRC                                                                                                CLIMAJ                                                                                                                                                                         99000001                                                                                                                                                                                                                                                                                                                                                         
F00627071            0000008012014040907122900SABSAB139    SABFIRME  10000000000010102RCRC                                                                                                CLIMAJ                                                                                                                                                                         000001CLIPRO01  2014040900000001                                                                                                                                                                                                                                                                                                                                 
F00627071            0000008022014040907122900SABSAB139    SABFIRME  10000000000010102RCRC                                                                                                CLIMAJ                                                                                                                                                          0627071        01007EINC0102                VAUTRIN                         DOMINIQUE                                                                                                                                                                                 VAUTRIN                         DOMINIQUE                       0                                         
F00627071            0000008032014040907122900SABSAB139    SABFIRME  10000000000010102RCRC                                                                                                CLIMAJ                                                                                                                                                          0627071        02          0000000000000000                                                                         0000000000000                                   00000       00000000                                           000000000000000   000000000000000000000000     00000000                                                      3 00                            
F00627071            0000008042014040907122900SABSAB139    SABFIRME  10000000000010102RCRC                                                                                                CLIMAJ                                                                                                                                                          0627071        03   PRS    8690D           1                        00000000   00000000000                                        0000000000000000000000000000000000000000000000000000000          00000000      PRO         00000000                                                                                                                                           
F00627071            0000008052014040907122900SABSAB139    SABFIRME  10000000000010102RCRC                                                                                                CLIMAJ                                                                                                                                                          0627071        04  0000000000000000                                                                            7 AV DE LA LOGE BLANCHE                                                                                                                                 88000       EPINAL                             FRANCE                   0000000000                       
F00627071            0000008062014040907122900SABSAB139    SABFIRME  10000000000010102RCRC                                                                                                CLIMAJ                                                                                                                                                          0627071        06FIF000160720                                                                                                                                                                                                                                                                                                                                                   
F00627071            0000008072014040907122900SABSAB139    SABFIRME  10000000000010102RCRC                                                                                                CLIMAJ                                                                                                                                                          0627071        10BUREAU03 29 35 20 79                                    1                                                                                                                                                                                                                                                                                                      
F00627071            0000008082014040907122900SABSAB139    SABFIRME  10000000000010102RCRC                                                                                                CLIMAJ                                                                                                                                                          0627071        10EMAILBvautrin.dominique88@orange.fr                     1                                                                                                                                                                                                                                                                                                      
F00627071            0000008092014040907122900SABSAB139    SABFIRME  10000000000010102RCRC                                                                                                CLIMAJ                                                                                                                                                          0627071        2019920101FIDCON                                                                                                                                                                                                                                                                                                                                                 
F00627071            0000008102014040907122900SABSAB139    SABFIRME  10000000000010102RCRC                                                                                                CLIMAJ                                                                                                                                                                         99000001                                                                                                                                                                                                                                                                                                                                                         
F00627118            0000009012014040907122900SABSAB139    SABFIRME  10000000000010102RCRC                                                                                                CLIMAJ                                                                                                                                                                         000001CLIPRO01  2014040900000001                                                                                                                                                                                                                                                                                                                                 
F00627118            0000009022014040907122900SABSAB139    SABFIRME  10000000000010102RCRC                                                                                                CLIMAJ                                                                                                                                                          0627118        01005EINC0102                LABORIEUX                       PIERRE YVES                                                                                                                                                                               LABORIEUX                       PIERRE YVES                     0                                         
F00627118            0000009032014040907122900SABSAB139    SABFIRME  10000000000010102RCRC                                                                                                CLIMAJ                                                                                                                                                          0627118        02          0000000000000000                                                                         0000000000000                                   00000       00000000                                           000000000000000   000000000000000000000000     00000000                                                      3 00                            
F00627118            0000009042014040907122900SABSAB139    SABFIRME  10000000000010102RCRC                                                                                                CLIMAJ                                                                                                                                                          0627118        03   PRS    8621Z           1                        00000000   00000000000                                        0000000000000000000000000000000000000000000000000000000          00000000      PRO         00000000                                                                                                                                           
F00627118            0000009052014040907122900SABSAB139    SABFIRME  10000000000010102RCRC                                                                                                CLIMAJ                                                                                                                                                          0627118        04  0000000000000000                                                                            RUE DE JOUVANCY                       Maison Medicale                                                                                                   01290       PONT DE VEYLE                      FRANCE                   0000000000                       
F00627118            0000009062014040907122900SABSAB139    SABFIRME  10000000000010102RCRC                                                                                                CLIMAJ                                                                                                                                                          0627118        06FIF000160722                                                                                                                                                                                                                                                                                                                                                   
F00627118            0000009072014040907122900SABSAB139    SABFIRME  10000000000010102RCRC                                                                                                CLIMAJ                                                                                                                                                          0627118        10BUREAU03 85 31 53 38                                    1                                                                                                                                                                                                                                                                                                      
F00627118            0000009082014040907122900SABSAB139    SABFIRME  10000000000010102RCRC                                                                                                CLIMAJ                                                                                                                                                          0627118        2019920101FIDCON                                                                                                                                                                                                                                                                                                                                                 
F00627118            0000009092014040907122900SABSAB139    SABFIRME  10000000000010102RCRC                                                                                                CLIMAJ                                                                                                                                                                         99000001                                                                                                                                                                                                                                                                                                                                                         
F00627303            0000010012014040907122900SABSAB139    SABFIRME  10000000000010102RCRC                                                                                                CLIMAJ                                                                                                                                                                         000001CLIPRO01  2014040900000001                                                                                                                                                                                                                                                                                                                                 
F00627303            0000010022014040907122900SABSAB139    SABFIRME  10000000000010102RCRC                                                                                                CLIMAJ                                                                                                                                                          0627303        01006EINC0102                PLATIAU GUYOT                   LYDIE                                                                                                                                                                                     PLATIAU GUYOT                   LYDIE                           0                                         
F00627303            0000010032014040907122900SABSAB139    SABFIRME  10000000000010102RCRC                                                                                                CLIMAJ                                                                                                                                                          0627303        02          0000000000000000                                                                         0000000000000                                   00000       00000000                                           000000000000000   000000000000000000000000     00000000                                                      3 00                            
F00627303            0000010042014040907122900SABSAB139    SABFIRME  10000000000010102RCRC                                                                                                CLIMAJ                                                                                                                                                          0627303        03   PRS    8623Z           1                        00000000   00000000000                                        0000000000000000000000000000000000000000000000000000000          00000000      PRO         00000000                                                                                                                                           
F00627303            0000010052014040907122900SABSAB139    SABFIRME  10000000000010102RCRC                                                                                                CLIMAJ                                                                                                                                                          0627303        04  0000000000000000                                                                            3 RUE VIEILLE DU CHATEAU                                                                                                                                49570       MONTJEAN SUR LOIRE                 FRANCE                   0000000000                       
F00627303            0000010062014040907122900SABSAB139    SABFIRME  10000000000010102RCRC                                                                                                CLIMAJ                                                                                                                                                          0627303        06FIF000160732                                                                                                                                                                                                                                                                                                                                                   
F00627303            0000010072014040907122900SABSAB139    SABFIRME  10000000000010102RCRC                                                                                                CLIMAJ                                                                                                                                                          0627303        10BUREAU02 41 39 05 01                                    1                                                                                                                                                                                                                                                                                                      
F00627303            0000010082014040907122900SABSAB139    SABFIRME  10000000000010102RCRC                                                                                                CLIMAJ                                                                                                                                                          0627303        10EMAILBlydie.guyot@sfr.fr                                1                                                                                                                                                                                                                                                                                                      
F00627303            0000010092014040907122900SABSAB139    SABFIRME  10000000000010102RCRC                                                                                                CLIMAJ                                                                                                                                                          0627303        2019910101FIDCON                                                                                                                                                                                                                                                                                                                                                 
F00627303            0000010102014040907122900SABSAB139    SABFIRME  10000000000010102RCRC                                                                                                CLIMAJ                                                                                                                                                                         99000001                                                                                                                                                                                                                                                                                                                                                         
F00024115            0000011012014040907122900SABSAB139    SABFIRME  10000000000010102RCRC                                                                                                CLIMAJ                                                                                                                                                                         000001CLIPRO01  2014040900000001                                                                                                                                                                                                                                                                                                                                 
F00024115            0000011022014040907122900SABSAB139    SABFIRME  10000000000010102RCRC                                                                                                CLIMAJ                                                                                                                                                          0024115        01005EINC0102                GUERREIRO                       DOMINIQUE                                                                                                                                                                                 GUERREIRO                       DOMINIQUE                       0                                         
F00024115            0000011032014040907122900SABSAB139    SABFIRME  10000000000010102RCRC                                                                                                CLIMAJ                                                                                                                                                          0024115        02          0000000000000000                                                                         0000000000000                                   00000       00000000                                           000000000000000   000000000000000000000000     00000000                                                      3 00                            
F00024115            0000011042014040907122900SABSAB139    SABFIRME  10000000000010102RCRC                                                                                                CLIMAJ                                                                                                                                                          0024115        03   PRS    9602A           1                        00000000   00000000000                                        0000000000000000000000000000000000000000000000000000000          00000000      PRO         00000000                                                                                                                                           
F00024115            0000011052014040907122900SABSAB139    SABFIRME  10000000000010102RCRC                                                                                                CLIMAJ                                                                                                                                                          0024115        04  0000000000000000                                                                            43 RUE JEAN JAURES                                                                                                                                      42300       ROANNE                             FRANCE                   0000000000                       
F00024115            0000011062014040907122900SABSAB139    SABFIRME  10000000000010102RCRC                                                                                                CLIMAJ                                                                                                                                                          0024115        06FIF000163674                                                                                                                                                                                                                                                                                                                                                   
F00024115            0000011072014040907122900SABSAB139    SABFIRME  10000000000010102RCRC                                                                                                CLIMAJ                                                                                                                                                          0024115        10BUREAU04 77 71 28 64                                    1                                                                                                                                                                                                                                                                                                      
F00024115            0000011082014040907122900SABSAB139    SABFIRME  10000000000010102RCRC                                                                                                CLIMAJ                                                                                                                                                          0024115        2019911201FIDCON                                                                                                                                                                                                                                                                                                                                                 
F00024115            0000011092014040907122900SABSAB139    SABFIRME  10000000000010102RCRC                                                                                                CLIMAJ                                                                                                                                                                         99000001                                                                                                                                                                                                                                                                                                                                                         
F00934389            0000012012014040907122900SABSAB139    SABFIRME  10000000000010102RCRC                                                                                                CLIMAJ                                                                                                                                                                         000001CLIPRO01  2014040900000001                                                                                                                                                                                                                                                                                                                                 
F00934389            0000012022014040907122900SABSAB139    SABFIRME  10000000000010102RCRC                                                                                                CLIMAJ                                                                                                                                                          0934389        01006EINC0102                COSTA                           NATHALIE                                                                                                                                                                                  COSTA                           NATHALIE                        0                                         
F00934389            0000012032014040907122900SABSAB139    SABFIRME  10000000000010102RCRC                                                                                                CLIMAJ                                                                                                                                                          0934389        02          0000000000000000                                                                         0000000000000                                   00000       00000000                                           000000000000000   000000000000000000000000     00000000                                                      3 00                            
F00934389            0000012042014040907122900SABSAB139    SABFIRME  10000000000010102RCRC                                                                                                CLIMAJ                                                                                                                                                          0934389        03   PRS    8621Z           1                        00000000   00000000000                                        0000000000000000000000000000000000000000000000000000000          00000000      PRO         00000000                                                                                                                                           
F00934389            0000012052014040907122900SABSAB139    SABFIRME  10000000000010102RCRC                                                                                                CLIMAJ                                                                                                                                                          0934389        04  0000000000000000                                                                            17 RUE MARECHAL FOCH                                                                                                                                    88420       MOYENMOUTIER                       FRANCE                   0000000000                       
F00934389            0000012062014040907122900SABSAB139    SABFIRME  10000000000010102RCRC                                                                                                CLIMAJ                                                                                                                                                          0934389        06FIF000167216                                                                                                                                                                                                                                                                                                                                                   
F00934389            0000012072014040907122900SABSAB139    SABFIRME  10000000000010102RCRC                                                                                                CLIMAJ                                                                                                                                                          0934389        10BUREAU06 48 13 80 92                                    1                                                                                                                                                                                                                                                                                                      
F00934389            0000012082014040907122900SABSAB139    SABFIRME  10000000000010102RCRC                                                                                                CLIMAJ                                                                                                                                                          0934389        10EMAILBnathalie.dos-santos0192@orange.fr                 1                                                                                                                                                                                                                                                                                                      
F00934389            0000012092014040907122900SABSAB139    SABFIRME  10000000000010102RCRC                                                                                                CLIMAJ                                                                                                                                                          0934389        2020080301FIDCON                                                                                                                                                                                                                                                                                                                                                 
F00934389            0000012102014040907122900SABSAB139    SABFIRME  10000000000010102RCRC                                                                                                CLIMAJ                                                                                                                                                                         99000001                                                                                                                                                                                                                                                                                                                                                         
F00934664            0000013012014040907122900SABSAB139    SABFIRME  10000000000010102RCRC                                                                                                CLIMAJ                                                                                                                                                                         000001CLIPRO01  2014040900000001                                                                                                                                                                                                                                                                                                                                 
F00934664            0000013022014040907122900SABSAB139    SABFIRME  10000000000010102RCRC                                                                                                CLIMAJ                                                                                                                                                          0934664        01005EINC0102                THIRION                         PATRICE                                                                                                                                                                                   THIRION                         PATRICE                         0                                         
F00934664            0000013032014040907122900SABSAB139    SABFIRME  10000000000010102RCRC                                                                                                CLIMAJ                                                                                                                                                          0934664        02          0000000000000000                                                                         0000000000000                                   00000       00000000                                           000000000000000   000000000000000000000000     00000000                                                      3 00                            
F00934664            0000013042014040907122900SABSAB139    SABFIRME  10000000000010102RCRC                                                                                                CLIMAJ                                                                                                                                                          0934664        03   PRS    8559A           1                        00000000   00000000000                                        0000000000000000000000000000000000000000000000000000000          00000000      PRO         00000000                                                                                                                                           
F00934664            0000013052014040907122900SABSAB139    SABFIRME  10000000000010102RCRC                                                                                                CLIMAJ                                                                                                                                                          0934664        04  0000000000000000                                                                            LOT LES ABRICOTIERS 2                 ROUTE DU LOIR                                                                                                     13250       SAINT CHAMAS                       FRANCE                   0000000000                       
F00934664            0000013062014040907122900SABSAB139    SABFIRME  10000000000010102RCRC                                                                                                CLIMAJ                                                                                                                                                          0934664        06FIF000167224                                                                                                                                                                                                                                                                                                                                                   
F00934664            0000013072014040907122900SABSAB139    SABFIRME  10000000000010102RCRC                                                                                                CLIMAJ                                                                                                                                                          0934664        10BUREAU06 02 13 79 64                                    1                                                                                                                                                                                                                                                                                                      
F00934664            0000013082014040907122900SABSAB139    SABFIRME  10000000000010102RCRC                                                                                                CLIMAJ                                                                                                                                                          0934664        10EMAILBsteph.thirion@gmail.com                           1                                                                                                                                                                                                                                                                                                      
F00934664            0000013092014040907122900SABSAB139    SABFIRME  10000000000010102RCRC                                                                                                CLIMAJ                                                                                                                                                          0934664        2020090101FIDCON                                                                                                                                                                                                                                                                                                                                                 
F00934664            0000013102014040907122900SABSAB139    SABFIRME  10000000000010102RCRC                                                                                                CLIMAJ                                                                                                                                                                         99000001                                                                                                                                                                                                                                                                                                                                                         
F00940403            0000014012014040907122900SABSAB139    SABFIRME  10000000000010102RCRC                                                                                                CLIMAJ                                                                                                                                                                         000001CLIPRO01  2014040900000001                                                                                                                                                                                                                                                                                                                                 
F00940403            0000014022014040907122900SABSAB139    SABFIRME  10000000000010102RCRC                                                                                                CLIMAJ                                                                                                                                                          0940403        01006EINC0102                LAUTSCH-BILLOT                  STEPHANIE                                                                                                                                                                                 LAUTSCH-BILLOT                  STEPHANIE                       0                                         
F00940403            0000014032014040907122900SABSAB139    SABFIRME  10000000000010102RCRC                                                                                                CLIMAJ                                                                                                                                                          0940403        02          0000000000000000                                                                         0000000000000                                   00000       00000000                                           000000000000000   000000000000000000000000     00000000                                                      3 00                            
F00940403            0000014042014040907122900SABSAB139    SABFIRME  10000000000010102RCRC                                                                                                CLIMAJ                                                                                                                                                          0940403        03   PRS    9003B           1                        00000000   00000000000                                        0000000000000000000000000000000000000000000000000000000          00000000      PRO         00000000                                                                                                                                           
F00940403            0000014052014040907122900SABSAB139    SABFIRME  10000000000010102RCRC                                                                                                CLIMAJ                                                                                                                                                          0940403        04  0000000000000000                                                                            19 RUE JEROME DULAAR                                                                                                                                    69004       LYON                               FRANCE                   0000000000                       
F00940403            0000014062014040907122900SABSAB139    SABFIRME  10000000000010102RCRC                                                                                                CLIMAJ                                                                                                                                                          0940403        06FIF000167248                                                                                                                                                                                                                                                                                                                                                   
F00940403            0000014072014040907122900SABSAB139    SABFIRME  10000000000010102RCRC                                                                                                CLIMAJ                                                                                                                                                          0940403        10BUREAU06 77 06 79 96                                    1                                                                                                                                                                                                                                                                                                      
F00940403            0000014082014040907122900SABSAB139    SABFIRME  10000000000010102RCRC                                                                                                CLIMAJ                                                                                                                                                          0940403        10EMAILBstephaniebillot@orange.fr                         1                                                                                                                                                                                                                                                                                                      
F00940403            0000014092014040907122900SABSAB139    SABFIRME  10000000000010102RCRC                                                                                                CLIMAJ                                                                                                                                                          0940403        2020090101FIDCON                                                                                                                                                                                                                                                                                                                                                 
F00940403            0000014102014040907122900SABSAB139    SABFIRME  10000000000010102RCRC                                                                                                CLIMAJ                                                                                                                                                                         99000001                                                                                                                                                                                                                                                                                                                                                         
F01006003            0000015012014040907122900SABSAB139    SABFIRME  10000000000010102RCRC                                                                                                CLIMAJ                                                                                                                                                                         000001CLIPRO01  2014040900000001                                                                                                                                                                                                                                                                                                                                 
F01006003            0000015022014040907122900SABSAB139    SABFIRME  10000000000010102RCRC                                                                                                CLIMAJ                                                                                                                                                          1006003        01006EINC0102                DONYO                           AGNES                                                                                                                                                                                     DONYO                           AGNES                           0                                         
F01006003            0000015032014040907122900SABSAB139    SABFIRME  10000000000010102RCRC                                                                                                CLIMAJ                                                                                                                                                          1006003        02          0000000000000000                                                                         0000000000000                                   00000       00000000                                           000000000000000   000000000000000000000000     00000000                                                      3 00                            
F01006003            0000015042014040907122900SABSAB139    SABFIRME  10000000000010102RCRC                                                                                                CLIMAJ                                                                                                                                                          1006003        03   PRS    0000A           1                        00000000   00000000000                                        0000000000000000000000000000000000000000000000000000000          00000000      PRO         00000000                                                                                                                                           
