F00728803            0000001012014040907123300SABSAB139    SABFIRME  10000000000010102RCRC                                                                                                ADRMAJ                                                                                                                                                          1FI0728803             CO0000000000000000DUVAL  JACQUES                                                                                                    3 ALEZ AN EOSTIGED                                                                                                29000       QUIMPER                            FRANCE                     
F00728989            0000001012014040907123300SABSAB139    SABFIRME  10000000000010102RCRC                                                                                                ADRMAJ                                                                                                                                                          1FI0728989             CO0000000000000000SZYMONIAK  OLIVIER                                                          POLYCLINIQUE DU PARC                  AV DES SABLES                         LA CHAUVELIERE                                                              49300       CHOLET                             FRANCE                     
F00729530            0000001012014040907123300SABSAB139    SABFIRME  10000000000010102RCRC                                                                                                ADRMAJ                                                                                                                                                          1FI0729530             CO0000000000000000STRUILLOU  PHILIPPE                                                                                               02 RUE MARECHAL JOFFRE                RESIDENCE DU PUITS FERRE                                                    56700       HENNEBONT                          FRANCE                     
F00730162            0000001012014040907123300SABSAB139    SABFIRME  10000000000010102RCRC                                                                                                ADRMAJ                                                                                                                                                          1FI0730162             CO0000000000000000STOUVENOT  GERARD                                                                                                 5 RUE FELIX  LE DANTEC                IMMEUBLE  LE CAP  VERT                                                      29000       QUIMPER                            FRANCE                     
F00730304            0000001012014040907123300SABSAB139    SABFIRME  10000000000010102RCRC                                                                                                ADRMAJ                                                                                                                                                          1FI0730304             CO0000000000000000VAILLANT  FRANCOIS                                                                                                140 AV DE LATTRE DE TASSIGNY          POLE DE CONSULTATION TASSIGNY                                               49000       ANGERS                             FRANCE                     
F00731416            0000001012014040907123300SABSAB139    SABFIRME  10000000000010102RCRC                                                                                                ADRMAJ                                                                                                                                                          1FI0731416             CO0000000000000000LABM FATIH - LABM NEY ST SERGE                                                                                    8 RUE DE LA CHALOUERE                                                                                             49100       ANGERS                             FRANCE                     
F00732203            0000001012014040907123300SABSAB139    SABFIRME  10000000000010102RCRC                                                                                                ADRMAJ                                                                                                                                                          1FI0732203             CO0000000000000000STIEVENARD  CHARLES                                                                                               10 RUE DE  LA  PRISE  D EAU                                                                                       85500       LES HERBIERS                       FRANCE                     
F00733084            0000001012014040907123300SABSAB139    SABFIRME  10000000000010102RCRC                                                                                                ADRMAJ                                                                                                                                                          1FI0733084             CO0000000000000000PONS-DAVID  LYSIANNE                                                                                              4 RUE DENFER ROCHEREAU                                                                                            11100       NARBONNE                           FRANCE                     
F00626997            0000001012014040907123300SABSAB139    SABFIRME  10000000000010102RCRC                                                                                                ADRMAJ                                                                                                                                                          1FI0626997             CO0000000000000000SENECHAL-AGUILLAUME  DANIELLE                                                                                     10 AV DE LA LIBERATION                                                                                            56700       HENNEBONT                          FRANCE                     
F00627071            0000001012014040907123300SABSAB139    SABFIRME  10000000000010102RCRC                                                                                                ADRMAJ                                                                                                                                                          1FI0627071             CO0000000000000000VAUTRIN  DOMINIQUE                                                                                                7 AV DE LA LOGE BLANCHE                                                                                           88000       EPINAL                             FRANCE                     
F00627118            0000001012014040907123300SABSAB139    SABFIRME  10000000000010102RCRC                                                                                                ADRMAJ                                                                                                                                                          1FI0627118             CO0000000000000000LABORIEUX  PIERRE YVES                                                                                            RUE DE JOUVANCY                       Maison Medicale                                                             01290       PONT DE VEYLE                      FRANCE                     
F00627303            0000001012014040907123300SABSAB139    SABFIRME  10000000000010102RCRC                                                                                                ADRMAJ                                                                                                                                                          1FI0627303             CO0000000000000000PLATIAU GUYOT  LYDIE                                                                                              3 RUE VIEILLE DU CHATEAU                                                                                          49570       MONTJEAN SUR LOIRE                 FRANCE                     
F00662959            0000001012014040907123300SABSAB139    SABFIRME  10000000000010102RCRC                                                                                                ADRMAJ                                                                                                                                                          1FI0662959             CO0000000000000000BARBIER  PIERRE-YVES                                                                                              11 RUE DE COINCHIMONT                                                                                             88520       BAN DE LAVELINE                    FRANCE                     
F00906634            0000001012014040907123300SABSAB139    SABFIRME  10000000000010102RCRC                                                                                                ADRMAJ                                                                                                                                                          1FI0906634             CO0000000000000000GAILLOT  HELENE                                                                                                   2B RUE DES TILLEULS                                                                                               88160       LE THILLOT                         FRANCE                     
F00907453            0000001012014040907123300SABSAB139    SABFIRME  10000000000010102RCRC                                                                                                ADRMAJ                                                                                                                                                          1FI0907453             CO0000000000000000AGOGUE  MARYLINE                                                                                                  1 RUE MARECHAL JOFFRE                                                                                             54790       MANCIEULLES                        FRANCE                     
F00907455            0000001012014040907123300SABSAB139    SABFIRME  10000000000010102RCRC                                                                                                ADRMAJ                                                                                                                                                          1FI0907455             CO0000000000000000PAWLYK  BOZENA                                                                                                    21 RUE DE VERDUN                                                                                                  54800       CONFLANS EN JARNISY                FRANCE                     
F00024115            0000001012014040907123300SABSAB139    SABFIRME  10000000000010102RCRC                                                                                                ADRMAJ                                                                                                                                                          1FI0024115             CO0000000000000000GUERREIRO  DOMINIQUE                                                                                              43 RUE JEAN JAURES                                                                                                42300       ROANNE                             FRANCE                     
F00922566            0000001012014040907123300SABSAB139    SABFIRME  10000000000010102RCRC                                                                                                ADRMAJ                                                                                                                                                          1FI0922566             CO0000000000000000MARSAL  MARIANNE                                                                                                  54 ALL CHANTECLER                                                                                                 59650       VILLENEUVE D ASCQ                  FRANCE                     
F00923405            0000001012014040907123300SABSAB139    SABFIRME  10000000000010102RCRC                                                                                                ADRMAJ                                                                                                                                                          1FI0923405             CO0000000000000000MUSCAT  CEDRIC                                                                                                    168 CRS DE LA REPUBLIQUE              SKY CONDUITE                                                                84120       PERTUIS                            FRANCE                     
F00934389            0000001012014040907123300SABSAB139    SABFIRME  10000000000010102RCRC                                                                                                ADRMAJ                                                                                                                                                          1FI0934389             CO0000000000000000COSTA  NATHALIE                                                                                                   17 RUE MARECHAL FOCH                                                                                              88420       MOYENMOUTIER                       FRANCE                     
F00934664            0000001012014040907123300SABSAB139    SABFIRME  10000000000010102RCRC                                                                                                ADRMAJ                                                                                                                                                          1FI0934664             CO0000000000000000THIRION  PATRICE                                                                                                  LOT LES ABRICOTIERS 2                 ROUTE DU LOIR                                                               13250       SAINT CHAMAS                       FRANCE                     
F00940403            0000001012014040907123300SABSAB139    SABFIRME  10000000000010102RCRC                                                                                                ADRMAJ                                                                                                                                                          1FI0940403             CO0000000000000000LAUTSCH-BILLOT  STEPHANIE                                                                                         19 RUE JEROME DULAAR                                                                                              69004       LYON                               FRANCE                     
F01006003            0000001012014040907123300SABSAB139    SABFIRME  10000000000010102RCRC                                                                                                ADRMAJ                                                                                                                                                          1FI1006003             CO0000000000000000DONYO  AGNES                                                                                                      24 AV DES BOULANGERES                                                                                             91210       DRAVEIL                            FRANCE                     
F00822426            0000001012014040907123300SABSAB139    SABFIRME  10000000000010102RCRC                                                                                                ADRMAJ                                                                                                                                                          1FI0822426             CO0000000000000000BRIOT-GALOUSTOFF  HELENE                                                                                          4 AV DE REMILLY                       VILLA DIANA                                                                 58360       SAINT HONORE LES BAINS             FRANCE                     
F00824382            0000001012014040907123300SABSAB139    SABFIRME  10000000000010102RCRC                                                                                                ADRMAJ                                                                                                                                                          1FI0824382             CO0000000000000000AUTO-ECOLE CATHERINE                                                                                              5 RUE CLEMENCEAU                                                                                                  88700       RAMBERVILLIERS                     FRANCE                     
F00196238            0000001012014040907123300SABSAB139    SABFIRME  10000000000010102RCRC                                                                                                ADRMAJ                                                                                                                                                          1FI0196238             CO0000000000000000FOSSATI  JEAN-PIERRE                                                                                              2 RUE MERCIERE                                                                                                    04400       BARCELONNETTE                      FRANCE                     
F00154158            0000001012014040907123300SABSAB139    SABFIRME  10000000000010102RCRC                                                                                                ADRMAJ                                                                                                                                                          1FI0154158             CO0000000000000000CORRIVAUD  THIERRY                                                                                                6 RUE PASTEUR                                                                                                     37140       BOURGUEIL                          FRANCE                     
F00140267            0000001012014040907123300SABSAB139    SABFIRME  10000000000010102RCRC                                                                                                ADRMAJ                                                                                                                                                          1FI0140267             CO0000000000000000GRANDSIRE  JEAN-MICHEL                                                                                            LE MOULIN                                                                                                         69640       RIVOLET                            FRANCE                     
F00991996            0000001012014040907123300SABSAB139    SABFIRME  10000000000010102RCRC                                                                                                ADRMAJ                                                                                                                                                          1FI0991996             CO0000000000000000HOURIEZ  ANNE FLORENCE                                                                                            4 RUE DE VILLERS EN CAUCHIES                                                                                      59141       IWUY                               FRANCE                     
F00992269            0000001012014040907123300SABSAB139    SABFIRME  10000000000010102RCRC                                                                                                ADRMAJ                                                                                                                                                          1FI0992269             CO0000000000000000WILLEM  RÉGIS                                                               Rue André Coisne                                                                                                                                        59700       MARCQ EN BAROEUL                   FRANCE                     
F00293063            0000001012014040907123300SABSAB139    SABFIRME  10000000000010102RCRC                                                                                                ADRMAJ                                                                                                                                                          1FI0293063             CO0000000000000000DURAND  BERTRAND                                                                                                  70 RUE DES BAINS                      Tabac Du Lac                                                                38850       CHARAVINES                         FRANCE                     
F00259163            0000001012014040907123300SABSAB139    SABFIRME  10000000000010102RCRC                                                                                                ADRMAJ                                                                                                                                                          1FI0259163             CO0000000000000000LESBATS  PIERRE                                                                                                   470 AV MARENSIN                                                                                                   40170       LIT ET MIXE                        FRANCE                     
F00259432            0000001012014040907123300SABSAB139    SABFIRME  10000000000010102RCRC                                                                                                ADRMAJ                                                                                                                                                          1FI0259432             CO0000000000000000BELLOCQ  SERGE                                                                                                    302 RTE DU MOURA                                                                                                  40180       SAUBUSSE                           FRANCE                     
F00089235            0000001012014040907123300SABSAB139    SABFIRME  10000000000010102RCRC                                                                                                ADRMAJ                                                                                                                                                          1FI0089235             CO0000000000000000DUMIELLE  CLAUDE                                                                                                  35 RUE LOUIS RICHARD                                                                                              89000       AUXERRE                            FRANCE                     
F00092485            0000001012014040907123300SABSAB139    SABFIRME  10000000000010102RCRC                                                                                                ADRMAJ                                                                                                                                                          1FI0092485             CO0000000000000000ANDRIEUX  PASCAL                                                                                                  1 RUE ENJAMBES                                                                                                    86600       LUSIGNAN                           FRANCE                     
F00830719            0000001012014040907123300SABSAB139    SABFIRME  10000000000010102RCRC                                                                                                ADRMAJ                                                                                                                                                          1FI0830719             CO0000000000000000ANDRIEUX  ALEXIS                                                                                                  12 RUE LOUIS HENNEQUIN                                                                                            49800       ANDARD                             FRANCE                     
F00852443            0000001012014040907123300SABSAB139    SABFIRME  10000000000010102RCRC                                                                                                ADRMAJ                                                                                                                                                          1FI0852443             CO0000000000000000ROZENCWAIG  FRANCK                                                                                                8 LOT LES VAUREILLES                                                                                              84160       CUCURON                            FRANCE                     
F00873630            0000001012014040907123300SABSAB139    SABFIRME  10000000000010102RCRC                                                                                                ADRMAJ                                                                                                                                                          1FI0873630             CO0000000000000000LANGRAIS  ROBERT                                                                                                  50 RUE ROYALE                                                                                                     26740       LA COUCOURDE                       FRANCE                     
F00867020            0000001012014040907123300SABSAB139    SABFIRME  10000000000010102RCRC                                                                                                ADRMAJ                                                                                                                                                          1FI0867020             CO0000000000000000LEGER DOUX  VERONIQUE                                                                                             RUE LOUIS JOUD                                                                                                    26750       GENISSIEUX                         FRANCE                     
F00883384            0000001012014040907123300SABSAB139    SABFIRME  10000000000010102RCRC                                                                                                ADRMAJ                                                                                                                                                          1FI0883384             CO0000000000000000MOLINA  VALERIE                                                                                                   9 RUE ALFRED DE VIGNY                                                                                             41350       VINEUIL                            FRANCE                     
F00883923            0000001012014040907123300SABSAB139    SABFIRME  10000000000010102RCRC                                                                                                ADRMAJ                                                                                                                                                          1FI0883923             CO0000000000000000QUIQUEREZ  JEAN-CLAUDE                                                                                            27 AV GEORGES POMPIDOU                CABINET MEDICAL PSYCHIATRIE                                                 39100       DOLE                               FRANCE                     
F00007851            0000001012014040907123300SABSAB139    SABFIRME  10000000000010102RCRC                                                                                                ADRMAJ                                                                                                                                                          1FI0007851             CO0000000000000000DUPRAT  ALAIN                                                                                                     90 CHE DU BIALE                                                                                                   64300       BERENX                             FRANCE                     
F00201220            0000001012014040907123300SABSAB139    SABFIRME  10000000000010102RCRC                                                                                                ADRMAJ                                                                                                                                                          1FI0201220             CO0000000000000000PHAM  BRIGITTE                                                                                                    54 BD DE L ALMONT                                                                                                 77000       MELUN                              FRANCE                     
F00201452            0000001012014040907123300SABSAB139    SABFIRME  10000000000010102RCRC                                                                                                ADRMAJ                                                                                                                                                          1FI0201452             CO0000000000000000LEPLAT  REGIS                                                                                                     46 GRAND PLACE                                                                                                    59670       CASSEL                             FRANCE                     
F00201461            0000001012014040907123300SABSAB139    SABFIRME  10000000000010102RCRC                                                                                                ADRMAJ                                                                                                                                                          1FI0201461             CO0000000000000000RENARD  OLIVIER                                                                                                   2 RUE DU VIEUX PIN                                                                                                61310       LE BOURG ST LEONARD                FRANCE                     
F00201469            0000001012014040907123300SABSAB139    SABFIRME  10000000000010102RCRC                                                                                                ADRMAJ                                                                                                                                                          1FI0201469             CO0000000000000000RENARD  MARTINE                                                                                                   2 RTE DU VIEUX PIN                                                                                                61310       LE BOURG ST LEONARD                FRANCE                     
F00201481            0000001012014040907123300SABSAB139    SABFIRME  10000000000010102RCRC                                                                                                ADRMAJ                                                                                                                                                          1FI0201481             CO0000000000000000ORESVE/JOACHIM  CATHERINE                                                                                         17 AV DE STALINGRAD                                                                                               93170       BAGNOLET                           FRANCE                     
F00783964            0000001012014040907123300SABSAB139    SABFIRME  10000000000010102RCRC                                                                                                ADRMAJ                                                                                                                                                          1FI0783964             CO0000000000000000MERVILLE  CHRISTIAN                                                                                               10B CHE DU PUY                        DOMAINE DE LA MARQUISE                                                      06270       VILLENEUVE LOUBET                  FRANCE                     
F00784655            0000001012014040907123300SABSAB139    SABFIRME  10000000000010102RCRC                                                                                                ADRMAJ                                                                                                                                                          1FI0784655             CO0000000000000000DEBONNET  MARC                                                                                                    28 AV DES DEPORTES                                                                                                60600       CLERMONT DE L   OISE               FRANCE                     
F00786136            0000001012014040907123300SABSAB139    SABFIRME  10000000000010102RCRC                                                                                                ADRMAJ                                                                                                                                                          1FI0786136             CO0000000000000000ABGRALL  ANNE-MARIE                                                                                               32 AV MARECHAL FOCH                                                                                               29400       LANDIVISIAU                        FRANCE                     
F00786399            0000001012014040907123300SABSAB139    SABFIRME  10000000000010102RCRC                                                                                                ADRMAJ                                                                                                                                                          1FI0786399             CO0000000000000000DUVAL  THIERRY                                                                                                    130 PRO DU BOURG                                                                                                  77176       NANDY                              FRANCE                     
F00982841            0000001012014040907123300SABSAB139    SABFIRME  10000000000010102RCRC                                                                                                ADRMAJ                                                                                                                                                          1FI0982841             CO0000000000000000BOURGEOIS-PORTET  FLORENCE                                                                                        13 RUE DU VIEUX PILORI                                                                                            78200       MANTES LA JOLIE                    FRANCE                     
F00984244            0000001012014040907123300SABSAB139    SABFIRME  10000000000010102RCRC                                                                                                ADRMAJ                                                                                                                                                          1FI0984244             CO0000000000000000ALEXANDRE  OLIVIER                                                                                                61 RUE BAGNOLET                       3EME ETAG                                                                   75020       PARIS                              FRANCE                     
F00984696            0000001012014040907123300SABSAB139    SABFIRME  10000000000010102RCRC                                                                                                ADRMAJ                                                                                                                                                          1FI0984696             CO0000000000000000VERGÉ  CATHERINE                                                            LIEU DIT AIGUEBONNE                   9 RUE DU JEU DE BOULES                                                                                            34110       VIC LA GARDIOLE                    FRANCE                     
F00984697            0000001012014040907123300SABSAB139    SABFIRME  10000000000010102RCRC                                                                                                ADRMAJ                                                                                                                                                          1FI0984697             CO0000000000000000VERGÉ  ALAIN                                                                LIEU DIT AIGUEBONNE                   9 RUE DU JEU DE BOULES                                                                                            34110       VIC LA GARDIOLE                    FRANCE                     
F00984724            0000001012014040907123300SABSAB139    SABFIRME  10000000000010102RCRC                                                                                                ADRMAJ                                                                                                                                                          1FI0984724             CO0000000000000000MELINES  GILBERT                                                                                                                                        Lieu dit Cot de Higue                                                       82600       BEAUPUY                            FRANCE                     
F00984882            0000001012014040907123300SABSAB139    SABFIRME  10000000000010102RCRC                                                                                                ADRMAJ                                                                                                                                                          1FI0984882             CO0000000000000000BRION  LUCIEN                                                                                                     2 IMP DU CLOS RIGAUX                                                                                              51700       DORMANS                            FRANCE                     
F00290249            0000001012014040907123300SABSAB139    SABFIRME  10000000000010102RCRC                                                                                                ADRMAJ                                                                                                                                                          1FI0290249             CO0000000000000000BIGOIN  CHRISTIAN                                                                                                 18 RUE SAINT NICOLAS                                                                                              49100       ANGERS                             FRANCE                     
F00506390            0000001012014040907123300SABSAB139    SABFIRME  10000000000010102RCRC                                                                                                ADRMAJ                                                                                                                                                          1FI0506390             CO0000000000000000COURVOISIER  THIERRY                                                                                              26 RUE DE LA POSTE                                                                                                41150       CHOUZY                             FRANCE                     
F00354564            0000001012014040907123300SABSAB139    SABFIRME  10000000000010102RCRC                                                                                                ADRMAJ                                                                                                                                                          1FI0354564             CO0000000000000000JACOB  PASCALE                                                                                                    RUE DU CHATEAU                                                                                                    19210       LUBERSAC                           FRANCE                     
F00355356            0000001012014040907123300SABSAB139    SABFIRME  10000000000010102RCRC                                                                                                ADRMAJ                                                                                                                                                          1FI0355356             CO0000000000000000CHRETIEN  OLIVIER                                                                                                 1 RUE DES TILLEULS                                                                                                60340       VILLERS SOUS SAINT LEU             FRANCE                     
F00360477            0000001012014040907123300SABSAB139    SABFIRME  10000000000010102RCRC                                                                                                ADRMAJ                                                                                                                                                          1FI0360477             CO0000000000000000AMALVICT  ERIC                                                                                                    13 RUE JEAN DE CHALON                                                                                             89440       L ISLE SUR SEREIN                  FRANCE                     
F00362550            0000001012014040907123300SABSAB139    SABFIRME  10000000000010102RCRC                                                                                                ADRMAJ                                                                                                                                                          1FI0362550             CO0000000000000000GRAS  JEAN CLAUDE                                                                                                 6B RUE DUPIN                                                                                                      58000       NEVERS                             FRANCE                     
F00363528            0000001012014040907123300SABSAB139    SABFIRME  10000000000010102RCRC                                                                                                ADRMAJ                                                                                                                                                          1FI0363528             CO0000000000000000CLOSSAIS  JEROME                                                                                                  RUE DE LA POSTE                                                                                                   41230       MUR DE SOLOGNE                     FRANCE                     
F00363590            0000001012014040907123300SABSAB139    SABFIRME  10000000000010102RCRC                                                                                                ADRMAJ                                                                                                                                                          1FI0363590             CO0000000000000000MILLIET  FRANCK                                                                                                   16 IMP DES VIEUX FOSSES                                                                                           41200       ROMORANTIN                         FRANCE                     
F00144964            0000001012014040907123300SABSAB139    SABFIRME  10000000000010102RCRC                                                                                                ADRMAJ                                                                                                                                                          1FI0144964             CO0000000000000000GAYRAUD  LAURENT                                                                                                  3 PL DE LA LIBERTE                                                                                                86000       POITIERS                           FRANCE                     
F00145522            0000001012014040907123300SABSAB139    SABFIRME  10000000000010102RCRC                                                                                                ADRMAJ                                                                                                                                                          1FI0145522             CO0000000000000000VERGNAUD  NICOLAS                                                                                                 33 RUE DU GENERAL ARBELLOT                                                                                        87300       BELLAC                             FRANCE                     
F00109498            0000001012014040907123300SABSAB139    SABFIRME  10000000000010102RCRC                                                                                                ADRMAJ                                                                                                                                                          1FI0109498             CO0000000000000000MONTAGU  ANDRE                                                                                                    RUE DE LA GARE                                                                                                    18300       VEAUGUES                           FRANCE                     
F00111569            0000001012014040907123300SABSAB139    SABFIRME  10000000000010102RCRC                                                                                                ADRMAJ                                                                                                                                                          1FI0111569             CO0000000000000000SOMMIER  GUY                                                                                                      17 RUE DE L EGLISE                                                                                                22450       LA ROCHE DERRIEN                   FRANCE                     
F00228362            0000001012014040907123300SABSAB139    SABFIRME  10000000000010102RCRC                                                                                                ADRMAJ                                                                                                                                                          1FI0228362             CO0000000000000000VALMIER  PIERRE-JEAN                                                                                              26 BD DU  COLONEL AUBRY                                                                                           79300       BRESSUIRE                          FRANCE                     
F00228747            0000001012014040907123300SABSAB139    SABFIRME  10000000000010102RCRC                                                                                                ADRMAJ                                                                                                                                                          1FI0228747             CO0000000000000000LEGROUX  PHILIPPE                                                                                                 116 AV FELIX GENESLAY                                                                                             72006       LE MANS                            FRANCE                     
F00257970            0000001012014040907123300SABSAB139    SABFIRME  10000000000010102RCRC                                                                                                ADRMAJ                                                                                                                                                          1FI0257970             CO0000000000000000HAYATE  SYLVAIN                                                                                                   8 RUE RANQUE                          RESIDENCE ST CHARLES                                                        13001       MARSEILLE                          FRANCE                     
F00841793            0000001012014040907123300SABSAB139    SABFIRME  10000000000010102RCRC                                                                                                ADRMAJ                                                                                                                                                          1FI0841793             CO0000000000000000SYRE  FABIEN                                                                                                      162 RUE DE LA POSTE                                                                                               01310       BUELLAS                            FRANCE                     
F00894031            0000001012014040907123300SABSAB139    SABFIRME  10000000000010102RCRC                                                                                                ADRMAJ                                                                                                                                                          1FI0894031             CO0000000000000000GEORGET  JEAN MARC                                                                                                11 BD DE L AMPERE                     ZAC DE LA FLEURIAYE                                                         44470       CARQUEFOU                          FRANCE                     
F00894177            0000001012014040907123300SABSAB139    SABFIRME  10000000000010102RCRC                                                                                                ADRMAJ                                                                                                                                                          1FI0894177             CO0000000000000000TREVIDIC  JANE MARIE                                                                                              3 RUE BOREAU                                                                                                      49100       ANGERS                             FRANCE                     
F00834071            0000001012014040907123300SABSAB139    SABFIRME  10000000000010102RCRC                                                                                                ADRMAJ                                                                                                                                                          1FI0834071             CO0000000000000000THENIER  ERIC                                                                                                     672 AV DE LA GARE                                                                                                 60320       BETHISY ST PIERRE                  FRANCE                     
F00835411            0000001012014040907123300SABSAB139    SABFIRME  10000000000010102RCRC                                                                                                ADRMAJ                                                                                                                                                          1FI0835411             CO0000000000000000SALIF  ALICE                                                                                                      1465 CHE DES COMBES                   BAT B                                                                       06600       ANTIBES                            FRANCE                     
F00136216            0000001012014040907123300SABSAB139    SABFIRME  10000000000010102RCRC                                                                                                ADRMAJ                                                                                                                                                          1FI0136216             CO0000000000000000GOYARD  BERNARD                                                                                                   68 RUE DES ECOLES                                                                                                 01600       MISERIEUX                          FRANCE                     
F00092602            0000001012014040907123300SABSAB139    SABFIRME  10000000000010102RCRC                                                                                                ADRMAJ                                                                                                                                                          1FI0092602             CO0000000000000000PARSEGHIAN  MARTINE                                                                                               44 RTE DE GENEVE                                                                                                  01800       MEXIMIEUX                          FRANCE                     
F00119242            0000001012014040907123300SABSAB139    SABFIRME  10000000000010102RCRC                                                                                                ADRMAJ                                                                                                                                                          1FI0119242             CO0000000000000000SCIET  BLANDINE                                                                                                   77 RUE DE FRANCE                                                                                                  77300       FONTAINEBLEAU                      FRANCE                     
F00119294            0000001012014040907123300SABSAB139    SABFIRME  10000000000010102RCRC                                                                                                ADRMAJ                                                                                                                                                          1FI0119294             CO0000000000000000GUILLET  YVES                                                                                                     286 RTE DE LYON                                                                                                   01320       CHALAMONT                          FRANCE                     
F00129660            0000001012014040907123300SABSAB139    SABFIRME  10000000000010102RCRC                                                                                                ADRMAJ                                                                                                                                                          1FI0129660             CO0000000000000000MALIVERT  DANIEL                                                                                                  80 AV GAMBETTA                                                                                                    76200       DIEPPE                             FRANCE                     
F00801444            0000001012014040907123300SABSAB139    SABFIRME  10000000000010102RCRC                                                                                                ADRMAJ                                                                                                                                                          1FI0801444             CO0000000000000000BERGET  PIERRE                                                                                                    3 RUE DE LA PIERRE LEVEE                                                                                          75011       PARIS                              FRANCE                     
F00827277            0000001012014040907123300SABSAB139    SABFIRME  10000000000010102RCRC                                                                                                ADRMAJ                                                                                                                                                          1FI0827277             CO0000000000000000BRILLOUET  PIERRE - EMMANUEL                                                                                      9 CHE DU  GUE  DE  L   HOMME                                                                                      79250       NUEIL  LES  AUBIERS                FRANCE                     
F00827508            0000001012014040907123300SABSAB139    SABFIRME  10000000000010102RCRC                                                                                                ADRMAJ                                                                                                                                                          1FI0827508             CO0000000000000000HEIM  VINCENT                                                                                                     9 RUE DE COINCHIMONT                                                                                              88520       BAN  DE LAVELINE                   FRANCE                     
F00828319            0000001012014040907123300SABSAB139    SABFIRME  10000000000010102RCRC                                                                                                ADRMAJ                                                                                                                                                          1FI0828319             CO0000000000000000RECH  JEAN PIERRE                                                                                                 5 IMP DE LA GARE                                                                                                  50600       PARIGNY                            FRANCE                     
F00828352            0000001012014040907123300SABSAB139    SABFIRME  10000000000010102RCRC                                                                                                ADRMAJ                                                                                                                                                          1FI0828352             CO0000000000000000ROUSSET  NATHALIE                                                                                                 25 RUE DE LA GARE                                                                                                 49440       CANDE                              FRANCE                     
F00828546            0000001012014040907123300SABSAB139    SABFIRME  10000000000010102RCRC                                                                                                ADRMAJ                                                                                                                                                          1FI0828546             CO0000000000000000RIVIERE  AGNES                                                                                                    20 PL DU 8 MAI 1945                                                                                               01500       AMBERIEU EN BUGEY                  FRANCE                     
F00121903            0000001012014040907123300SABSAB139    SABFIRME  10000000000010102RCRC                                                                                                ADRMAJ                                                                                                                                                          1FI0121903             CO0000000000000000BERVA  PATRICK                                                                                                    14 RUE SAINT JEAN                                                                                                 52000       CHAUMONT                           FRANCE                     
F00121925            0000001012014040907123300SABSAB139    SABFIRME  10000000000010102RCRC                                                                                                ADRMAJ                                                                                                                                                          1FI0121925             CO0000000000000000BLANGONET  DOMINIQUE                                                                                              12 RUE DE PARIS                                                                                                   53350       BALLOTS                            FRANCE                     
F00122183            0000001012014040907123300SABSAB139    SABFIRME  10000000000010102RCRC                                                                                                ADRMAJ                                                                                                                                                          1FI0122183             CO0000000000000000KERGOET  PIERRE                                                                                                   RTE DE VANNES                         LE PARC                                                                     56190       MUZILLAC                           FRANCE                     
F00122184            0000001012014040907123300SABSAB139    SABFIRME  10000000000010102RCRC                                                                                                ADRMAJ                                                                                                                                                          1FI0122184             CO0000000000000000DURRMEYER  JEAN FRANCOIS                                                                                          Z   C  DES AJONCS                                                                                                 56250       SAINT NOLFF                        FRANCE                     
F00105398            0000001012014040907123300SABSAB139    SABFIRME  10000000000010102RCRC                                                                                                ADRMAJ                                                                                                                                                          1FI0105398             CO0000000000000000BEAUVIR  HERVE                                                                                                    4B RUE MAURICE THOREZ                                                                                             56100       LORIENT                            FRANCE                     
F00107077            0000001012014040907123300SABSAB139    SABFIRME  10000000000010102RCRC                                                                                                ADRMAJ                                                                                                                                                          1FI0107077             CO0000000000000000LE CORRE  DANIELLE                                                                                                4B RUE DU VAL DE SARTHE                                                                                           49125       TIERCE                             FRANCE                     
F00107359            0000001012014040907123300SABSAB139    SABFIRME  10000000000010102RCRC                                                                                                ADRMAJ                                                                                                                                                          1FI0107359             CO0000000000000000BRUNEAU  JEAN BERTRAND                                                                                            7 AV DE PADERBORN                                                                                                 72000       LE MANS                            FRANCE                     
F00291771            0000001012014040907123300SABSAB139    SABFIRME  10000000000010102RCRC                                                                                                ADRMAJ                                                                                                                                                          1FI0291771             CO0000000000000000PIERRE JEAN-CHRISTOPHE                                                                                            1 RUE MARENGO                         Centre Hospitalier                                                          49300       CHOLET                             FRANCE                     
F00291809            0000001012014040907123300SABSAB139    SABFIRME  10000000000010102RCRC                                                                                                ADRMAJ                                                                                                                                                          1FI0291809             CO0000000000000000BOUTEAUD CLAUDE                                                                                                   121 RUE DE LA LIBERTE                 Bt2c                                                                        33200       BORDEAUX                           FRANCE                     
F00009023            0000001012014040907123300SABSAB139    SABFIRME  10000000000010102RCRC                                                                                                ADRMAJ                                                                                                                                                          1FI0009023             CO0000000000000000CASTEL  SERGE                                                                                                     ROUSSAS                                                                                                           34390       COLOMBIERES SUR ORB                FRANCE                     
F00009459            0000001012014040907123300SABSAB139    SABFIRME  10000000000010102RCRC                                                                                                ADRMAJ                                                                                                                                                          1FI0009459             CO0000000000000000RAYNALD  JEAN                                                                                                     25 AV DU MONTALET                                                                                                 81230       LACAUNE                            FRANCE                     
F00009585            0000001012014040907123300SABSAB139    SABFIRME  10000000000010102RCRC                                                                                                ADRMAJ                                                                                                                                                          1FI0009585             CO0000000000000000MENIKER  ABDELHAMID                                                                                               4 RUE DES PINS                                                                                                    48000       MENDE                              FRANCE                     
