F00784655            0000001012014033103185400SABSAB139    SABFIRME  10000000000010102RCRC                                                                                                ADRMAJ                                                                                                                                                          1FI0784655             CO0000000000000000DEBONNET  MARC                                                                                                    28 AV DES DEPORTES                                                                                                60600       CLERMONT DE L   OISE               FRANCE                     
F00786136            0000001012014033103185400SABSAB139    SABFIRME  10000000000010102RCRC                                                                                                ADRMAJ                                                                                                                                                          1FI0786136             CO0000000000000000ABGRALL  ANNE-MARIE                                                                                               32 AV MARECHAL FOCH                                                                                               29400       LANDIVISIAU                        FRANCE                     
F00786399            0000001012014033103185400SABSAB139    SABFIRME  10000000000010102RCRC                                                                                                ADRMAJ                                                                                                                                                          1FI0786399             CO0000000000000000DUVAL  THIERRY                                                                                                    130 PRO DU BOURG                                                                                                  77176       NANDY                              FRANCE                     
F00769598            0000001012014033103185400SABSAB139    SABFIRME  10000000000010102RCRC                                                                                                ADRMAJ                                                                                                                                                          1FI0769598             CO0000000000000000LAFARGUE  MARIE-FRANCOISE                                                                                         3 RUE ST PIERRE                                                                                                   11590       OUVEILLAN                          FRANCE                     
F00770190            0000001012014033103185400SABSAB139    SABFIRME  10000000000010102RCRC                                                                                                ADRMAJ                                                                                                                                                          1FI0770190             CO0000000000000000CHEVALIER  SYLVIE                                                                                                 279 RTE DE  LA  CROIX                                                                                             01380       SAINT CYR SUR MENTHON              FRANCE                     
F00770320            0000001012014033103185400SABSAB139    SABFIRME  10000000000010102RCRC                                                                                                ADRMAJ                                                                                                                                                          1FI0770320             CO0000000000000000DUSSART  MARIE JOSE                                                                                               591 RUE PAUL PAVOT                                                                                                59730       VERTAIN                            FRANCE                     
F00805127            0000001012014033103185400SABSAB139    SABFIRME  10000000000010102RCRC                                                                                                ADRMAJ                                                                                                                                                          1FI0805127             CO0000000000000000TIMMERMANS  GUY                                                                                                   ZA DE LA CHARDRONNAIS                                                                                             35680       LOUVIGNE DE BAIS                   FRANCE                     
F00805775            0000001012014033103185400SABSAB139    SABFIRME  10000000000010102RCRC                                                                                                ADRMAJ                                                                                                                                                          1FI0805775             CO0000000000000000DE QUILLACQ  EMERIC                                                         ENTREE B                              45 BD RENE CASSIN                     LE CALIFORNIA PARK                                                          06200       NICE                               FRANCE                     
F00806288            0000001012014033103185400SABSAB139    SABFIRME  10000000000010102RCRC                                                                                                ADRMAJ                                                                                                                                                          1FI0806288             CO0000000000000000JULLIOT  VINCENT                                                                                                  59 AV DE LA CROIX DE GUERRE                                                                                       49400       SAINT LAMBERT DES LEVEES           FRANCE                     
F00807447            0000001012014033103185400SABSAB139    SABFIRME  10000000000010102RCRC                                                                                                ADRMAJ                                                                                                                                                          1FI0807447             CO0000000000000000SAILLANT BONIN  PASCALE                                                                                           LE BOURG                                                                                                          01570       VESINES                            FRANCE                     
F00954487            0000001012014033103185400SABSAB139    SABFIRME  10000000000010102RCRC                                                                                                ADRMAJ                                                                                                                                                          1FI0954487             CO0000000000000000DUCHADEUIL  DELPHINE                                                                                              364 CRS DE LA REPUBLIQUE                                                                                          84120       PERTUIS                            FRANCE                     
F00954903            0000001012014033103185400SABSAB139    SABFIRME  10000000000010102RCRC                                                                                                ADRMAJ                                                                                                                                                          1FI0954903             CO0000000000000000CARSUZAA  THIERRY                                                                                                 4 AV DE LA PROMENADE                                                                                              34440       NISSAN LEZ ENSERUNE                FRANCE                     
F00955012            0000001012014033103185400SABSAB139    SABFIRME  10000000000010102RCRC                                                                                                ADRMAJ                                                                                                                                                          1FI0955012             CO0000000000000000MUCCI  EMMANUEL                                                                                                   3 RUE DU PONT DE PRUNIERS                                                                                         49080       BOUCHEMAINE                        FRANCE                     
F00906634            0000001012014033103185400SABSAB139    SABFIRME  10000000000010102RCRC                                                                                                ADRMAJ                                                                                                                                                          1FI0906634             CO0000000000000000GAILLOT  HELENE                                                                                                   2B RUE DES TILLEULS                                                                                               88160       LE THILLOT                         FRANCE                     
F00907453            0000001012014033103185400SABSAB139    SABFIRME  10000000000010102RCRC                                                                                                ADRMAJ                                                                                                                                                          1FI0907453             CO0000000000000000AGOGUE  MARYLINE                                                                                                  1 RUE MARECHAL JOFFRE                                                                                             54790       MANCIEULLES                        FRANCE                     
F00907455            0000001012014033103185400SABSAB139    SABFIRME  10000000000010102RCRC                                                                                                ADRMAJ                                                                                                                                                          1FI0907455             CO0000000000000000PAWLYK  BOZENA                                                                                                    21 RUE DE VERDUN                                                                                                  54800       CONFLANS EN JARNISY                FRANCE                     
F00022763            0000001012014033103185400SABSAB139    SABFIRME  10000000000010102RCRC                                                                                                ADRMAJ                                                                                                                                                          1FI0022763             CO0000000000000000CHALLAMEL  XAVIER                                                                                                 21 PL DE LA LIBERTE                                                                                               01150       LAGNIEU                            FRANCE                     
F00022811            0000001012014033103185400SABSAB139    SABFIRME  10000000000010102RCRC                                                                                                ADRMAJ                                                                                                                                                          1FI0022811             CO0000000000000000GRINAND  MICHEL                                                                                                   ORDONNAZ                                                                                                          01510       ORDONNAZ                           FRANCE                     
F00022870            0000001012014033103185400SABSAB139    SABFIRME  10000000000010102RCRC                                                                                                ADRMAJ                                                                                                                                                          1FI0022870             CO0000000000000000MERLOZ  JEANNE-MARIE                                                                                              LE VILLAGE                            L'Auberge Campagnarde                                                       01230       EVOSGES                            FRANCE                     
F00329351            0000001012014033103185400SABSAB139    SABFIRME  10000000000010102RCRC                                                                                                ADRMAJ                                                                                                                                                          1FI0329351             CO0000000000000000TESTARD  OLIVIER                                                                                                  4 RUE DES F F  DE L INTERIEUR                                                                                     49100       ANGERS                             FRANCE                     
F00329357            0000001012014033103185400SABSAB139    SABFIRME  10000000000010102RCRC                                                                                                ADRMAJ                                                                                                                                                          1FI0329357             CO0000000000000000VOVARD  GILLES                                                                                                    8 RUE MENDES FRANCE                                                                                               49460       MONTREUIL JUIGNE                   FRANCE                     
F00145746            0000001012014033103185400SABSAB139    SABFIRME  10000000000010102RCRC                                                                                                ADRMAJ                                                                                                                                                          1FI0145746             CO0000000000000000ALTO                                                                                                              61 CHE DE LA TREILLE                                                                                              13320       BOUC BEL AIR                       FRANCE                     
F00967726            0000001012014033103185400SABSAB139    SABFIRME  10000000000010102RCRC                                                                                                ADRMAJ                                                                                                                                                          1FI0967726             CO0000000000000000NIVOT LAURENT                                                                                                     RUE DU CLAIR LOGIS                    LA HUCHE A PAIN                                                             58340       CERCY LA TOUR                      FRANCE                     
F00922566            0000001012014033103185400SABSAB139    SABFIRME  10000000000010102RCRC                                                                                                ADRMAJ                                                                                                                                                          1FI0922566             CO0000000000000000MARSAL  MARIANNE                                                                                                  54 ALL CHANTECLER                                                                                                 59650       VILLENEUVE D ASCQ                  FRANCE                     
F00923405            0000001012014033103185400SABSAB139    SABFIRME  10000000000010102RCRC                                                                                                ADRMAJ                                                                                                                                                          1FI0923405             CO0000000000000000MUSCAT  CEDRIC                                                                                                    168 CRS DE LA REPUBLIQUE              SKY CONDUITE                                                                84120       PERTUIS                            FRANCE                     
F01005627            0000001012014033103185400SABSAB139    SABFIRME  10000000000010102RCRC                                                                                                ADRMAJ                                                                                                                                                          1FI1005627             CO0000000000000000BRUSHI  NADINE                                                                                                    31 RUE SOLDINI                                                                                                    95130       FRANCONVILLE                       FRANCE                     
F01005663            0000001012014033103185400SABSAB139    SABFIRME  10000000000010102RCRC                                                                                                ADRMAJ                                                                                                                                                          1FI1005663             CO0000000000000000HAUSSARD  GERARD                                                                                                  8 RUE DE LA PETITE MARE                                                                                           78650       BEYNES                             FRANCE                     
F01005700            0000001012014033103185400SABSAB139    SABFIRME  10000000000010102RCRC                                                                                                ADRMAJ                                                                                                                                                          1FI1005700             CO0000000000000000RUBIN  ROGER                                                                                                      941 RTE DE VONNES                                                                                                 74390       CHATEL                             FRANCE                     
F01005701            0000001012014033103185400SABSAB139    SABFIRME  10000000000010102RCRC                                                                                                ADRMAJ                                                                                                                                                          1FI1005701             CO0000000000000000FLEURY  BRIGITTE                                                                                                  42 RUE DU PRESIDENT COTY                                                                                          44980       SAINTE LUCE SUR LOIRE              FRANCE                     
F01006229            0000001012014033103185400SABSAB139    SABFIRME  10000000000010102RCRC                                                                                                ADRMAJ                                                                                                                                                          1FI1006229             CO0000000000000000GUILLEMOT  ANGELIQUE                                                                                              10 RUE DU SENECHAL                                                                                                44350       GUERANDE                           FRANCE                     
F00105286            0000001012014033103185400SABSAB139    SABFIRME  10000000000010102RCRC                                                                                                ADRMAJ                                                                                                                                                          1FI0105286             CO0000000000000000LE PRIELLEC  HENRI                                                                                                L-D TOLGOET                                                                                                       56390       BRANDIVY                           FRANCE                     
F00124678            0000001012014033103185400SABSAB139    SABFIRME  10000000000010102RCRC                                                                                                ADRMAJ                                                                                                                                                          1FI0124678             CO0000000000000000ROUSSEAU  MICHEL                                                                                                  11 PL DU GRAND MARCHE                                                                                             49150       BAUGE                              FRANCE                     
F00953403            0000001012014033103185400SABSAB139    SABFIRME  10000000000010102RCRC                                                                                                ADRMAJ                                                                                                                                                          1FI0953403             CO0000000000000000GROULT  FRANCOISE                                                                                                 21 RUE DENFERT ROCHEREAU              INFIRMIERE                                                                  17300       ROCHEFORT/ MER                     FRANCE                     
F00953901            0000001012014033103185400SABSAB139    SABFIRME  10000000000010102RCRC                                                                                                ADRMAJ                                                                                                                                                          1FI0953901             CO0000000000000000SEZE  BRIGITTE                                                                                                    PL DE L HORLOGE                                                                                                   33210       TOULENNE                           FRANCE                     
F00150707            0000001012014033103185400SABSAB139    SABFIRME  10000000000010102RCRC                                                                                                ADRMAJ                                                                                                                                                          1FI0150707             CO0000000000000000MAURIZOT  MICHEL                                                                                                  CHATEAU VIEUX                         CUCURON                                                                     84160       CADENET                            FRANCE                     
F00166846            0000001012014033103185400SABSAB139    SABFIRME  10000000000010102RCRC                                                                                                ADRMAJ                                                                                                                                                          1FI0166846             CO0000000000000000FURLAN  MARIO                                                                                                     18 RUE NEUVE                                                                                                      54800       JARNY                              FRANCE                     
F00167529            0000001012014033103185400SABSAB139    SABFIRME  10000000000010102RCRC                                                                                                ADRMAJ                                                                                                                                                          1FI0167529             CO0000000000000000CLAUDON  RAYMOND                                                                                                  8 RUE DE VERDUN                                                                                                   88240       BAINS LES BAINS                    FRANCE                     
F00089235            0000001012014033103185400SABSAB139    SABFIRME  10000000000010102RCRC                                                                                                ADRMAJ                                                                                                                                                          1FI0089235             CO0000000000000000DUMIELLE  CLAUDE                                                                                                  35 RUE LOUIS RICHARD                                                                                              89000       AUXERRE                            FRANCE                     
F00092485            0000001012014033103185400SABSAB139    SABFIRME  10000000000010102RCRC                                                                                                ADRMAJ                                                                                                                                                          1FI0092485             CO0000000000000000ANDRIEUX  PASCAL                                                                                                  1 RUE ENJAMBES                                                                                                    86600       LUSIGNAN                           FRANCE                     
F00835411            0000001012014033103185400SABSAB139    SABFIRME  10000000000010102RCRC                                                                                                ADRMAJ                                                                                                                                                          1FI0835411             CO0000000000000000SALIF  ALICE                                                                                                      1465 CHE DES COMBES                   BAT B                                                                       06600       ANTIBES                            FRANCE                     
F00859184            0000001012014033103185400SABSAB139    SABFIRME  10000000000010102RCRC                                                                                                ADRMAJ                                                                                                                                                          1FI0859184             CO0000000000000000SADRIN  SYLVIE                                                                                                    397 RUE DE LA BATAILLARDE                                                                                         73000       CHAMBERY                           FRANCE                     
F00859255            0000001012014033103185400SABSAB139    SABFIRME  10000000000010102RCRC                                                                                                ADRMAJ                                                                                                                                                          1FI0859255             CO0000000000000000DUQUESNOY  OLIVIER                                                                                                2 BD DU GENERAL LECLERC                                                                                           59100       ROUBAIX                            FRANCE                     
F00860002            0000001012014033103185400SABSAB139    SABFIRME  10000000000010102RCRC                                                                                                ADRMAJ                                                                                                                                                          1FI0860002             CO0000000000000000CHATAIN  CATHERINE                                                                                                15 PL DU MARCHE                                                                                                   50610       JULLOUVILLE                        FRANCE                     
F00860030            0000001012014033103185400SABSAB139    SABFIRME  10000000000010102RCRC                                                                                                ADRMAJ                                                                                                                                                          1FI0860030             CO0000000000000000COLOMBIER  FRANCOIS                                                                                               1917 RTE DE LA MUETTE                                                                                             76230       ISNEAUVILLE                        FRANCE                     
F00860331            0000001012014033103185400SABSAB139    SABFIRME  10000000000010102RCRC                                                                                                ADRMAJ                                                                                                                                                          1FI0860331             CO0000000000000000LABBE  FREDERIC                                                                                                   9 CHE DE LA GENETIERE CHAUFFOUR                                                                                   58200       SAINT LOUP                         FRANCE                     
F00888439            0000001012014033103185400SABSAB139    SABFIRME  10000000000010102RCRC                                                                                                ADRMAJ                                                                                                                                                          1FI0888439             CO0000000000000000THEVENARD  FREDERIQUE                                                                                             1101 RTE DE MEZERIAT                                                                                              01310       POLLIAT                            FRANCE                     
F00829318            0000001012014033103185400SABSAB139    SABFIRME  10000000000010102RCRC                                                                                                ADRMAJ                                                                                                                                                          1FI0829318             CO0000000000000000DELAMARRE  BRIGITTE                                                                                               4 PL LORRAINE                                                                                                     49100       ANGERS                             FRANCE                     
F00969314            0000001012014033103185400SABSAB139    SABFIRME  10000000000010102RCRC                                                                                                ADRMAJ                                                                                                                                                          1FI0969314             CO0000000000000000DI LUCA  STEPHANIE                                                                                                2T RUE DE COURTENAY                                                                                               58000       NEVERS                             FRANCE                     
F00007851            0000001012014033103185400SABSAB139    SABFIRME  10000000000010102RCRC                                                                                                ADRMAJ                                                                                                                                                          1FI0007851             CO0000000000000000DUPRAT  ALAIN                                                                                                     90 CHE DU BIALE                                                                                                   64300       BERENX                             FRANCE                     
F00715204            0000001012014033103185400SABSAB139    SABFIRME  10000000000010102RCRC                                                                                                ADRMAJ                                                                                                                                                          1FI0715204             CO0000000000000000MOREAU  PATRICK                                                                                                   51 RUE DE LA FOUCAUDIERE              CLINIQUE ST JOSEPH                                                          49800       TRELAZE                            FRANCE                     
F00201220            0000001012014033103185400SABSAB139    SABFIRME  10000000000010102RCRC                                                                                                ADRMAJ                                                                                                                                                          1FI0201220             CO0000000000000000PHAM  BRIGITTE                                                                                                    54 BD DE L ALMONT                                                                                                 77000       MELUN                              FRANCE                     
F00201452            0000001012014033103185400SABSAB139    SABFIRME  10000000000010102RCRC                                                                                                ADRMAJ                                                                                                                                                          1FI0201452             CO0000000000000000LEPLAT  REGIS                                                                                                     46 GRAND PLACE                                                                                                    59670       CASSEL                             FRANCE                     
F00201461            0000001012014033103185400SABSAB139    SABFIRME  10000000000010102RCRC                                                                                                ADRMAJ                                                                                                                                                          1FI0201461             CO0000000000000000RENARD  OLIVIER                                                                                                   2 RUE DU VIEUX PIN                                                                                                61310       LE BOURG ST LEONARD                FRANCE                     
F00201469            0000001012014033103185400SABSAB139    SABFIRME  10000000000010102RCRC                                                                                                ADRMAJ                                                                                                                                                          1FI0201469             CO0000000000000000RENARD  MARTINE                                                                                                   2 RTE DU VIEUX PIN                                                                                                61310       LE BOURG ST LEONARD                FRANCE                     
F00092602            0000001012014033103185400SABSAB139    SABFIRME  10000000000010102RCRC                                                                                                ADRMAJ                                                                                                                                                          1FI0092602             CO0000000000000000PARSEGHIAN  MARTINE                                                                                               44 RTE DE GENEVE                                                                                                  01800       MEXIMIEUX                          FRANCE                     
F00119242            0000001012014033103185400SABSAB139    SABFIRME  10000000000010102RCRC                                                                                                ADRMAJ                                                                                                                                                          1FI0119242             CO0000000000000000SCIET  BLANDINE                                                                                                   77 RUE DE FRANCE                                                                                                  77300       FONTAINEBLEAU                      FRANCE                     
F00119294            0000001012014033103185400SABSAB139    SABFIRME  10000000000010102RCRC                                                                                                ADRMAJ                                                                                                                                                          1FI0119294             CO0000000000000000GUILLET  YVES                                                                                                     286 RTE DE LYON                                                                                                   01320       CHALAMONT                          FRANCE                     
F00119451            0000001012014033103185400SABSAB139    SABFIRME  10000000000010102RCRC                                                                                                ADRMAJ                                                                                                                                                          1FI0119451             CO0000000000000000COLDEBOEUF  MAURICE                                                                                               LES GRAULES                                                                                                       87600       VIDEIX                             FRANCE                     
F00290249            0000001012014033103185400SABSAB139    SABFIRME  10000000000010102RCRC                                                                                                ADRMAJ                                                                                                                                                          1FI0290249             CO0000000000000000BIGOIN  CHRISTIAN                                                                                                 18 RUE SAINT NICOLAS                                                                                              49100       ANGERS                             FRANCE                     
F00732203            0000001012014033103185400SABSAB139    SABFIRME  10000000000010102RCRC                                                                                                ADRMAJ                                                                                                                                                          1FI0732203             CO0000000000000000STIEVENARD  CHARLES                                                                                               10 RUE DE  LA  PRISE  D EAU                                                                                       85500       LES HERBIERS                       FRANCE                     
F00733084            0000001012014033103185400SABSAB139    SABFIRME  10000000000010102RCRC                                                                                                ADRMAJ                                                                                                                                                          1FI0733084             CO0000000000000000PONS-DAVID  LYSIANNE                                                                                              4 RUE DENFER ROCHEREAU                                                                                            11100       NARBONNE                           FRANCE                     
F00716749            0000001012014033103185400SABSAB139    SABFIRME  10000000000010102RCRC                                                                                                ADRMAJ                                                                                                                                                          1FI0716749             CO0000000000000000VILLEMAGNE  CHRISTOPHE                                                                                            7 RUE NOTRE DAME                                                                                                  49270       LE FUILET                          FRANCE                     
F00970419            0000001012014033103185400SABSAB139    SABFIRME  10000000000010102RCRC                                                                                                ADRMAJ                                                                                                                                                          1FI0970419             CO0000000000000000GERFAUD VALENTIN  SANDRINE                                                                                        85 PL DE L EGLISE                                                                                                 74220       LA CLUSAZ                          FRANCE                     
F00228362            0000001012014033103185400SABSAB139    SABFIRME  10000000000010102RCRC                                                                                                ADRMAJ                                                                                                                                                          1FI0228362             CO0000000000000000VALMIER  PIERRE-JEAN                                                                                              26 BD DU  COLONEL AUBRY                                                                                           79300       BRESSUIRE                          FRANCE                     
F00228747            0000001012014033103185400SABSAB139    SABFIRME  10000000000010102RCRC                                                                                                ADRMAJ                                                                                                                                                          1FI0228747             CO0000000000000000LEGROUX  PHILIPPE                                                                                                 116 AV FELIX GENESLAY                                                                                             72006       LE MANS                            FRANCE                     
F00257970            0000001012014033103185400SABSAB139    SABFIRME  10000000000010102RCRC                                                                                                ADRMAJ                                                                                                                                                          1FI0257970             CO0000000000000000HAYATE  SYLVAIN                                                                                                   8 RUE RANQUE                          RESIDENCE ST CHARLES                                                        13001       MARSEILLE                          FRANCE                     
F00793306            0000001012014033103185400SABSAB139    SABFIRME  10000000000010102RCRC                                                                                                ADRMAJ                                                                                                                                                          1FI0793306             CO0000000000000000LECRONIER  ANNICK                                                                                                 31T RUE DE VIGNACOURT                                                                                             80610       SAINT OUEN                         FRANCE                     
F00793379            0000001012014033103185400SABSAB139    SABFIRME  10000000000010102RCRC                                                                                                ADRMAJ                                                                                                                                                          1FI0793379             CO0000000000000000IN  CHANMONY                                                                                                      6 RUE ANDRE TEMPEZ                                                                                                80600       DOULLENS                           FRANCE                     
F00793933            0000001012014033103185400SABSAB139    SABFIRME  10000000000010102RCRC                                                                                                ADRMAJ                                                                                                                                                          1FI0793933             CO0000000000000000GAGETTA  JEAN PIERRE                                                                                              364 RUE PAUL ELBEL                                                                                                88420       MOYENMOUTIER                       FRANCE                     
F00794646            0000001012014033103185400SABSAB139    SABFIRME  10000000000010102RCRC                                                                                                ADRMAJ                                                                                                                                                          1FI0794646             CO0000000000000000COLNOT  FRANCOISE                                                                                                 62 RUE DE SECOURS                                                                                                 54710       LUDRES                             FRANCE                     
F00794690            0000001012014033103185400SABSAB139    SABFIRME  10000000000010102RCRC                                                                                                ADRMAJ                                                                                                                                                          1FI0794690             CO0000000000000000THERY  JEAN MARC                                                                                                  120 RUE D  ALSACE                     LE POLE MEDICAL                                                             88100       SAINT DIE                          FRANCE                     
F00929633            0000001012014033103185400SABSAB139    SABFIRME  10000000000010102RCRC                                                                                                ADRMAJ                                                                                                                                                          1FI0929633             CO0000000000000000SPROVIERI  CHRISTOPHE                                                                                             5 ALL CHANTE ALOUETTE                                                                                             07300       TOURNON SUR RHONE                  FRANCE                     
F00899031            0000001012014033103185400SABSAB139    SABFIRME  10000000000010102RCRC                                                                                                ADRMAJ                                                                                                                                                          1FI0899031             CO0000000000000000CAMUS  ISABELLE                                                                                                   61 RUE DE MAILLOCHON                                                                                              86000       POITIERS                           FRANCE                     
F00129660            0000001012014033103185400SABSAB139    SABFIRME  10000000000010102RCRC                                                                                                ADRMAJ                                                                                                                                                          1FI0129660             CO0000000000000000MALIVERT  DANIEL                                                                                                  80 AV GAMBETTA                                                                                                    76200       DIEPPE                             FRANCE                     
F00388429            0000001012014033103185400SABSAB139    SABFIRME  10000000000010102RCRC                                                                                                ADRMAJ                                                                                                                                                          1FI0388429             CO0000000000000000BIERO JEAN-PIERRE                                                                                                 64 RUE DE ROUEN                                                                                                   49400       SAUMUR                             FRANCE                     
F00502182            0000001012014033103185400SABSAB139    SABFIRME  10000000000010102RCRC                                                                                                ADRMAJ                                                                                                                                                          1FI0502182             CO0000000000000000MICHELET  AGNES                                                                                                   31 AV PIERRE CURIE                                                                                                18000       BOURGES                            FRANCE                     
F00503225            0000001012014033103185400SABSAB139    SABFIRME  10000000000010102RCRC                                                                                                ADRMAJ                                                                                                                                                          1FI0503225             CO0000000000000000SAID  EMILE                                                                                                       5 RUE MARIN DUBUARD                                                                                               28400       NOGENT LE ROTROU                   FRANCE                     
F00009023            0000001012014033103185400SABSAB139    SABFIRME  10000000000010102RCRC                                                                                                ADRMAJ                                                                                                                                                          1FI0009023             CO0000000000000000CASTEL  SERGE                                                                                                     ROUSSAS                                                                                                           34390       COLOMBIERES SUR ORB                FRANCE                     
F00009459            0000001012014033103185400SABSAB139    SABFIRME  10000000000010102RCRC                                                                                                ADRMAJ                                                                                                                                                          1FI0009459             CO0000000000000000RAYNALD  JEAN                                                                                                     25 AV DU MONTALET                                                                                                 81230       LACAUNE                            FRANCE                     
F00009585            0000001012014033103185400SABSAB139    SABFIRME  10000000000010102RCRC                                                                                                ADRMAJ                                                                                                                                                          1FI0009585             CO0000000000000000MENIKER  ABDELHAMID                                                                                               4 RUE DES PINS                                                                                                    48000       MENDE                              FRANCE                     
F00948707            0000001012014033103185400SABSAB139    SABFIRME  10000000000010102RCRC                                                                                                ADRMAJ                                                                                                                                                          1FI0948707             CO0000000000000000TEXIER  FREDERIC                                                                                                  RUE DES ROLLETIERES                                                                                               49400       SAUMUR                             FRANCE                     
F00121903            0000001012014033103185400SABSAB139    SABFIRME  10000000000010102RCRC                                                                                                ADRMAJ                                                                                                                                                          1FI0121903             CO0000000000000000BERVA  PATRICK                                                                                                    14 RUE SAINT JEAN                                                                                                 52000       CHAUMONT                           FRANCE                     
F00121925            0000001012014033103185400SABSAB139    SABFIRME  10000000000010102RCRC                                                                                                ADRMAJ                                                                                                                                                          1FI0121925             CO0000000000000000BLANGONET  DOMINIQUE                                                                                              12 RUE DE PARIS                                                                                                   53350       BALLOTS                            FRANCE                     
F00122183            0000001012014033103185400SABSAB139    SABFIRME  10000000000010102RCRC                                                                                                ADRMAJ                                                                                                                                                          1FI0122183             CO0000000000000000KERGOET  PIERRE                                                                                                   RTE DE VANNES                         LE PARC                                                                     56190       MUZILLAC                           FRANCE                     
F00122184            0000001012014033103185400SABSAB139    SABFIRME  10000000000010102RCRC                                                                                                ADRMAJ                                                                                                                                                          1FI0122184             CO0000000000000000DURRMEYER  JEAN FRANCOIS                                                                                          Z   C  DES AJONCS                                                                                                 56250       SAINT NOLFF                        FRANCE                     
F00105398            0000001012014033103185400SABSAB139    SABFIRME  10000000000010102RCRC                                                                                                ADRMAJ                                                                                                                                                          1FI0105398             CO0000000000000000BEAUVIR  HERVE                                                                                                    4B RUE MAURICE THOREZ                                                                                             56100       LORIENT                            FRANCE                     
F00107077            0000001012014033103185400SABSAB139    SABFIRME  10000000000010102RCRC                                                                                                ADRMAJ                                                                                                                                                          1FI0107077             CO0000000000000000LE CORRE  DANIELLE                                                                                                4B RUE DU VAL DE SARTHE                                                                                           49125       TIERCE                             FRANCE                     
F00107359            0000001012014033103185400SABSAB139    SABFIRME  10000000000010102RCRC                                                                                                ADRMAJ                                                                                                                                                          1FI0107359             CO0000000000000000BRUNEAU  JEAN BERTRAND                                                                                            7 AV DE PADERBORN                                                                                                 72000       LE MANS                            FRANCE                     
F00613631            0000001012014033103185400SABSAB139    SABFIRME  10000000000010102RCRC                                                                                                ADRMAJ                                                                                                                                                          1FI0613631             CO0000000000000000FAVRAY  GERMAIN                                                                                                   108 RUE CARNOT                                                                                                    89500       VILLENEUVE SUR YONNE               FRANCE                     
F00613714            0000001012014033103185400SABSAB139    SABFIRME  10000000000010102RCRC                                                                                                ADRMAJ                                                                                                                                                          1FI0613714             CO0000000000000000MATHON  CHANTAL                                                                                                   8 RUE THIERS                                                                                                      59660       MERVILLE                           FRANCE                     
F00613719            0000001012014033103185400SABSAB139    SABFIRME  10000000000010102RCRC                                                                                                ADRMAJ                                                                                                                                                          1FI0613719             CO0000000000000000RUCKEBUSCH  MICHEL                                                                                                106 RTE DE BORRE                                                                                                  59190       HAZEBROUCK                         FRANCE                     
F00625109            0000001012014033103185400SABSAB139    SABFIRME  10000000000010102RCRC                                                                                                ADRMAJ                                                                                                                                                          1FI0625109             CO0000000000000000LE BORGNE-OLIVIER  SIMONE                                                                                         11 RUE PIERRE BROSSOLETTE                                                                                         29100       DOUARNENEZ                         FRANCE                     
F00625117            0000001012014033103185400SABSAB139    SABFIRME  10000000000010102RCRC                                                                                                ADRMAJ                                                                                                                                                          1FI0625117             CO0000000000000000MERCADAL  LUCIEN                                                                                                  22 RUE LAENNEC                                                                                                    29100       DOUARNENEZ                         FRANCE                     
F00839565            0000001012014033103185400SABSAB139    SABFIRME  10000000000010102RCRC                                                                                                ADRMAJ                                                                                                                                                          1FI0839565             CO0000000000000000KARSENTI  DAVID                                                                                                   50 RUE DE RENNES                                                                                                  75006       PARIS                              FRANCE                     
F00841793            0000001012014033103185400SABSAB139    SABFIRME  10000000000010102RCRC                                                                                                ADRMAJ                                                                                                                                                          1FI0841793             CO0000000000000000SYRE  FABIEN                                                                                                      162 RUE DE LA POSTE                                                                                               01310       BUELLAS                            FRANCE                     
F00662959            0000001012014033103185400SABSAB139    SABFIRME  10000000000010102RCRC                                                                                                ADRMAJ                                                                                                                                                          1FI0662959             CO0000000000000000BARBIER  PIERRE-YVES                                                                                              11 RUE DE COINCHIMONT                                                                                             88520       BAN DE LAVELINE                    FRANCE                     
F00627690            0000001012014033103185400SABSAB139    SABFIRME  10000000000010102RCRC                                                                                                ADRMAJ                                                                                                                                                          1FI0627690             CO0000000000000000MENARD  CHRISTIAN                                                                                                 2B RUE DE VILLOUTREYS                                                                                             35150       JANZE                              FRANCE                     
F00663776            0000001012014033103185400SABSAB139    SABFIRME  10000000000010102RCRC                                                                                                ADRMAJ                                                                                                                                                          1FI0663776             CO0000000000000000TRAVERS  PIERRE                                                                                                   22 RUE DE L  HERMITAGE                                                                                            26600       TAIN L HERMITAGE                   FRANCE                     
F00700711            0000001012014033103185400SABSAB139    SABFIRME  10000000000010102RCRC                                                                                                ADRMAJ                                                                                                                                                          1FI0700711             CO0000000000000000LANGLET  DOMINIQUE                                                                                                11 BD ROGER SALENGRO                                                                                              80800       VILLERS BRETONNEUX                 FRANCE                     
F00701173            0000001012014033103185400SABSAB139    SABFIRME  10000000000010102RCRC                                                                                                ADRMAJ                                                                                                                                                          1FI0701173             CO0000000000000000DEROO-DEBRUYNE  VERONIQUE                                                                                         20 AV DE LA BERGERIE                                                                                              59114       STEEENVOORDE                       FRANCE                     
