F00784655            0000001012014033103185100SABSAB139    SABFIRME  10000000000010102RCRC                                                                                                CLIMAJ                                                                                                                                                                         000001CLIPRO01  2014033100000001                                                                                                                                                                                                                                                                                                                                 
F00784655            0000001012014033103185100SABSAB139    SABFIRME  10000000000010102RCRC                                                                                                CLIMAJ                                                                                                                                                          0784655        01005EINC0102                DEBONNET                        MARC                                                                                                                                                                                      DEBONNET                        MARC                            0                                         
F00784655            0000001012014033103185100SABSAB139    SABFIRME  10000000000010102RCRC                                                                                                CLIMAJ                                                                                                                                                          0784655        02          0000000000000000                                                                         0000000000000                                   00000       00000000                                           000000000000000   000000000000000000000000     00000000                                                      3 00                            
F00784655            0000001012014033103185100SABSAB139    SABFIRME  10000000000010102RCRC                                                                                                CLIMAJ                                                                                                                                                          0784655        03   PRS    8690E           1                        00000000   00000000000                                        0000000000000000000000000000000000000000000000000000000          00000000      PRO         00000000                                                                                                                                           
F00784655            0000001012014033103185100SABSAB139    SABFIRME  10000000000010102RCRC                                                                                                CLIMAJ                                                                                                                                                          0784655        04  0000000000000000                                                                            28 AV DES DEPORTES                                                                                                                                      60600       CLERMONT DE L   OISE               FRANCE                   0000000000                       
F00784655            0000001012014033103185100SABSAB139    SABFIRME  10000000000010102RCRC                                                                                                CLIMAJ                                                                                                                                                          0784655        06FIF000161890                                                                                                                                                                                                                                                                                                                                                   
F00784655            0000001012014033103185100SABSAB139    SABFIRME  10000000000010102RCRC                                                                                                CLIMAJ                                                                                                                                                          0784655        10BUREAU03 44 50 44 61                                    1                                                                                                                                                                                                                                                                                                      
F00784655            0000001012014033103185100SABSAB139    SABFIRME  10000000000010102RCRC                                                                                                CLIMAJ                                                                                                                                                          0784655        10FAX   03 44 50 44 61                                    1                                                                                                                                                                                                                                                                                                      
F00784655            0000001012014033103185100SABSAB139    SABFIRME  10000000000010102RCRC                                                                                                CLIMAJ                                                                                                                                                          0784655        10EMAILBmarc.debonnet@libertysurf.fr                      1                                                                                                                                                                                                                                                                                                      
F00784655            0000001012014033103185100SABSAB139    SABFIRME  10000000000010102RCRC                                                                                                CLIMAJ                                                                                                                                                          0784655        2020011101FIDCON                                                                                                                                                                                                                                                                                                                                                 
F00784655            0000001012014033103185100SABSAB139    SABFIRME  10000000000010102RCRC                                                                                                CLIMAJ                                                                                                                                                                         99000001                                                                                                                                                                                                                                                                                                                                                         
F00786136            0000002012014033103185100SABSAB139    SABFIRME  10000000000010102RCRC                                                                                                CLIMAJ                                                                                                                                                                         000001CLIPRO01  2014033100000001                                                                                                                                                                                                                                                                                                                                 
F00786136            0000002012014033103185100SABSAB139    SABFIRME  10000000000010102RCRC                                                                                                CLIMAJ                                                                                                                                                          0786136        01006EINC0102                ABGRALL                         ANNE-MARIE                                                                                                                                                                                ABGRALL                         ANNE-MARIE                      0                                         
F00786136            0000002012014033103185100SABSAB139    SABFIRME  10000000000010102RCRC                                                                                                CLIMAJ                                                                                                                                                          0786136        02          0000000000000000                                                                         0000000000000                                   00000       00000000                                           000000000000000   000000000000000000000000     00000000                                                      3 00                            
F00786136            0000002012014033103185100SABSAB139    SABFIRME  10000000000010102RCRC                                                                                                CLIMAJ                                                                                                                                                          0786136        03   PRS    8622C           1                        00000000   00000000000                                        0000000000000000000000000000000000000000000000000000000          00000000      PRO         00000000                                                                                                                                           
F00786136            0000002012014033103185100SABSAB139    SABFIRME  10000000000010102RCRC                                                                                                CLIMAJ                                                                                                                                                          0786136        04  0000000000000000                                                                            32 AV MARECHAL FOCH                                                                                                                                     29400       LANDIVISIAU                        FRANCE                   0000000000                       
F00786136            0000002012014033103185100SABSAB139    SABFIRME  10000000000010102RCRC                                                                                                CLIMAJ                                                                                                                                                          0786136        06FIF000161919                                                                                                                                                                                                                                                                                                                                                   
F00786136            0000002012014033103185100SABSAB139    SABFIRME  10000000000010102RCRC                                                                                                CLIMAJ                                                                                                                                                          0786136        10BUREAU02 98 68 43 32                                    1                                                                                                                                                                                                                                                                                                      
F00786136            0000002012014033103185100SABSAB139    SABFIRME  10000000000010102RCRC                                                                                                CLIMAJ                                                                                                                                                          0786136        10FAX   02 98 68 04 16                                    1                                                                                                                                                                                                                                                                                                      
F00786136            0000002012014033103185100SABSAB139    SABFIRME  10000000000010102RCRC                                                                                                CLIMAJ                                                                                                                                                          0786136        10EMAILBanne-marie.abgrall@orange.fr                      1                                                                                                                                                                                                                                                                                                      
F00786136            0000002012014033103185100SABSAB139    SABFIRME  10000000000010102RCRC                                                                                                CLIMAJ                                                                                                                                                          0786136        2020000101FIDCON                                                                                                                                                                                                                                                                                                                                                 
F00786136            0000002012014033103185100SABSAB139    SABFIRME  10000000000010102RCRC                                                                                                CLIMAJ                                                                                                                                                                         99000001                                                                                                                                                                                                                                                                                                                                                         
F00786399            0000003012014033103185100SABSAB139    SABFIRME  10000000000010102RCRC                                                                                                CLIMAJ                                                                                                                                                                         000001CLIPRO01  2014033100000001                                                                                                                                                                                                                                                                                                                                 
F00786399            0000003012014033103185100SABSAB139    SABFIRME  10000000000010102RCRC                                                                                                CLIMAJ                                                                                                                                                          0786399        01005EINC0102                DUVAL                           THIERRY                                                                                                                                                                                   DUVAL                           THIERRY                         0                                         
F00786399            0000003012014033103185100SABSAB139    SABFIRME  10000000000010102RCRC                                                                                                CLIMAJ                                                                                                                                                          0786399        02          0000000000000000                                                                         0000000000000                                   00000       00000000                                           000000000000000   000000000000000000000000     00000000                                                      3 00                            
F00786399            0000003012014033103185100SABSAB139    SABFIRME  10000000000010102RCRC                                                                                                CLIMAJ                                                                                                                                                          0786399        03   PRS    8690D           1                        00000000   00000000000                                        0000000000000000000000000000000000000000000000000000000          00000000      PRO         00000000                                                                                                                                           
F00786399            0000003012014033103185100SABSAB139    SABFIRME  10000000000010102RCRC                                                                                                CLIMAJ                                                                                                                                                          0786399        04  0000000000000000                                                                            130 PRO DU BOURG                                                                                                                                        77176       NANDY                              FRANCE                   0000000000                       
F00786399            0000003012014033103185100SABSAB139    SABFIRME  10000000000010102RCRC                                                                                                CLIMAJ                                                                                                                                                          0786399        06FIF000161923                                                                                                                                                                                                                                                                                                                                                   
F00786399            0000003012014033103185100SABSAB139    SABFIRME  10000000000010102RCRC                                                                                                CLIMAJ                                                                                                                                                          0786399        10BUREAU01 60 63 55 15                                    1                                                                                                                                                                                                                                                                                                      
F00786399            0000003012014033103185100SABSAB139    SABFIRME  10000000000010102RCRC                                                                                                CLIMAJ                                                                                                                                                          0786399        10FAX   01 64 10 83 82                                    1                                                                                                                                                                                                                                                                                                      
F00786399            0000003012014033103185100SABSAB139    SABFIRME  10000000000010102RCRC                                                                                                CLIMAJ                                                                                                                                                          0786399        2019990101FIDCON                                                                                                                                                                                                                                                                                                                                                 
F00786399            0000003012014033103185100SABSAB139    SABFIRME  10000000000010102RCRC                                                                                                CLIMAJ                                                                                                                                                                         99000001                                                                                                                                                                                                                                                                                                                                                         
F00769598            0000004012014033103185100SABSAB139    SABFIRME  10000000000010102RCRC                                                                                                CLIMAJ                                                                                                                                                                         000001CLIPRO01  2014033100000001                                                                                                                                                                                                                                                                                                                                 
F00769598            0000004012014033103185100SABSAB139    SABFIRME  10000000000010102RCRC                                                                                                CLIMAJ                                                                                                                                                          0769598        01006EINC0102                LAFARGUE                        MARIE-FRANCOISE                                                                                                                                                                           LAFARGUE                        MARIE-FRANCOISE                 0                                         
F00769598            0000004012014033103185100SABSAB139    SABFIRME  10000000000010102RCRC                                                                                                CLIMAJ                                                                                                                                                          0769598        02          0000000000000000                                                                         0000000000000                                   00000       00000000                                           000000000000000   000000000000000000000000     00000000                                                      3 00                            
F00769598            0000004012014033103185100SABSAB139    SABFIRME  10000000000010102RCRC                                                                                                CLIMAJ                                                                                                                                                          0769598        03   PRS    8623Z           1                        00000000   00000000000                                        0000000000000000000000000000000000000000000000000000000          00000000      PRO         00000000                                                                                                                                           
F00769598            0000004012014033103185100SABSAB139    SABFIRME  10000000000010102RCRC                                                                                                CLIMAJ                                                                                                                                                          0769598        04  0000000000000000                                                                            3 RUE ST PIERRE                                                                                                                                         11590       OUVEILLAN                          FRANCE                   0000000000                       
F00769598            0000004012014033103185100SABSAB139    SABFIRME  10000000000010102RCRC                                                                                                CLIMAJ                                                                                                                                                          0769598        06FIF000161967                                                                                                                                                                                                                                                                                                                                                   
F00769598            0000004012014033103185100SABSAB139    SABFIRME  10000000000010102RCRC                                                                                                CLIMAJ                                                                                                                                                          0769598        10BUREAU04 68 46 84 25                                    1                                                                                                                                                                                                                                                                                                      
F00769598            0000004012014033103185100SABSAB139    SABFIRME  10000000000010102RCRC                                                                                                CLIMAJ                                                                                                                                                          0769598        10EMAILBdocteur.mf.lafargue@wanadoo.fr                    1                                                                                                                                                                                                                                                                                                      
F00769598            0000004012014033103185100SABSAB139    SABFIRME  10000000000010102RCRC                                                                                                CLIMAJ                                                                                                                                                          0769598        2019990401FIDCON                                                                                                                                                                                                                                                                                                                                                 
F00769598            0000004012014033103185100SABSAB139    SABFIRME  10000000000010102RCRC                                                                                                CLIMAJ                                                                                                                                                                         99000001                                                                                                                                                                                                                                                                                                                                                         
F00770190            0000005012014033103185100SABSAB139    SABFIRME  10000000000010102RCRC                                                                                                CLIMAJ                                                                                                                                                                         000001CLIPRO01  2014033100000001                                                                                                                                                                                                                                                                                                                                 
F00770190            0000005012014033103185100SABSAB139    SABFIRME  10000000000010102RCRC                                                                                                CLIMAJ                                                                                                                                                          0770190        01006EINC0102                CHEVALIER                       SYLVIE                                                                                                                                                                                    CHEVALIER                       SYLVIE                          0                                         
F00770190            0000005012014033103185100SABSAB139    SABFIRME  10000000000010102RCRC                                                                                                CLIMAJ                                                                                                                                                          0770190        02          0000000000000000                                                                         0000000000000                                   00000       00000000                                           000000000000000   000000000000000000000000     00000000                                                      3 00                            
F00770190            0000005012014033103185100SABSAB139    SABFIRME  10000000000010102RCRC                                                                                                CLIMAJ                                                                                                                                                          0770190        03   PRS    8690D           1                        00000000   00000000000                                        0000000000000000000000000000000000000000000000000000000          00000000      PRO         00000000                                                                                                                                           
F00770190            0000005012014033103185100SABSAB139    SABFIRME  10000000000010102RCRC                                                                                                CLIMAJ                                                                                                                                                          0770190        04  0000000000000000                                                                            279 RTE DE  LA  CROIX                                                                                                                                   01380       SAINT CYR SUR MENTHON              FRANCE                   0000000000                       
F00770190            0000005012014033103185100SABSAB139    SABFIRME  10000000000010102RCRC                                                                                                CLIMAJ                                                                                                                                                          0770190        06FIF000161976                                                                                                                                                                                                                                                                                                                                                   
F00770190            0000005012014033103185100SABSAB139    SABFIRME  10000000000010102RCRC                                                                                                CLIMAJ                                                                                                                                                          0770190        10BUREAU03 85 30 46 69                                    1                                                                                                                                                                                                                                                                                                      
F00770190            0000005012014033103185100SABSAB139    SABFIRME  10000000000010102RCRC                                                                                                CLIMAJ                                                                                                                                                          0770190        10EMAILBsylvie.chevalierpauline@laposte.net               1                                                                                                                                                                                                                                                                                                      
F00770190            0000005012014033103185100SABSAB139    SABFIRME  10000000000010102RCRC                                                                                                CLIMAJ                                                                                                                                                          0770190        2019990101FIDCON                                                                                                                                                                                                                                                                                                                                                 
F00770190            0000005012014033103185100SABSAB139    SABFIRME  10000000000010102RCRC                                                                                                CLIMAJ                                                                                                                                                                         99000001                                                                                                                                                                                                                                                                                                                                                         
F00770320            0000006012014033103185100SABSAB139    SABFIRME  10000000000010102RCRC                                                                                                CLIMAJ                                                                                                                                                                         000001CLIPRO01  2014033100000001                                                                                                                                                                                                                                                                                                                                 
F00770320            0000006012014033103185100SABSAB139    SABFIRME  10000000000010102RCRC                                                                                                CLIMAJ                                                                                                                                                          0770320        01006EINC0102                DUSSART                         MARIE JOSE                                                                                                                                                                                DUSSART                         MARIE JOSE                      0                                         
F00770320            0000006012014033103185100SABSAB139    SABFIRME  10000000000010102RCRC                                                                                                CLIMAJ                                                                                                                                                          0770320        02          0000000000000000                                                                         0000000000000                                   00000       00000000                                           000000000000000   000000000000000000000000     00000000                                                      3 00                            
F00770320            0000006012014033103185100SABSAB139    SABFIRME  10000000000010102RCRC                                                                                                CLIMAJ                                                                                                                                                          0770320        03   PRS    8690D           1                        00000000   00000000000                                        0000000000000000000000000000000000000000000000000000000          00000000      PRO         00000000                                                                                                                                           
F00770320            0000006012014033103185100SABSAB139    SABFIRME  10000000000010102RCRC                                                                                                CLIMAJ                                                                                                                                                          0770320        04  0000000000000000                                                                            591 RUE PAUL PAVOT                                                                                                                                      59730       VERTAIN                            FRANCE                   0000000000                       
F00770320            0000006012014033103185100SABSAB139    SABFIRME  10000000000010102RCRC                                                                                                CLIMAJ                                                                                                                                                          0770320        06FIF000161978                                                                                                                                                                                                                                                                                                                                                   
F00770320            0000006012014033103185100SABSAB139    SABFIRME  10000000000010102RCRC                                                                                                CLIMAJ                                                                                                                                                          0770320        10BUREAU03 27 79 23 18                                    1                                                                                                                                                                                                                                                                                                      
F00770320            0000006012014033103185100SABSAB139    SABFIRME  10000000000010102RCRC                                                                                                CLIMAJ                                                                                                                                                          0770320        10EMAILBmarie-jo.dussart@wanadoo.fr                       1                                                                                                                                                                                                                                                                                                      
F00770320            0000006012014033103185100SABSAB139    SABFIRME  10000000000010102RCRC                                                                                                CLIMAJ                                                                                                                                                          0770320        2019980101FIDCON                                                                                                                                                                                                                                                                                                                                                 
F00770320            0000006012014033103185100SABSAB139    SABFIRME  10000000000010102RCRC                                                                                                CLIMAJ                                                                                                                                                                         99000001                                                                                                                                                                                                                                                                                                                                                         
F00805127            0000007012014033103185100SABSAB139    SABFIRME  10000000000010102RCRC                                                                                                CLIMAJ                                                                                                                                                                         000001CLIPRO01  2014033100000001                                                                                                                                                                                                                                                                                                                                 
F00805127            0000007012014033103185100SABSAB139    SABFIRME  10000000000010102RCRC                                                                                                CLIMAJ                                                                                                                                                          0805127        01005EINC0102                TIMMERMANS                      GUY                                                                                                                                                                                       TIMMERMANS                      GUY                             0                                         
F00805127            0000007012014033103185100SABSAB139    SABFIRME  10000000000010102RCRC                                                                                                CLIMAJ                                                                                                                                                          0805127        02          0000000000000000                                                                         0000000000000                                   00000       00000000                                           000000000000000   000000000000000000000000     00000000                                                      3 00                            
F00805127            0000007012014033103185100SABSAB139    SABFIRME  10000000000010102RCRC                                                                                                CLIMAJ                                                                                                                                                          0805127        03   PRS    7500Z           1                        00000000   00000000000                                        0000000000000000000000000000000000000000000000000000000          00000000      PRO         00000000                                                                                                                                           
F00805127            0000007012014033103185100SABSAB139    SABFIRME  10000000000010102RCRC                                                                                                CLIMAJ                                                                                                                                                          0805127        04  0000000000000000                                                                            ZA DE LA CHARDRONNAIS                                                                                                                                   35680       LOUVIGNE DE BAIS                   FRANCE                   0000000000                       
F00805127            0000007012014033103185100SABSAB139    SABFIRME  10000000000010102RCRC                                                                                                CLIMAJ                                                                                                                                                          0805127        06FIF000162806                                                                                                                                                                                                                                                                                                                                                   
F00805127            0000007012014033103185100SABSAB139    SABFIRME  10000000000010102RCRC                                                                                                CLIMAJ                                                                                                                                                          0805127        10BUREAU02 99 49 14 78                                    1                                                                                                                                                                                                                                                                                                      
F00805127            0000007012014033103185100SABSAB139    SABFIRME  10000000000010102RCRC                                                                                                CLIMAJ                                                                                                                                                          0805127        10EMAILBcabinettimmermans@wanadoo.fr                      1                                                                                                                                                                                                                                                                                                      
F00805127            0000007012014033103185100SABSAB139    SABFIRME  10000000000010102RCRC                                                                                                CLIMAJ                                                                                                                                                          0805127        2020010701FIDCON                                                                                                                                                                                                                                                                                                                                                 
F00805127            0000007012014033103185100SABSAB139    SABFIRME  10000000000010102RCRC                                                                                                CLIMAJ                                                                                                                                                                         99000001                                                                                                                                                                                                                                                                                                                                                         
F00805775            0000008012014033103185100SABSAB139    SABFIRME  10000000000010102RCRC                                                                                                CLIMAJ                                                                                                                                                                         000001CLIPRO01  2014033100000001                                                                                                                                                                                                                                                                                                                                 
F00805775            0000008012014033103185100SABSAB139    SABFIRME  10000000000010102RCRC                                                                                                CLIMAJ                                                                                                                                                          0805775        01005EINC0102                DE QUILLACQ                     EMERIC                                                                                                                                                                                    DE QUILLACQ                     EMERIC                          0                                         
F00805775            0000008012014033103185100SABSAB139    SABFIRME  10000000000010102RCRC                                                                                                CLIMAJ                                                                                                                                                          0805775        02          0000000000000000                                                                         0000000000000                                   00000       00000000                                           000000000000000   000000000000000000000000     00000000                                                      3 00                            
F00805775            0000008012014033103185100SABSAB139    SABFIRME  10000000000010102RCRC                                                                                                CLIMAJ                                                                                                                                                          0805775        03   PRS    8623Z           1                        00000000   00000000000                                        0000000000000000000000000000000000000000000000000000000          00000000      PRO         00000000                                                                                                                                           
F00805775            0000008012014033103185100SABSAB139    SABFIRME  10000000000010102RCRC                                                                                                CLIMAJ                                                                                                                                                          0805775        04  0000000000000000                                                                            45 BD RENE CASSIN                     LE CALIFORNIA PARK                                                          ENTREE B                              06200       NICE                               FRANCE                   0000000000                       
F00805775            0000008012014033103185100SABSAB139    SABFIRME  10000000000010102RCRC                                                                                                CLIMAJ                                                                                                                                                          0805775        06FIF000162820                                                                                                                                                                                                                                                                                                                                                   
F00805775            0000008012014033103185100SABSAB139    SABFIRME  10000000000010102RCRC                                                                                                CLIMAJ                                                                                                                                                          0805775        10BUREAU04 93 83 87 37                                    1                                                                                                                                                                                                                                                                                                      
F00805775            0000008012014033103185100SABSAB139    SABFIRME  10000000000010102RCRC                                                                                                CLIMAJ                                                                                                                                                          0805775        10FAX   04 93 18 05 08                                    1                                                                                                                                                                                                                                                                                                      
F00805775            0000008012014033103185100SABSAB139    SABFIRME  10000000000010102RCRC                                                                                                CLIMAJ                                                                                                                                                          0805775        10EMAILBemericdequillacq@wanadoo.fr                       1                                                                                                                                                                                                                                                                                                      
F00805775            0000008012014033103185100SABSAB139    SABFIRME  10000000000010102RCRC                                                                                                CLIMAJ                                                                                                                                                          0805775        2020010101FIDCON                                                                                                                                                                                                                                                                                                                                                 
F00805775            0000008012014033103185100SABSAB139    SABFIRME  10000000000010102RCRC                                                                                                CLIMAJ                                                                                                                                                                         99000001                                                                                                                                                                                                                                                                                                                                                         
F00806288            0000009012014033103185100SABSAB139    SABFIRME  10000000000010102RCRC                                                                                                CLIMAJ                                                                                                                                                                         000001CLIPRO01  2014033100000001                                                                                                                                                                                                                                                                                                                                 
F00806288            0000009012014033103185100SABSAB139    SABFIRME  10000000000010102RCRC                                                                                                CLIMAJ                                                                                                                                                          0806288        01005EINC0102                JULLIOT                         VINCENT                                                                                                                                                                                   JULLIOT                         VINCENT                         0                                         
F00806288            0000009012014033103185100SABSAB139    SABFIRME  10000000000010102RCRC                                                                                                CLIMAJ                                                                                                                                                          0806288        02          0000000000000000                                                                         0000000000000                                   00000       00000000                                           000000000000000   000000000000000000000000     00000000                                                      3 00                            
F00806288            0000009012014033103185100SABSAB139    SABFIRME  10000000000010102RCRC                                                                                                CLIMAJ                                                                                                                                                          0806288        03   PRS    8623Z           1                        00000000   00000000000                                        0000000000000000000000000000000000000000000000000000000          00000000      PRO         00000000                                                                                                                                           
F00806288            0000009012014033103185100SABSAB139    SABFIRME  10000000000010102RCRC                                                                                                CLIMAJ                                                                                                                                                          0806288        04  0000000000000000                                                                            59 AV DE LA CROIX DE GUERRE                                                                                                                             49400       SAINT LAMBERT DES LEVEES           FRANCE                   0000000000                       
F00806288            0000009012014033103185100SABSAB139    SABFIRME  10000000000010102RCRC                                                                                                CLIMAJ                                                                                                                                                          0806288        06FIF000162827                                                                                                                                                                                                                                                                                                                                                   
F00806288            0000009012014033103185100SABSAB139    SABFIRME  10000000000010102RCRC                                                                                                CLIMAJ                                                                                                                                                          0806288        10BUREAU02 41 67 55 95                                    1                                                                                                                                                                                                                                                                                                      
F00806288            0000009012014033103185100SABSAB139    SABFIRME  10000000000010102RCRC                                                                                                CLIMAJ                                                                                                                                                          0806288        2020000316FIDCON                                                                                                                                                                                                                                                                                                                                                 
F00806288            0000009012014033103185100SABSAB139    SABFIRME  10000000000010102RCRC                                                                                                CLIMAJ                                                                                                                                                                         99000001                                                                                                                                                                                                                                                                                                                                                         
F00807447            0000010012014033103185100SABSAB139    SABFIRME  10000000000010102RCRC                                                                                                CLIMAJ                                                                                                                                                                         000001CLIPRO01  2014033100000001                                                                                                                                                                                                                                                                                                                                 
F00807447            0000010012014033103185100SABSAB139    SABFIRME  10000000000010102RCRC                                                                                                CLIMAJ                                                                                                                                                          0807447        01006EINC0102                SAILLANT BONIN                  PASCALE                                                                                                                                                                                   SAILLANT BONIN                  PASCALE                         0                                         
F00807447            0000010012014033103185100SABSAB139    SABFIRME  10000000000010102RCRC                                                                                                CLIMAJ                                                                                                                                                          0807447        02          0000000000000000                                                                         0000000000000                                   00000       00000000                                           000000000000000   000000000000000000000000     00000000                                                      3 00                            
F00807447            0000010012014033103185100SABSAB139    SABFIRME  10000000000010102RCRC                                                                                                CLIMAJ                                                                                                                                                          0807447        03   PRS    8690D           1                        00000000   00000000000                                        0000000000000000000000000000000000000000000000000000000          00000000      PRO         00000000                                                                                                                                           
F00807447            0000010012014033103185100SABSAB139    SABFIRME  10000000000010102RCRC                                                                                                CLIMAJ                                                                                                                                                          0807447        04  0000000000000000                                                                            LE BOURG                                                                                                                                                01570       VESINES                            FRANCE                   0000000000                       
F00807447            0000010012014033103185100SABSAB139    SABFIRME  10000000000010102RCRC                                                                                                CLIMAJ                                                                                                                                                          0807447        06FIF000162841                                                                                                                                                                                                                                                                                                                                                   
F00807447            0000010012014033103185100SABSAB139    SABFIRME  10000000000010102RCRC                                                                                                CLIMAJ                                                                                                                                                          0807447        10BUREAU03 85 36 11 69                                    1                                                                                                                                                                                                                                                                                                      
F00807447            0000010012014033103185100SABSAB139    SABFIRME  10000000000010102RCRC                                                                                                CLIMAJ                                                                                                                                                          0807447        2020010701FIDCON                                                                                                                                                                                                                                                                                                                                                 
F00807447            0000010012014033103185100SABSAB139    SABFIRME  10000000000010102RCRC                                                                                                CLIMAJ                                                                                                                                                                         99000001                                                                                                                                                                                                                                                                                                                                                         
F00954487            0000011012014033103185100SABSAB139    SABFIRME  10000000000010102RCRC                                                                                                CLIMAJ                                                                                                                                                                         000001CLIPRO01  2014033100000001                                                                                                                                                                                                                                                                                                                                 
F00954487            0000011012014033103185100SABSAB139    SABFIRME  10000000000010102RCRC                                                                                                CLIMAJ                                                                                                                                                          0954487        01006EINC0102                DUCHADEUIL                      DELPHINE                                                                                                                                                                                  DUCHADEUIL                      DELPHINE                        0                                         
F00954487            0000011012014033103185100SABSAB139    SABFIRME  10000000000010102RCRC                                                                                                CLIMAJ                                                                                                                                                          0954487        02          0000000000000000                                                                         0000000000000                                   00000       00000000                                           000000000000000   000000000000000000000000     00000000                                                      3 00                            
F00954487            0000011012014033103185100SABSAB139    SABFIRME  10000000000010102RCRC                                                                                                CLIMAJ                                                                                                                                                          0954487        03   PRS    8690D           1                        00000000   00000000000                                        0000000000000000000000000000000000000000000000000000000          00000000      PRO         00000000                                                                                                                                           
F00954487            0000011012014033103185100SABSAB139    SABFIRME  10000000000010102RCRC                                                                                                CLIMAJ                                                                                                                                                          0954487        04  0000000000000000                                                                            364 CRS DE LA REPUBLIQUE                                                                                                                                84120       PERTUIS                            FRANCE                   0000000000                       
F00954487            0000011012014033103185100SABSAB139    SABFIRME  10000000000010102RCRC                                                                                                CLIMAJ                                                                                                                                                          0954487        06FIF000162846                                                                                                                                                                                                                                                                                                                                                   
F00954487            0000011012014033103185100SABSAB139    SABFIRME  10000000000010102RCRC                                                                                                CLIMAJ                                                                                                                                                          0954487        10BUREAU06 30 08 95 33                                    1                                                                                                                                                                                                                                                                                                      
F00954487            0000011012014033103185100SABSAB139    SABFIRME  10000000000010102RCRC                                                                                                CLIMAJ                                                                                                                                                          0954487        10EMAILBd_duchadeuil@yahoo.fr                             1                                                                                                                                                                                                                                                                                                      
F00954487            0000011012014033103185100SABSAB139    SABFIRME  10000000000010102RCRC                                                                                                CLIMAJ                                                                                                                                                          0954487        2020100101FIDCON                                                                                                                                                                                                                                                                                                                                                 
F00954487            0000011012014033103185100SABSAB139    SABFIRME  10000000000010102RCRC                                                                                                CLIMAJ                                                                                                                                                                         99000001                                                                                                                                                                                                                                                                                                                                                         
F00954903            0000012012014033103185100SABSAB139    SABFIRME  10000000000010102RCRC                                                                                                CLIMAJ                                                                                                                                                                         000001CLIPRO01  2014033100000001                                                                                                                                                                                                                                                                                                                                 
F00954903            0000012012014033103185200SABSAB139    SABFIRME  10000000000010102RCRC                                                                                                CLIMAJ                                                                                                                                                          0954903        01005EINC0102                CARSUZAA                        THIERRY                                                                                                                                                                                   CARSUZAA                        THIERRY                         0                                         
F00954903            0000012012014033103185200SABSAB139    SABFIRME  10000000000010102RCRC                                                                                                CLIMAJ                                                                                                                                                          0954903        02          0000000000000000                                                                         0000000000000                                   00000       00000000                                           000000000000000   000000000000000000000000     00000000                                                      3 00                            
F00954903            0000012012014033103185200SABSAB139    SABFIRME  10000000000010102RCRC                                                                                                CLIMAJ                                                                                                                                                          0954903        03   PRS    8621Z           1                        00000000   00000000000                                        0000000000000000000000000000000000000000000000000000000          00000000      PRO         00000000                                                                                                                                           
F00954903            0000012012014033103185200SABSAB139    SABFIRME  10000000000010102RCRC                                                                                                CLIMAJ                                                                                                                                                          0954903        04  0000000000000000                                                                            4 AV DE LA PROMENADE                                                                                                                                    34440       NISSAN LEZ ENSERUNE                FRANCE                   0000000000                       
F00954903            0000012012014033103185200SABSAB139    SABFIRME  10000000000010102RCRC                                                                                                CLIMAJ                                                                                                                                                          0954903        06FIF000162861                                                                                                                                                                                                                                                                                                                                                   
F00954903            0000012012014033103185200SABSAB139    SABFIRME  10000000000010102RCRC                                                                                                CLIMAJ                                                                                                                                                          0954903        10BUREAU04 67 37 01 47                                    1                                                                                                                                                                                                                                                                                                      
F00954903            0000012012014033103185200SABSAB139    SABFIRME  10000000000010102RCRC                                                                                                CLIMAJ                                                                                                                                                          0954903        10EMAILBthierry.carsuzaa@wanadoo.fr                       1                                                                                                                                                                                                                                                                                                      
F00954903            0000012012014033103185200SABSAB139    SABFIRME  10000000000010102RCRC                                                                                                CLIMAJ                                                                                                                                                          0954903        2020100101FIDCON                                                                                                                                                                                                                                                                                                                                                 
F00954903            0000012012014033103185200SABSAB139    SABFIRME  10000000000010102RCRC                                                                                                CLIMAJ                                                                                                                                                                         99000001                                                                                                                                                                                                                                                                                                                                                         
F00955012            0000013012014033103185200SABSAB139    SABFIRME  10000000000010102RCRC                                                                                                CLIMAJ                                                                                                                                                                         000001CLIPRO01  2014033100000001                                                                                                                                                                                                                                                                                                                                 
F00955012            0000013012014033103185200SABSAB139    SABFIRME  10000000000010102RCRC                                                                                                CLIMAJ                                                                                                                                                          0955012        01005EINC0102                MUCCI                           EMMANUEL                                                                                                                                                                                  MUCCI                           EMMANUEL                        0                                         
F00955012            0000013012014033103185200SABSAB139    SABFIRME  10000000000010102RCRC                                                                                                CLIMAJ                                                                                                                                                          0955012        02          0000000000000000                                                                         0000000000000                                   00000       00000000                                           000000000000000   000000000000000000000000     00000000                                                      3 00                            
F00955012            0000013012014033103185200SABSAB139    SABFIRME  10000000000010102RCRC                                                                                                CLIMAJ                                                                                                                                                          0955012        03   PRS    8622C           1                        00000000   00000000000                                        0000000000000000000000000000000000000000000000000000000          00000000      PRO         00000000                                                                                                                                           
F00955012            0000013012014033103185200SABSAB139    SABFIRME  10000000000010102RCRC                                                                                                CLIMAJ                                                                                                                                                          0955012        04  0000000000000000                                                                            3 RUE DU PONT DE PRUNIERS                                                                                                                               49080       BOUCHEMAINE                        FRANCE                   0000000000                       
F00955012            0000013012014033103185200SABSAB139    SABFIRME  10000000000010102RCRC                                                                                                CLIMAJ                                                                                                                                                          0955012        06FIF000162865                                                                                                                                                                                                                                                                                                                                                   
F00955012            0000013012014033103185200SABSAB139    SABFIRME  10000000000010102RCRC                                                                                                CLIMAJ                                                                                                                                                          0955012        10BUREAU06 10 77 71 98                                    1                                                                                                                                                                                                                                                                                                      
F00955012            0000013012014033103185200SABSAB139    SABFIRME  10000000000010102RCRC                                                                                                CLIMAJ                                                                                                                                                          0955012        10EMAILBmucciemmanuel@yahoo.fr                            1                                                                                                                                                                                                                                                                                                      
F00955012            0000013012014033103185200SABSAB139    SABFIRME  10000000000010102RCRC                                                                                                CLIMAJ                                                                                                                                                          0955012        2020110331FIDCON                                                                                                                                                                                                                                                                                                                                                 
F00955012            0000013012014033103185200SABSAB139    SABFIRME  10000000000010102RCRC                                                                                                CLIMAJ                                                                                                                                                                         99000001                                                                                                                                                                                                                                                                                                                                                         
F00906634            0000014012014033103185200SABSAB139    SABFIRME  10000000000010102RCRC                                                                                                CLIMAJ                                                                                                                                                                         000001CLIPRO01  2014033100000001                                                                                                                                                                                                                                                                                                                                 
F00906634            0000014012014033103185200SABSAB139    SABFIRME  10000000000010102RCRC                                                                                                CLIMAJ                                                                                                                                                          0906634        01006EINC0102                GAILLOT                         HELENE                                                                                                                                                                                    GAILLOT                         HELENE                          0                                         
F00906634            0000014012014033103185200SABSAB139    SABFIRME  10000000000010102RCRC                                                                                                CLIMAJ                                                                                                                                                          0906634        02          0000000000000000                                                                         0000000000000                                   00000       00000000                                           000000000000000   000000000000000000000000     00000000                                                      3 00                            
F00906634            0000014012014033103185200SABSAB139    SABFIRME  10000000000010102RCRC                                                                                                CLIMAJ                                                                                                                                                          0906634        03   PRS    8623Z           1                        00000000   00000000000                                        0000000000000000000000000000000000000000000000000000000          00000000      PRO         00000000                                                                                                                                           
F00906634            0000014012014033103185200SABSAB139    SABFIRME  10000000000010102RCRC                                                                                                CLIMAJ                                                                                                                                                          0906634        04  0000000000000000                                                                            2B RUE DES TILLEULS                                                                                                                                     88160       LE THILLOT                         FRANCE                   0000000000                       
F00906634            0000014012014033103185200SABSAB139    SABFIRME  10000000000010102RCRC                                                                                                CLIMAJ                                                                                                                                                          0906634        06FIF000166416                                                                                                                                                                                                                                                                                                                                                   
F00906634            0000014012014033103185200SABSAB139    SABFIRME  10000000000010102RCRC                                                                                                CLIMAJ                                                                                                                                                          0906634        10BUREAU03 29 24 99 40                                    1                                                                                                                                                                                                                                                                                                      
F00906634            0000014012014033103185200SABSAB139    SABFIRME  10000000000010102RCRC                                                                                                CLIMAJ                                                                                                                                                          0906634        10FAX   03 29 23 05 48                                    1                                                                                                                                                                                                                                                                                                      
