F00728803            0000001012014040907122900SABSAB139    SABFIRME  10000000000010102RCRC                                                                                                CLIMAJ                                                                                                        007                                                              000001CLIPRO01  2014040900000001                                                                                                                                                                                                                                                                                                                                 
F00728803            0000002012014040907122900SABSAB139    SABFIRME  10000000000010102RCRC                                                                                                CLIMAJ                                                                                                        007                                               0728803        01005EINC0102MR  DUVAL       DUVAL                           JACQUES                                                                                                                                                                                   DUVAL                           JACQUES                         0                                         
F00728803            0000003012014040907122900SABSAB139    SABFIRME  10000000000010102RCRC                                                                                                CLIMAJ                                                                                                        007                                               0728803        02          0000000000000000                                                                         0000000000000                                   00000       00000000                                           000000000000000   000000000000000000000000     00000000                                                      3 00                            
F00728803            0000004012014040907122900SABSAB139    SABFIRME  10000000000010102RCRC                                                                                                CLIMAJ                                                                                                        007                                               0728803        03   PRS    8623Z           1                        00000000   00000000000                                        0000000000000000000000000000000000000000000000000000000          00000000      PRO         00000000                                                                                                                                           
F00728803            0000005012014040907122900SABSAB139    SABFIRME  10000000000010102RCRC                                                                                                CLIMAJ                                                                                                        007                                               0728803        04  0000000000000000                                                                            3 ALEZ AN EOSTIGED                                                                                                                                      29000       QUIMPER                            FRANCE                   0000000000                       
F00728803            0000006012014040907122900SABSAB139    SABFIRME  10000000000010102RCRC                                                                                                CLIMAJ                                                                                                        007                                               0728803        06FIF000161149                                                                                                                                                                                                                                                                                                                                                   
F00728803            0000007012014040907122900SABSAB139    SABFIRME  10000000000010102RCRC                                                                                                CLIMAJ                                                                                                        007                                               0728803        10BUREAU02 98 95 05 75                                    1                                                                                                                                                                                                                                                                                                      
F00728803            0000008012014040907122900SABSAB139    SABFIRME  10000000000010102RCRC                                                                                                CLIMAJ                                                                                                        007                                               0728803        2020000418FIDCON                                                                                                                                                                                                                                                                                                                                                 
F00728803            0000009012014040907122900SABSAB139    SABFIRME  10000000000010102RCRC                                                                                                CLIMAJ                                                                                                        007                                                              99000001                                                                                                                                                                                                                                                                                                                                                         