F00779145            0000001012014052611565000SABSAB139    SABFIRME  10000000000010102RCRC                                                                                                CLIMAJ                                                                                                        007                                                              000001CLIPRO01  2014052600000001                                                                                                                                                                                                                                                                                                                                
F00779145            0000002012014052611565000SABSAB139    SABFIRME  10000000000010102RCRC                                                                                                CLIMAJ                                                                                                        007                                               0779145        01005EINC0102EIMRBALAND      BALAND                          CLAUDE                                                                                                                          00000000                                                  BALAND                          CLAUDE                          0                                        
F00779145            0000003012014052611565000SABSAB139    SABFIRME  10000000000010102RCRC                                                                                                CLIMAJ                                                                                                        007                                               0779145        02          0000000000000000                                                                         0000000000000                                   00000       00000000                                           000000000000000   000000000000000000000000     00000000                                                      3 00                           
F00779145            0000004012014052611565000SABSAB139    SABFIRME  10000000000010102RCRC                                                                                                CLIMAJ                                                                                                        007                                               0779145        03021PRS    8690E           1                        00000000   00000000000                                        0000000000000000000000000000000000000000000000000000000          00000000      PRO         00000000                                                                                                                                          
F00779145            0000005012014052611565000SABSAB139    SABFIRME  10000000000010102RCRC                                                                                                CLIMAJ                                                                                                        007                                               0779145        04  2999123100000000                                                                            27 RUE BOIS DES DAMES                                                                                                                                   88290       SAULXURES SUR MOSELOTTE            FRANCE                   0000000000                      
F00779145            0000006012014052611565000SABSAB139    SABFIRME  10000000000010102RCRC                                                                                                CLIMAJ                                                                                                        007                                               0779145        06FIF000161807                                                                                                                                                                                                                                                                                                                                                  
F00779145            0000007012014052611565000SABSAB139    SABFIRME  10000000000010102RCRC                                                                                                CLIMAJ                                                                                                        007                                               0779145        10BUREAU03 29 24 61 98                                    1                                                                                                                                                                                                                                                                                                     
F00779145            0000008012014052611565000SABSAB139    SABFIRME  10000000000010102RCRC                                                                                                CLIMAJ                                                                                                        007                                               0779145        10EMAILBclaude.baland@orange.fr                           1                                                                                                                                                                                                                                                                                                     
F00779145            0000009012014052611565000SABSAB139    SABFIRME  10000000000010102RCRC                                                                                                CLIMAJ                                                                                                        007                                               0779145        2019990101FIDCON                                                                                                                                                                                                                                                                                                                                                
F00779145            0000010012014052611565000SABSAB139    SABFIRME  10000000000010102RCRC                                                                                                CLIMAJ                                                                                                        007                                                              99000001                                                                                                                                                                                                                                                                                     